{
  "_format": "hh-sol-artifact-1",
  "contractName": "PolygonBSG",
  "sourceName": "contracts/BSG.sol",
  "abi": [
    {
      "inputs": [
        {
          "internalType": "address",
          "name": "_usdtAddr",
          "type": "address"
        },
        {
          "internalType": "address",
          "name": "_defaultRefer",
          "type": "address"
        },
        {
          "internalType": "address",
          "name": "_insurance",
          "type": "address"
        },
        {
          "internalType": "address[2]",
          "name": "_feeReceivers",
          "type": "address[2]"
        }
      ],
      "stateMutability": "nonpayable",
      "type": "constructor"
    },
    {
      "anonymous": false,
      "inputs": [
        {
          "indexed": false,
          "internalType": "address",
          "name": "user",
          "type": "address"
        },
        {
          "indexed": false,
          "internalType": "uint256",
          "name": "amount",
          "type": "uint256"
        }
      ],
      "name": "Deposit",
      "type": "event"
    },
    {
      "anonymous": false,
      "inputs": [
        {
          "indexed": false,
          "internalType": "address",
          "name": "user",
          "type": "address"
        },
        {
          "indexed": false,
          "internalType": "uint256",
          "name": "amount",
          "type": "uint256"
        }
      ],
      "name": "DepositBylockusdt",
      "type": "event"
    },
    {
      "anonymous": false,
      "inputs": [
        {
          "indexed": false,
          "internalType": "address",
          "name": "user",
          "type": "address"
        },
        {
          "indexed": false,
          "internalType": "address",
          "name": "referral",
          "type": "address"
        }
      ],
      "name": "Register",
      "type": "event"
    },
    {
      "anonymous": false,
      "inputs": [
        {
          "indexed": false,
          "internalType": "address",
          "name": "user",
          "type": "address"
        },
        {
          "indexed": false,
          "internalType": "address",
          "name": "receiver",
          "type": "address"
        },
        {
          "indexed": false,
          "internalType": "uint256",
          "name": "amount",
          "type": "uint256"
        }
      ],
      "name": "TransferBylockusdt",
      "type": "event"
    },
    {
      "anonymous": false,
      "inputs": [
        {
          "indexed": false,
          "internalType": "address",
          "name": "user",
          "type": "address"
        },
        {
          "indexed": false,
          "internalType": "uint256",
          "name": "withdrawable",
          "type": "uint256"
        }
      ],
      "name": "Withdraw",
      "type": "event"
    },
    {
      "inputs": [],
      "name": "AllTimeHigh",
      "outputs": [
        {
          "internalType": "uint256",
          "name": "",
          "type": "uint256"
        }
      ],
      "stateMutability": "view",
      "type": "function"
    },
    {
      "inputs": [
        {
          "internalType": "address",
          "name": "_user",
          "type": "address"
        }
      ],
      "name": "_checkClaimable",
      "outputs": [
        {
          "internalType": "bool",
          "name": "",
          "type": "bool"
        }
      ],
      "stateMutability": "view",
      "type": "function"
    },
    {
      "inputs": [
        {
          "internalType": "address",
          "name": "_user",
          "type": "address"
        }
      ],
      "name": "_checkRegistered",
      "outputs": [
        {
          "internalType": "bool",
          "name": "",
          "type": "bool"
        }
      ],
      "stateMutability": "view",
      "type": "function"
    },
    {
      "inputs": [
        {
          "internalType": "uint256",
          "name": "",
          "type": "uint256"
        }
      ],
      "name": "balStatus",
      "outputs": [
        {
          "internalType": "bool",
          "name": "",
          "type": "bool"
        }
      ],
      "stateMutability": "view",
      "type": "function"
    },
    {
      "inputs": [
        {
          "internalType": "uint256",
          "name": "",
          "type": "uint256"
        }
      ],
      "name": "blueDiamondUsers",
      "outputs": [
        {
          "internalType": "address",
          "name": "",
          "type": "address"
        }
      ],
      "stateMutability": "view",
      "type": "function"
    },
    {
      "inputs": [
        {
          "internalType": "uint256",
          "name": "",
          "type": "uint256"
        }
      ],
      "name": "crownDiamondUsers",
      "outputs": [
        {
          "internalType": "address",
          "name": "",
          "type": "address"
        }
      ],
      "stateMutability": "view",
      "type": "function"
    },
    {
      "inputs": [
        {
          "internalType": "uint256",
          "name": "",
          "type": "uint256"
        },
        {
          "internalType": "uint256",
          "name": "",
          "type": "uint256"
        }
      ],
      "name": "dayMore1kUsers",
      "outputs": [
        {
          "internalType": "address",
          "name": "",
          "type": "address"
        }
      ],
      "stateMutability": "view",
      "type": "function"
    },
    {
      "inputs": [],
      "name": "defaultRefer",
      "outputs": [
        {
          "internalType": "address",
          "name": "",
          "type": "address"
        }
      ],
      "stateMutability": "view",
      "type": "function"
    },
    {
      "inputs": [
        {
          "internalType": "uint256",
          "name": "amount",
          "type": "uint256"
        }
      ],
      "name": "deposit",
      "outputs": [],
      "stateMutability": "nonpayable",
      "type": "function"
    },
    {
      "inputs": [
        {
          "internalType": "uint256",
          "name": "amount",
          "type": "uint256"
        }
      ],
      "name": "depositBylockusdt",
      "outputs": [],
      "stateMutability": "nonpayable",
      "type": "function"
    },
    {
      "inputs": [
        {
          "internalType": "uint256",
          "name": "",
          "type": "uint256"
        }
      ],
      "name": "depositors",
      "outputs": [
        {
          "internalType": "address",
          "name": "",
          "type": "address"
        }
      ],
      "stateMutability": "view",
      "type": "function"
    },
    {
      "inputs": [],
      "name": "diamondIncomePool",
      "outputs": [
        {
          "internalType": "uint256",
          "name": "",
          "type": "uint256"
        }
      ],
      "stateMutability": "view",
      "type": "function"
    },
    {
      "inputs": [
        {
          "internalType": "uint256",
          "name": "",
          "type": "uint256"
        }
      ],
      "name": "diamondUsers",
      "outputs": [
        {
          "internalType": "address",
          "name": "",
          "type": "address"
        }
      ],
      "stateMutability": "view",
      "type": "function"
    },
    {
      "inputs": [],
      "name": "distributePoolRewards",
      "outputs": [],
      "stateMutability": "nonpayable",
      "type": "function"
    },
    {
      "inputs": [
        {
          "internalType": "uint256",
          "name": "",
          "type": "uint256"
        }
      ],
      "name": "feeReceivers",
      "outputs": [
        {
          "internalType": "address",
          "name": "",
          "type": "address"
        }
      ],
      "stateMutability": "view",
      "type": "function"
    },
    {
      "inputs": [],
      "name": "getCurDay",
      "outputs": [
        {
          "internalType": "uint256",
          "name": "",
          "type": "uint256"
        }
      ],
      "stateMutability": "view",
      "type": "function"
    },
    {
      "inputs": [
        {
          "internalType": "address",
          "name": "_user",
          "type": "address"
        }
      ],
      "name": "getCurlockusdt",
      "outputs": [
        {
          "internalType": "uint256",
          "name": "",
          "type": "uint256"
        }
      ],
      "stateMutability": "view",
      "type": "function"
    },
    {
      "inputs": [
        {
          "internalType": "uint256",
          "name": "_day",
          "type": "uint256"
        }
      ],
      "name": "getDayMore1kLength",
      "outputs": [
        {
          "internalType": "uint256",
          "name": "",
          "type": "uint256"
        }
      ],
      "stateMutability": "view",
      "type": "function"
    },
    {
      "inputs": [],
      "name": "getDepositorsLength",
      "outputs": [
        {
          "internalType": "uint256",
          "name": "",
          "type": "uint256"
        }
      ],
      "stateMutability": "view",
      "type": "function"
    },
    {
      "inputs": [
        {
          "internalType": "address",
          "name": "_user",
          "type": "address"
        }
      ],
      "name": "getMaxFreezing",
      "outputs": [
        {
          "internalType": "uint256",
          "name": "",
          "type": "uint256"
        }
      ],
      "stateMutability": "view",
      "type": "function"
    },
    {
      "inputs": [
        {
          "internalType": "address",
          "name": "_user",
          "type": "address"
        }
      ],
      "name": "getMyTeamNumbers",
      "outputs": [
        {
          "internalType": "uint256",
          "name": "",
          "type": "uint256"
        }
      ],
      "stateMutability": "view",
      "type": "function"
    },
    {
      "inputs": [
        {
          "internalType": "address",
          "name": "_user",
          "type": "address"
        }
      ],
      "name": "getOrderLength",
      "outputs": [
        {
          "internalType": "uint256",
          "name": "",
          "type": "uint256"
        }
      ],
      "stateMutability": "view",
      "type": "function"
    },
    {
      "inputs": [
        {
          "internalType": "address",
          "name": "_user",
          "type": "address"
        }
      ],
      "name": "getTeamDeposit",
      "outputs": [
        {
          "internalType": "uint256",
          "name": "",
          "type": "uint256"
        }
      ],
      "stateMutability": "view",
      "type": "function"
    },
    {
      "inputs": [
        {
          "internalType": "address",
          "name": "_user",
          "type": "address"
        }
      ],
      "name": "getTeamUsersLength",
      "outputs": [
        {
          "internalType": "uint256",
          "name": "",
          "type": "uint256"
        }
      ],
      "stateMutability": "view",
      "type": "function"
    },
    {
      "inputs": [
        {
          "internalType": "address",
          "name": "_user",
          "type": "address"
        },
        {
          "internalType": "uint256",
          "name": "_layer",
          "type": "uint256"
        }
      ],
      "name": "getTeamUsersLengthwithDepth",
      "outputs": [
        {
          "internalType": "uint256",
          "name": "",
          "type": "uint256"
        }
      ],
      "stateMutability": "view",
      "type": "function"
    },
    {
      "inputs": [],
      "name": "insuranceAccount",
      "outputs": [
        {
          "internalType": "address",
          "name": "",
          "type": "address"
        }
      ],
      "stateMutability": "view",
      "type": "function"
    },
    {
      "inputs": [],
      "name": "insurancePool",
      "outputs": [
        {
          "internalType": "uint256",
          "name": "",
          "type": "uint256"
        }
      ],
      "stateMutability": "view",
      "type": "function"
    },
    {
      "inputs": [],
      "name": "isFreezeReward",
      "outputs": [
        {
          "internalType": "bool",
          "name": "",
          "type": "bool"
        }
      ],
      "stateMutability": "view",
      "type": "function"
    },
    {
      "inputs": [],
      "name": "isStopLoss30ofATH",
      "outputs": [
        {
          "internalType": "bool",
          "name": "",
          "type": "bool"
        }
      ],
      "stateMutability": "view",
      "type": "function"
    },
    {
      "inputs": [],
      "name": "isStopLoss50ofATH",
      "outputs": [
        {
          "internalType": "bool",
          "name": "",
          "type": "bool"
        }
      ],
      "stateMutability": "view",
      "type": "function"
    },
    {
      "inputs": [],
      "name": "lastDistribute",
      "outputs": [
        {
          "internalType": "uint256",
          "name": "",
          "type": "uint256"
        }
      ],
      "stateMutability": "view",
      "type": "function"
    },
    {
      "inputs": [],
      "name": "more1kIncomePool",
      "outputs": [
        {
          "internalType": "uint256",
          "name": "",
          "type": "uint256"
        }
      ],
      "stateMutability": "view",
      "type": "function"
    },
    {
      "inputs": [
        {
          "internalType": "address",
          "name": "",
          "type": "address"
        },
        {
          "internalType": "uint256",
          "name": "",
          "type": "uint256"
        }
      ],
      "name": "myTeamUsers",
      "outputs": [
        {
          "internalType": "address",
          "name": "",
          "type": "address"
        }
      ],
      "stateMutability": "view",
      "type": "function"
    },
    {
      "inputs": [
        {
          "internalType": "address",
          "name": "",
          "type": "address"
        },
        {
          "internalType": "uint256",
          "name": "",
          "type": "uint256"
        }
      ],
      "name": "orderInfos",
      "outputs": [
        {
          "internalType": "uint256",
          "name": "cycle",
          "type": "uint256"
        },
        {
          "internalType": "uint256",
          "name": "amount",
          "type": "uint256"
        },
        {
          "internalType": "uint256",
          "name": "start",
          "type": "uint256"
        },
        {
          "internalType": "uint256",
          "name": "unfreeze",
          "type": "uint256"
        },
        {
          "internalType": "bool",
          "name": "isClaimed",
          "type": "bool"
        }
      ],
      "stateMutability": "view",
      "type": "function"
    },
    {
      "inputs": [
        {
          "internalType": "address",
          "name": "_referral",
          "type": "address"
        }
      ],
      "name": "register",
      "outputs": [],
      "stateMutability": "nonpayable",
      "type": "function"
    },
    {
      "inputs": [
        {
          "internalType": "address",
          "name": "",
          "type": "address"
        }
      ],
      "name": "rewardInfo",
      "outputs": [
        {
          "internalType": "uint256",
          "name": "capitals",
          "type": "uint256"
        },
        {
          "internalType": "uint256",
          "name": "statics",
          "type": "uint256"
        },
        {
          "internalType": "uint256",
          "name": "directs",
          "type": "uint256"
        },
        {
          "internalType": "uint256",
          "name": "levelReleased",
          "type": "uint256"
        },
        {
          "internalType": "uint256",
          "name": "infinityBonusReleased",
          "type": "uint256"
        },
        {
          "internalType": "uint256",
          "name": "cycleNumber",
          "type": "uint256"
        },
        {
          "internalType": "uint256",
          "name": "more1k",
          "type": "uint256"
        },
        {
          "internalType": "uint256",
          "name": "lockusdt",
          "type": "uint256"
        },
        {
          "internalType": "uint256",
          "name": "lockusdtDebt",
          "type": "uint256"
        }
      ],
      "stateMutability": "view",
      "type": "function"
    },
    {
      "inputs": [],
      "name": "startTime",
      "outputs": [
        {
          "internalType": "uint256",
          "name": "",
          "type": "uint256"
        }
      ],
      "stateMutability": "view",
      "type": "function"
    },
    {
      "inputs": [
        {
          "internalType": "address",
          "name": "",
          "type": "address"
        },
        {
          "internalType": "uint256",
          "name": "",
          "type": "uint256"
        },
        {
          "internalType": "uint256",
          "name": "",
          "type": "uint256"
        }
      ],
      "name": "teamUsers",
      "outputs": [
        {
          "internalType": "address",
          "name": "",
          "type": "address"
        }
      ],
      "stateMutability": "view",
      "type": "function"
    },
    {
      "inputs": [],
      "name": "totalUser",
      "outputs": [
        {
          "internalType": "uint256",
          "name": "",
          "type": "uint256"
        }
      ],
      "stateMutability": "view",
      "type": "function"
    },
    {
      "inputs": [
        {
          "internalType": "address",
          "name": "_receiver",
          "type": "address"
        },
        {
          "internalType": "uint256",
          "name": "_amount",
          "type": "uint256"
        }
      ],
      "name": "transferBylockusdt",
      "outputs": [],
      "stateMutability": "nonpayable",
      "type": "function"
    },
    {
      "inputs": [],
      "name": "usdt",
      "outputs": [
        {
          "internalType": "contract IERC20",
          "name": "",
          "type": "address"
        }
      ],
      "stateMutability": "view",
      "type": "function"
    },
    {
      "inputs": [
        {
          "internalType": "address",
          "name": "",
          "type": "address"
        }
      ],
      "name": "userInfo",
      "outputs": [
        {
          "internalType": "address",
          "name": "referrer",
          "type": "address"
        },
        {
          "internalType": "uint256",
          "name": "start",
          "type": "uint256"
        },
        {
          "internalType": "uint256",
          "name": "level",
          "type": "uint256"
        },
        {
          "internalType": "uint256",
          "name": "maxDeposit",
          "type": "uint256"
        },
        {
          "internalType": "uint256",
          "name": "totalDeposit",
          "type": "uint256"
        },
        {
          "internalType": "uint256",
          "name": "teamNum",
          "type": "uint256"
        },
        {
          "internalType": "uint256",
          "name": "teamTotalDeposit",
          "type": "uint256"
        },
        {
          "internalType": "uint256",
          "name": "teamTotalVolume",
          "type": "uint256"
        },
        {
          "internalType": "uint256",
          "name": "totalFreezed",
          "type": "uint256"
        },
        {
          "internalType": "uint256",
          "name": "totalRevenue",
          "type": "uint256"
        },
        {
          "internalType": "uint256",
          "name": "membership",
          "type": "uint256"
        },
        {
          "internalType": "uint256",
          "name": "directBonusCount",
          "type": "uint256"
        }
      ],
      "stateMutability": "view",
      "type": "function"
    },
    {
      "inputs": [],
      "name": "withdraw",
      "outputs": [],
      "stateMutability": "nonpayable",
      "type": "function"
    }
  ],
  "bytecode": "0x6102206040526101f46080908152606460a081905260c860c081905260e0829052610100526101208190526101408190526101608190526101808190526101a05260326101c08190526101e0526000610200526200006290600190600d62000132565b50604080516060810182526113888152611b586020820152612af8918101919091526200009490600290600362000188565b50601d805462ffffff19169055348015620000ae57600080fd5b5060405162002e6838038062002e68833981016040819052620000d1916200023d565b600080546001600160a01b038087166001600160a01b031992831617909255600b8054868416908316179055600a8054928516929091169190911790556200011d6008826002620001be565b505042600c819055600d55506200031d915050565b82805482825590600052602060002090810192821562000176579160200282015b8281111562000176578251829061ffff1690559160200191906001019062000153565b506200018492915062000209565b5090565b826005810192821562000176579160200282018281111562000176578251829061ffff1690559160200191906001019062000153565b826002810192821562000176579160200282015b828111156200017657825182546001600160a01b0319166001600160a01b03909116178255602090920191600190910190620001d2565b5b808211156200018457600081556001016200020a565b80516001600160a01b03811681146200023857600080fd5b919050565b60008060008060a0858703121562000253578384fd5b6200025e8562000220565b935060206200026f81870162000220565b93506200027f6040870162000220565b925086607f87011262000290578182fd5b604080519081016001600160401b0381118282101715620002b557620002b562000307565b604052806060880160a089018a1015620002cd578485fd5b845b6002811015620002f757620002e48262000220565b83529184019190840190600101620002cf565b5096999598509396509450505050565b634e487b7160e01b600052604160045260246000fd5b612b3b806200032d6000396000f3fe608060405234801561001057600080fd5b50600436106102685760003560e01c806373cb4d0511610151578063ae97397e116100c3578063de6b8a2e11610087578063de6b8a2e1461070a578063e1604b7014610733578063e28aa97a1461073c578063e402a0711461074f578063e4b2fb7914610762578063fda92ce51461077557600080fd5b8063ae97397e146105fb578063b6b55f2514610631578063cbecf6b514610644578063cc38c8a0146106e4578063d0c85cfe146106f757600080fd5b806385a6327c1161011557806385a6327c1461055757806386dd5eb01461056a5780638b5a432a14610593578063991e7668146105a6578063aa0204f9146105d2578063ab2adc00146105f257600080fd5b806373cb4d05146104e95780637647e0ff146104fc57806378e97925146105285780638258ccf21461053157806383fb8af71461054457600080fd5b80633955782b116101ea5780634e506831116101ae5780634e5068311461044f5780635b3817601461046157806360a1cbd7146104745780636f0110d3146104b157806370abe5fe146104be578063732cef43146104c657600080fd5b80633955782b1461040f5780633ccfd60b1461042257806341e8a7181461042a5780634420e4861461043357806347d673391461044657600080fd5b80632489a223116102315780632489a223146103a35780632c45ab54146103b65780632f48ab7d146103c95780632fea20f6146103f457806330538c32146103fc57600080fd5b8062a7a56e1461026d578063069570e2146102885780630cf9310a146102915780631959a002146102b45780631d606ed21461038e575b600080fd5b61027561077e565b6040519081526020015b60405180910390f35b61027560125481565b6102a461029f36600461294b565b6107a5565b604051901515815260200161027f565b61032b6102c236600461294b565b601960205260009081526040902080546001820154600283015460038401546004850154600586015460068701546007880154600889015460098a0154600a8b0154600b909b01546001600160a01b03909a169a9899979896979596949593949293919290918c565b604080516001600160a01b03909d168d5260208d019b909b52998b019890985260608a0196909652608089019490945260a088019290925260c087015260e08601526101008501526101208401526101408301526101608201526101800161027f565b6103a161039c366004612965565b6107dc565b005b601d546102a49062010000900460ff1681565b6102a46103c436600461294b565b610942565b6000546103dc906001600160a01b031681565b6040516001600160a01b03909116815260200161027f565b601854610275565b6103dc61040a3660046129e0565b6109dd565b6103dc61041d3660046129e0565b610a07565b6103a1610a17565b61027560105481565b6103a161044136600461294b565b610d39565b610275600d5481565b601d546102a490610100900460ff1681565b6103dc61046f3660046129e0565b610ec7565b610487610482366004612965565b610ee7565b6040805195865260208601949094529284019190915260608301521515608082015260a00161027f565b601d546102a49060ff1681565b6103a1610f38565b6102a46104d43660046129e0565b60076020526000908152604090205460ff1681565b6103dc6104f736600461298e565b610f5f565b61027561050a36600461294b565b6001600160a01b031660009081526019602052604090206006015490565b610275600c5481565b61027561053f36600461294b565b610fa4565b6103a16105523660046129e0565b611000565b600b546103dc906001600160a01b031681565b61027561057836600461294b565b6001600160a01b03166000908152601b602052604090205490565b6103dc6105a1366004612a10565b61118a565b6102756105b436600461294b565b6001600160a01b031660009081526019602052604090206005015490565b6102756105e03660046129e0565b60009081526013602052604090205490565b610275600f5481565b610275610609366004612965565b6001600160a01b03919091166000908152601a60209081526040808320938352929052205490565b6103a161063f3660046129e0565b6111c2565b6106a061065236600461294b565b601c6020528060005260406000206000915090508060000154908060010154908060020154908060030154908060040154908060050154908060060154908060070154908060080154905089565b60408051998a5260208a0198909852968801959095526060870193909352608086019190915260a085015260c084015260e08301526101008201526101200161027f565b600a546103dc906001600160a01b031681565b6103dc610705366004612965565b6112a4565b61027561071836600461294b565b6001600160a01b031660009081526017602052604090205490565b610275600e5481565b6103dc61074a3660046129e0565b6112c0565b61027561075d36600461294b565b6112d0565b6103dc6107703660046129e0565b611388565b61027560115481565b60006107a0603c61079a600c544261139890919063ffffffff16565b906113ab565b905090565b6001600160a01b03808216600090815260196020526040812080549192909116156107d35750600192915050565b50600092915050565b6305f5e10081101580156107fb57506107f9816305f5e1006113b7565b155b6108395760405162461bcd60e51b815260206004820152600a60248201526930b6b7bab73a1032b93960b11b60448201526064015b60405180910390fd5b600061084433610fa4565b90508181101561088c5760405162461bcd60e51b8152602060048201526013602482015272696e73756666696369656e7420696e636f6d6560681b6044820152606401610830565b336000908152601c60205260409020600801546108a990836113c3565b336000908152601c6020526040808220600801929092556001600160a01b038516815220600701546108db90836113c3565b6001600160a01b0384166000818152601c60209081526040918290206007019390935580513381529283019190915281018390527f31c16c09f64d62f5f951a79f903c62bfa160a100f5037e6582506bd30f13e0c3906060015b60405180910390a1505050565b6001600160a01b0381166000908152601c60205260408120600581015482906002118015906109715750815415155b80156109d557506001600160a01b038416600090815260176020526040902060058301544291906109a3906002611398565b815481106109c157634e487b7160e01b600052603260045260246000fd5b906000526020600020906005020160030154105b949350505050565b601681815481106109ed57600080fd5b6000918252602090912001546001600160a01b0316905081565b601581815481106109ed57600080fd5b336000908152601c60209081526040808320601790925282206005820154919291429190610a46906002611398565b81548110610a6457634e487b7160e01b600052603260045260246000fd5b906000526020600020906005020160030154108015610a835750815415155b9050600181151514610afd5760405162461bcd60e51b815260206004820152603760248201527f43616e7420636c61696d2c20506c6561736520636865636b207374616b65206460448201527f61746520616e64206465706f73697420737461747573210000000000000000006064820152608401610830565b610b05610f38565b600080610b11336113cf565b90925090508082600080610b243361141d565b9092509050610b3383836113c3565b9250610b3f84826113c3565b336000908152601960205260409020600981015491955090610b6d908690610b6790876113c3565b906113c3565b6009820155610b8a610b7f85876113c3565b600883015490611398565b60088201556007890154610b9e90866113c3565b60078a0155600060018a0181905560028a0181905560038a0181905560048a0181905560068a01558854610bd39085906113c3565b9350610be3338a60000154611495565b6000808a555460405163a9059cbb60e01b8152336004820152602481018690526001600160a01b039091169063a9059cbb90604401602060405180830381600087803b158015610c3257600080fd5b505af1158015610c46573d6000803e3d6000fd5b505050506040513d601f19601f82011682018060405250810190610c6a91906129c0565b50600080546040516370a0823160e01b81523060048201526001600160a01b03909116906370a082319060240160206040518083038186803b158015610caf57600080fd5b505afa158015610cc3573d6000803e3d6000fd5b505050506040513d601f19601f82011682018060405250810190610ce791906129f8565b9050610cf4816000611566565b60408051338152602081018790527f884edad9ce6fa2440d8a54cc123490eb96d2768479d49ff9c7366125a9424364910160405180910390a150505050505050505050565b6001600160a01b038116600090815260196020526040902060040154151580610d6f5750600b546001600160a01b038281169116145b610dab5760405162461bcd60e51b815260206004820152600d60248201526c34b73b30b634b2103932b332b960991b6044820152606401610830565b33600090815260196020526040902080546001600160a01b031615610e045760405162461bcd60e51b815260206004820152600f60248201526e1c9959995c9c995c88189bdb991959608a1b6044820152606401610830565b80546001600160a01b03199081166001600160a01b0384169081178355426001808501919091556000828152601b6020908152604080832080549485018155835281832090930180543396168617905583825260199052209114610e78576005810154610e729060016113c3565b60058201555b600e54610e869060016113c3565b600e55604080513381526001600160a01b03851660208201527f98ada70a1cb506dc4591465e1ee9be3fd7a2b6c73ecf3b949009718c9a3515199101610935565b60088160028110610ed757600080fd5b01546001600160a01b0316905081565b60176020528160005260406000208181548110610f0357600080fd5b600091825260209091206005909102018054600182015460028301546003840154600490940154929550909350919060ff1685565b600d54610f4690603c6113c3565b421115610f5d5742610f578161163e565b5042600d555b565b601a6020528260005260406000206020528160005260406000208181548110610f8757600080fd5b6000918252602090912001546001600160a01b0316925083915050565b600080610fb0836113cf565b9150506000610fbe8461141d565b6001600160a01b0386166000908152601c6020526040902060088101546007909101549193506109d5925090610ffa908490610b6790876113c3565b90611398565b600061100f82620f4240611749565b90506305f5e1008110158015611030575061102e816305f5e1006113b7565b155b6110695760405162461bcd60e51b815260206004820152600a60248201526930b6b7bab73a1032b93960b11b6044820152606401610830565b33600090815260196020526040902060040154156110b35760405162461bcd60e51b81526020600482015260076024820152661858dd1a5d995960ca1b6044820152606401610830565b60006110be33610fa4565b9050818110156111085760405162461bcd60e51b81526020600482015260156024820152741a5b9cdd59999a58da595b9d081b1bd8dadd5cd91d605a1b6044820152606401610830565b61113461111b606461079a85601e611749565b336000908152601c602052604090206008015490611398565b336000818152601c60205260409020600801919091556111549083611755565b60408051338152602081018490527f07302eff02da419ed556321e69ca94ba35733d9e5910897626312a691b6b22cc9101610935565b601360205281600052604060002081815481106111a657600080fd5b6000918252602090912001546001600160a01b03169150829050565b60006111d182620f4240611749565b6000546040516323b872dd60e01b8152336004820152306024820152604481018390529192506001600160a01b0316906323b872dd90606401602060405180830381600087803b15801561122457600080fd5b505af1158015611238573d6000803e3d6000fd5b505050506040513d601f19601f8201168201806040525081019061125c91906129c0565b506112673382611755565b60408051338152602081018390527fe1fffcc4923d04b559f4d29a8bfc6cda04eb5b0d3c460751c2402c5c5cc9109c910160405180910390a15050565b601b60205281600052604060002081815481106111a657600080fd5b601481815481106109ed57600080fd5b6001600160a01b03811660009081526017602052604081205481905b8015611381576001600160a01b0384166000908152601760205260408120611315600184612a7c565b8154811061133357634e487b7160e01b600052603260045260246000fd5b90600052602060002090600502019050428160030154111561136857828160010154111561136357806001015492505b61136e565b50611381565b508061137981612a93565b9150506112ec565b5092915050565b601881815481106109ed57600080fd5b60006113a48284612a7c565b9392505050565b60006113a48284612a49565b60006113a48284612ac5565b60006113a48284612a31565b6001600160a01b0381166000908152601c6020526040812060018101548291908261140261271061079a84610bb8611749565b905060006114108383611398565b9791965090945050505050565b6001600160a01b0381166000908152601c6020526040812060038101546002820154839291839161144d916113c3565b90506114668260060154826113c390919063ffffffff16565b905061147f8260040154826113c390919063ffffffff16565b9050600061140261271061079a84610bb8611749565b6001600160a01b038083166000908152601960205260409020805490911680158015906114d45750836001600160a01b0316816001600160a01b031614155b15611560576001600160a01b038116600090815260196020526040902060060154831015611543576001600160a01b0381166000908152601960205260409020600601546115229084611398565b6001600160a01b038216600090815260196020526040902060060155611560565b6001600160a01b0381166000908152601960205260408120600601555b50505050565b80156115e55760055b80156115e057600760006002611586600185612a7c565b600581106115a457634e487b7160e01b600052603260045260246000fd5b0154815260208101919091526040016000205460ff16156115ce57601d805460ff19169055505050565b806115d881612a93565b91505061156f565b505050565b60055b80156115e05761160c61271061079a61160382610bb8611398565b60125490611749565b83101561162857601d805460ff191660011790556115e0611c03565b8061163281612a93565b9150506115e8565b5050565b600060138161164e600185612a7c565b81526020810191909152604001600020549050801561163a57805b801561173f57600060138161167f600187612a7c565b815260200190815260200160002060018361169a9190612a7c565b815481106116b857634e487b7160e01b600052603260045260246000fd5b6000918252602090912001546001600160a01b03169050801561172c576011546000906116e590856113ab565b6001600160a01b0383166000908152601c602052604090206006015490915061170e90826113c3565b6001600160a01b0383166000908152601c6020526040902060060155505b508061173781612a93565b915050611669565b5060006011555050565b60006113a48284612a5d565b6001600160a01b03808316600090815260196020526040902080549091166117cb5760405162461bcd60e51b8152602060048201526024808201527f7265676973746572206669727374207769746820726566657272616c206164646044820152637265737360e01b6064820152608401610830565b6305f5e10082101561181f5760405162461bcd60e51b815260206004820152601b60248201527f73686f756c64206265206d6f7265207468616e206d696e2031303000000000006044820152606401610830565b639502f9008211156118735760405162461bcd60e51b815260206004820152601c60248201527f73686f756c64206265206c657373207468616e206d696e2032353030000000006044820152606401610830565b611881826305f5e1006113b7565b156118ce5760405162461bcd60e51b815260206004820181905260248201527f616d6f756e742073686f756c64206265206d756c7469706c65206f66203130306044820152606401610830565b600381015415806118e3575080600301548210155b61194a5760405162461bcd60e51b815260206004820152603260248201527f6e657874206465706f7369742073686f756c6420626520657175616c206f72206044820152716d6f7265207468616e2070726576696f757360701b6064820152608401610830565b600381015461195f5760038101829055611973565b818160030154101561197357600381018290555b61197c82611d22565b60048101541580156119925750633b9aca008210155b156119da5760006119a161077e565b60009081526013602090815260408220805460018101825590835291200180546001600160a01b0319166001600160a01b038616179055505b6119e383611f76565b60048101546119f290836113c3565b60048201556008810154611a0690836113c3565b6008820155611a1483612036565b6001600160a01b0383166000908152601c6020526040902060058101546032908111611a4c57611a4581603c611749565b9050611a5f565b6005820154611a5c90603c611749565b90505b6000611a7082610b6742603c6113c3565b6001600160a01b0387166000908152601760209081526040808320815160a0810183526005898101805483528286018d8152429584019586526060840189815260808501898152865460018082018955978b5298909920945197909302909301958655915185840155925160028501559151600384015592516004909201805460ff19169215159290921790915554919250611b0c91906113c3565b6005840155611b1a86612196565b611b22610f38565b611b2c86866123d8565b611b368686612495565b611b4086866125d5565b600080546040516370a0823160e01b81523060048201526001600160a01b03909116906370a082319060240160206040518083038186803b158015611b8457600080fd5b505afa158015611b98573d6000803e3d6000fd5b505050506040513d601f19601f82011682018060405250810190611bbc91906129f8565b9050611bc781612829565b601d5460ff1615611bea57611bda611c03565b611be5816001611566565b611bfa565b806012541015611bfa5760128190555b50505050505050565b600054600a54604051636eb1769f60e11b81526001600160a01b0391821660048201819052306024830181905292909316926323b872dd929091849063dd62ed3e9060440160206040518083038186803b158015611c6057600080fd5b505afa158015611c74573d6000803e3d6000fd5b505050506040513d601f19601f82011682018060405250810190611c9891906129f8565b6040516001600160e01b031960e086901b1681526001600160a01b0393841660048201529290911660248301526044820152606401602060405180830381600087803b158015611ce757600080fd5b505af1158015611cfb573d6000803e3d6000fd5b505050506040513d601f19601f82011682018060405250810190611d1f91906129c0565b50565b6000611d3561271061079a8460c8611749565b6000546008549192506001600160a01b039081169163a9059cbb9116611d5c8460026113ab565b6040516001600160e01b031960e085901b1681526001600160a01b0390921660048301526024820152604401602060405180830381600087803b158015611da257600080fd5b505af1158015611db6573d6000803e3d6000fd5b505050506040513d601f19601f82011682018060405250810190611dda91906129c0565b506000546001600160a01b031663a9059cbb6008600101546001600160a01b0316611e068460026113ab565b6040516001600160e01b031960e085901b1681526001600160a01b0390921660048301526024820152604401602060405180830381600087803b158015611e4c57600080fd5b505af1158015611e60573d6000803e3d6000fd5b505050506040513d601f19601f82011682018060405250810190611e8491906129c0565b506000611e9861271061079a856032611749565b600054600a5460405163a9059cbb60e01b81526001600160a01b03918216600482015260248101849052929350169063a9059cbb90604401602060405180830381600087803b158015611eea57600080fd5b505af1158015611efe573d6000803e3d6000fd5b505050506040513d601f19601f82011682018060405250810190611f2291906129c0565b506000611f3661271061079a866032611749565b601054909150611f4690826113c3565b6010556000611f5c61271061079a876032611749565b601154909150611f6c90826113c3565b6011555050505050565b6000805b601854811015611fdf5760188181548110611fa557634e487b7160e01b600052603260045260246000fd5b6000918252602090912001546001600160a01b0384811691161415611fcd5760019150611fdf565b80611fd781612aaa565b915050611f7a565b508061163a57601880546001810182556000919091527fb13d2d76d1f4b7be834882e410b3e3a8afaf69f83600ae24db354391d2378d2e0180546001600160a01b0384166001600160a01b03199091161790555050565b6001600160a01b038116600090815260196020526040902060058101546002118015906120765750600381015461206e906002611749565b816006015410155b1561218b57639502f9008160030154101580156120985750600f816005015410155b80156120ad575064037e11d600816006015410155b80156120c2575064746a528800816007015410155b156120d2576004600a8201555050565b639502f9008160030154101580156120ef5750600a816005015410155b801561210457506402540be400816006015410155b8015612119575064174876e800816007015410155b15612129576003600a8201555050565b633b9aca0081600301541015801561214657506005816005015410155b801561215b57506402540be400816006015410155b8015612170575064174876e800816007015410155b15612180576002600a8201555050565b6001600a8201555050565b6000600a8201555050565b6001600160a01b0381166000908152601960205260408120905b6001600160a01b0383166000908152601760205260409020548110156115e0576001600160a01b038316600090815260176020526040812080548390811061220857634e487b7160e01b600052603260045260246000fd5b906000526020600020906005020190508060030154421180156122305750600481015460ff16155b801561226257506001600160a01b0384166000908152601c602052604090206005015461225e906001611398565b8154105b156123c557601d54600090610100900460ff16806122885750601d5462010000900460ff165b15612295575060006123b4565b60028460050154101580156122cc57506122c461271061079a614e20856001015461174990919063ffffffff16565b846006015410155b156122f7576122f061271061079a6107d0856001015461174990919063ffffffff16565b9050612319565b61231661271061079a6105dc856001015461174990919063ffffffff16565b90505b61233861271061079a614e20856001015461174990919063ffffffff16565b84600901541115612347575060005b60018201546001600160a01b0386166000908152601c602052604090205461236e916113c3565b6001600160a01b0386166000908152601c602052604090209081556001015461239790826113c3565b6001600160a01b0386166000908152601c60205260409020600101555b5060048101805460ff191660011790555b50806123d081612aaa565b9150506121b0565b6001600160a01b038083166000908152601960205260409020805490911680158015906124175750806001600160a01b0316846001600160a01b031614155b15611560576001600160a01b03811660009081526019602052604090206006015461244290846113c3565b6001600160a01b038216600090815260196020526040902060068101919091556007015461247090846113c3565b6001600160a01b03821660009081526019602052604090206007015561156081612036565b6001600160a01b038083166000908152601960205260409020805490911680156115605760005b600c8110156125ce576001600160a01b038216158015906124ef5750846001600160a01b0316826001600160a01b031614155b156125b757600061253a61271061079a6001858154811061252057634e487b7160e01b600052603260045260246000fd5b90600052602060002001548861174990919063ffffffff16565b6001600160a01b0384166000908152601c602052604090206003015490915061256390826113c3565b6001600160a01b038085166000818152601c6020526040902060030192909255600b5416141561259357506125ce565b506001600160a01b03918216600090815260196020526040902054909116906125bc565b6125ce565b806125c681612aaa565b9150506124bc565b5050505050565b6001600160a01b03808316600090815260196020526040902080549091168015611560576001600160a01b0381166000908152601c602090815260408083206019909252909120600a0154600214156126605761265661264b61271061079a818161044c6126458b610190611749565b90611749565b6004830154906113c3565b600482015561274b565b6001600160a01b0382166000908152601960205260409020600a01546003141561274b576126b463017d7840610ffa6126a961271061079a81816106a46126458d610190611749565b6004850154906113c3565b600482810191909155600054600a5460405163a9059cbb60e01b81526001600160a01b039182169381019390935263017d78406024840152169063a9059cbb90604401602060405180830381600087803b15801561271157600080fd5b505af1158015612725573d6000803e3d6000fd5b505050506040513d601f19601f8201168201806040525081019061274991906129c0565b505b6001600160a01b0382166000908152601960205260409020600a0154600414156125ce5761278c6302faf080610ffa6126a961271061079a89610190611749565b600482810191909155600054600a5460405163a9059cbb60e01b81526001600160a01b03918216938101939093526302faf0806024840152169063a9059cbb90604401602060405180830381600087803b1580156127e957600080fd5b505af11580156127fd573d6000803e3d6000fd5b505050506040513d601f19601f8201168201806040525081019061282191906129c0565b505050505050565b60055b801561163a5761287161271061079a6002612848600186612a7c565b6005811061286657634e487b7160e01b600052603260045260246000fd5b015460125490611749565b82106128cc5760016007600060026128898486612a7c565b600581106128a757634e487b7160e01b600052603260045260246000fd5b015481526020810191909152604001600020805460ff19169115159190911790555050565b600060078160026128de600186612a7c565b600581106128fc57634e487b7160e01b600052603260045260246000fd5b015481526020810191909152604001600020805460ff19169115159190911790558061292781612a93565b91505061282c565b80356001600160a01b038116811461294657600080fd5b919050565b60006020828403121561295c578081fd5b6113a48261292f565b60008060408385031215612977578081fd5b6129808361292f565b946020939093013593505050565b6000806000606084860312156129a2578081fd5b6129ab8461292f565b95602085013595506040909401359392505050565b6000602082840312156129d1578081fd5b815180151581146113a4578182fd5b6000602082840312156129f1578081fd5b5035919050565b600060208284031215612a09578081fd5b5051919050565b60008060408385031215612a22578182fd5b50508035926020909101359150565b60008219821115612a4457612a44612ad9565b500190565b600082612a5857612a58612aef565b500490565b6000816000190483118215151615612a7757612a77612ad9565b500290565b600082821015612a8e57612a8e612ad9565b500390565b600081612aa257612aa2612ad9565b506000190190565b6000600019821415612abe57612abe612ad9565b5060010190565b600082612ad457612ad4612aef565b500690565b634e487b7160e01b600052601160045260246000fd5b634e487b7160e01b600052601260045260246000fdfea2646970667358221220a48346e59572cb7e0f7846b3a57c6e8f7b5cd519c17e18d74bac9b74296cc12d64736f6c63430008040033",
  "linkReferences": {},
  "deployedLinkReferences": {}
}