{
  "_format": "hh-sol-artifact-1",
  "contractName": "PolygonBSG",
  "sourceName": "contracts/BSG.sol",
  "abi": [
    {
      "inputs": [
        {
          "internalType": "address",
          "name": "_usdtAddr",
          "type": "address"
        },
        {
          "internalType": "address",
          "name": "_defaultRefer",
          "type": "address"
        },
        {
          "internalType": "address",
          "name": "_insurance",
          "type": "address"
        },
        {
          "internalType": "address[2]",
          "name": "_feeReceivers",
          "type": "address[2]"
        }
      ],
      "stateMutability": "nonpayable",
      "type": "constructor"
    },
    {
      "anonymous": false,
      "inputs": [
        {
          "indexed": false,
          "internalType": "address",
          "name": "user",
          "type": "address"
        },
        {
          "indexed": false,
          "internalType": "uint256",
          "name": "amount",
          "type": "uint256"
        }
      ],
      "name": "Deposit",
      "type": "event"
    },
    {
      "anonymous": false,
      "inputs": [
        {
          "indexed": false,
          "internalType": "address",
          "name": "user",
          "type": "address"
        },
        {
          "indexed": false,
          "internalType": "uint256",
          "name": "amount",
          "type": "uint256"
        }
      ],
      "name": "DepositBylockusdt",
      "type": "event"
    },
    {
      "anonymous": false,
      "inputs": [
        {
          "indexed": false,
          "internalType": "address",
          "name": "user",
          "type": "address"
        },
        {
          "indexed": false,
          "internalType": "address",
          "name": "referral",
          "type": "address"
        }
      ],
      "name": "Register",
      "type": "event"
    },
    {
      "anonymous": false,
      "inputs": [
        {
          "indexed": false,
          "internalType": "address",
          "name": "user",
          "type": "address"
        },
        {
          "indexed": false,
          "internalType": "address",
          "name": "receiver",
          "type": "address"
        },
        {
          "indexed": false,
          "internalType": "uint256",
          "name": "amount",
          "type": "uint256"
        }
      ],
      "name": "TransferBylockusdt",
      "type": "event"
    },
    {
      "anonymous": false,
      "inputs": [
        {
          "indexed": false,
          "internalType": "address",
          "name": "user",
          "type": "address"
        },
        {
          "indexed": false,
          "internalType": "uint256",
          "name": "withdrawable",
          "type": "uint256"
        }
      ],
      "name": "Withdraw",
      "type": "event"
    },
    {
      "inputs": [],
      "name": "AllTimeHigh",
      "outputs": [
        {
          "internalType": "uint256",
          "name": "",
          "type": "uint256"
        }
      ],
      "stateMutability": "view",
      "type": "function"
    },
    {
      "inputs": [
        {
          "internalType": "address",
          "name": "_user",
          "type": "address"
        }
      ],
      "name": "_checkClaimable",
      "outputs": [
        {
          "internalType": "bool",
          "name": "",
          "type": "bool"
        }
      ],
      "stateMutability": "view",
      "type": "function"
    },
    {
      "inputs": [
        {
          "internalType": "address",
          "name": "_user",
          "type": "address"
        }
      ],
      "name": "_checkRegistered",
      "outputs": [
        {
          "internalType": "bool",
          "name": "",
          "type": "bool"
        }
      ],
      "stateMutability": "view",
      "type": "function"
    },
    {
      "inputs": [
        {
          "internalType": "uint256",
          "name": "",
          "type": "uint256"
        }
      ],
      "name": "balStatus",
      "outputs": [
        {
          "internalType": "bool",
          "name": "",
          "type": "bool"
        }
      ],
      "stateMutability": "view",
      "type": "function"
    },
    {
      "inputs": [
        {
          "internalType": "uint256",
          "name": "",
          "type": "uint256"
        }
      ],
      "name": "blueDiamondUsers",
      "outputs": [
        {
          "internalType": "address",
          "name": "",
          "type": "address"
        }
      ],
      "stateMutability": "view",
      "type": "function"
    },
    {
      "inputs": [],
      "name": "boosterIncomePool",
      "outputs": [
        {
          "internalType": "uint256",
          "name": "",
          "type": "uint256"
        }
      ],
      "stateMutability": "view",
      "type": "function"
    },
    {
      "inputs": [
        {
          "internalType": "address",
          "name": "_user",
          "type": "address"
        }
      ],
      "name": "checkBlueDiamondClaimCount",
      "outputs": [
        {
          "internalType": "uint256",
          "name": "",
          "type": "uint256"
        }
      ],
      "stateMutability": "view",
      "type": "function"
    },
    {
      "inputs": [
        {
          "internalType": "address",
          "name": "_user",
          "type": "address"
        }
      ],
      "name": "checkCrownDiamondClaimCount",
      "outputs": [
        {
          "internalType": "uint256",
          "name": "",
          "type": "uint256"
        }
      ],
      "stateMutability": "view",
      "type": "function"
    },
    {
      "inputs": [
        {
          "internalType": "address",
          "name": "_user",
          "type": "address"
        }
      ],
      "name": "checkDiamondMembership",
      "outputs": [
        {
          "internalType": "uint256",
          "name": "",
          "type": "uint256"
        }
      ],
      "stateMutability": "view",
      "type": "function"
    },
    {
      "inputs": [
        {
          "internalType": "uint256",
          "name": "",
          "type": "uint256"
        }
      ],
      "name": "crownDiamondUsers",
      "outputs": [
        {
          "internalType": "address",
          "name": "",
          "type": "address"
        }
      ],
      "stateMutability": "view",
      "type": "function"
    },
    {
      "inputs": [
        {
          "internalType": "uint256",
          "name": "",
          "type": "uint256"
        },
        {
          "internalType": "uint256",
          "name": "",
          "type": "uint256"
        }
      ],
      "name": "dayMore1kUsers",
      "outputs": [
        {
          "internalType": "address",
          "name": "",
          "type": "address"
        }
      ],
      "stateMutability": "view",
      "type": "function"
    },
    {
      "inputs": [],
      "name": "defaultRefer",
      "outputs": [
        {
          "internalType": "address",
          "name": "",
          "type": "address"
        }
      ],
      "stateMutability": "view",
      "type": "function"
    },
    {
      "inputs": [
        {
          "internalType": "uint256",
          "name": "amount",
          "type": "uint256"
        }
      ],
      "name": "deposit",
      "outputs": [],
      "stateMutability": "nonpayable",
      "type": "function"
    },
    {
      "inputs": [
        {
          "internalType": "uint256",
          "name": "amount",
          "type": "uint256"
        }
      ],
      "name": "depositBylockusdt",
      "outputs": [],
      "stateMutability": "nonpayable",
      "type": "function"
    },
    {
      "inputs": [
        {
          "internalType": "uint256",
          "name": "",
          "type": "uint256"
        }
      ],
      "name": "depositors",
      "outputs": [
        {
          "internalType": "address",
          "name": "",
          "type": "address"
        }
      ],
      "stateMutability": "view",
      "type": "function"
    },
    {
      "inputs": [],
      "name": "diamondIncomePool",
      "outputs": [
        {
          "internalType": "uint256",
          "name": "",
          "type": "uint256"
        }
      ],
      "stateMutability": "view",
      "type": "function"
    },
    {
      "inputs": [
        {
          "internalType": "uint256",
          "name": "",
          "type": "uint256"
        }
      ],
      "name": "diamondUsers",
      "outputs": [
        {
          "internalType": "address",
          "name": "",
          "type": "address"
        }
      ],
      "stateMutability": "view",
      "type": "function"
    },
    {
      "inputs": [],
      "name": "distributePoolRewards",
      "outputs": [],
      "stateMutability": "nonpayable",
      "type": "function"
    },
    {
      "inputs": [
        {
          "internalType": "uint256",
          "name": "",
          "type": "uint256"
        }
      ],
      "name": "feeReceivers",
      "outputs": [
        {
          "internalType": "address",
          "name": "",
          "type": "address"
        }
      ],
      "stateMutability": "view",
      "type": "function"
    },
    {
      "inputs": [
        {
          "internalType": "address",
          "name": "_user",
          "type": "address"
        }
      ],
      "name": "getActiveDirectDeposit",
      "outputs": [
        {
          "internalType": "uint256",
          "name": "",
          "type": "uint256"
        }
      ],
      "stateMutability": "view",
      "type": "function"
    },
    {
      "inputs": [
        {
          "internalType": "address",
          "name": "_user",
          "type": "address"
        }
      ],
      "name": "getActiveDirectNumbers",
      "outputs": [
        {
          "internalType": "uint256",
          "name": "",
          "type": "uint256"
        }
      ],
      "stateMutability": "view",
      "type": "function"
    },
    {
      "inputs": [
        {
          "internalType": "address",
          "name": "_user",
          "type": "address"
        }
      ],
      "name": "getActiveDirectReward",
      "outputs": [
        {
          "internalType": "uint256",
          "name": "",
          "type": "uint256"
        }
      ],
      "stateMutability": "view",
      "type": "function"
    },
    {
      "inputs": [
        {
          "internalType": "address",
          "name": "_user",
          "type": "address"
        }
      ],
      "name": "getActiveTeambyDepth",
      "outputs": [
        {
          "internalType": "uint256",
          "name": "",
          "type": "uint256"
        }
      ],
      "stateMutability": "view",
      "type": "function"
    },
    {
      "inputs": [],
      "name": "getCurDay",
      "outputs": [
        {
          "internalType": "uint256",
          "name": "",
          "type": "uint256"
        }
      ],
      "stateMutability": "view",
      "type": "function"
    },
    {
      "inputs": [
        {
          "internalType": "address",
          "name": "_user",
          "type": "address"
        }
      ],
      "name": "getCurclaimableusdt",
      "outputs": [
        {
          "internalType": "uint256",
          "name": "",
          "type": "uint256"
        }
      ],
      "stateMutability": "view",
      "type": "function"
    },
    {
      "inputs": [
        {
          "internalType": "address",
          "name": "_user",
          "type": "address"
        }
      ],
      "name": "getCurlockusdt",
      "outputs": [
        {
          "internalType": "uint256",
          "name": "",
          "type": "uint256"
        }
      ],
      "stateMutability": "view",
      "type": "function"
    },
    {
      "inputs": [
        {
          "internalType": "uint256",
          "name": "_day",
          "type": "uint256"
        }
      ],
      "name": "getDayMore1kLength",
      "outputs": [
        {
          "internalType": "uint256",
          "name": "",
          "type": "uint256"
        }
      ],
      "stateMutability": "view",
      "type": "function"
    },
    {
      "inputs": [],
      "name": "getDepositorsLength",
      "outputs": [
        {
          "internalType": "uint256",
          "name": "",
          "type": "uint256"
        }
      ],
      "stateMutability": "view",
      "type": "function"
    },
    {
      "inputs": [
        {
          "internalType": "address",
          "name": "_user",
          "type": "address"
        }
      ],
      "name": "getDiamondReward",
      "outputs": [
        {
          "internalType": "uint256",
          "name": "",
          "type": "uint256"
        }
      ],
      "stateMutability": "view",
      "type": "function"
    },
    {
      "inputs": [
        {
          "internalType": "address",
          "name": "_user",
          "type": "address"
        }
      ],
      "name": "getMaxFreezing",
      "outputs": [
        {
          "internalType": "uint256",
          "name": "",
          "type": "uint256"
        }
      ],
      "stateMutability": "view",
      "type": "function"
    },
    {
      "inputs": [
        {
          "internalType": "address",
          "name": "_user",
          "type": "address"
        }
      ],
      "name": "getMyTeamNumbers",
      "outputs": [
        {
          "internalType": "uint256",
          "name": "",
          "type": "uint256"
        }
      ],
      "stateMutability": "view",
      "type": "function"
    },
    {
      "inputs": [
        {
          "internalType": "address",
          "name": "_user",
          "type": "address"
        }
      ],
      "name": "getOrderLength",
      "outputs": [
        {
          "internalType": "uint256",
          "name": "",
          "type": "uint256"
        }
      ],
      "stateMutability": "view",
      "type": "function"
    },
    {
      "inputs": [
        {
          "internalType": "address",
          "name": "_user",
          "type": "address"
        }
      ],
      "name": "getTeamDeposit",
      "outputs": [
        {
          "internalType": "uint256",
          "name": "",
          "type": "uint256"
        }
      ],
      "stateMutability": "view",
      "type": "function"
    },
    {
      "inputs": [
        {
          "internalType": "address",
          "name": "_user",
          "type": "address"
        }
      ],
      "name": "getTeamUsersLength",
      "outputs": [
        {
          "internalType": "uint256",
          "name": "",
          "type": "uint256"
        }
      ],
      "stateMutability": "view",
      "type": "function"
    },
    {
      "inputs": [
        {
          "internalType": "address",
          "name": "_user",
          "type": "address"
        },
        {
          "internalType": "uint256",
          "name": "_layer",
          "type": "uint256"
        }
      ],
      "name": "getTeamUsersLengthwithDepth",
      "outputs": [
        {
          "internalType": "uint256",
          "name": "",
          "type": "uint256"
        }
      ],
      "stateMutability": "view",
      "type": "function"
    },
    {
      "inputs": [],
      "name": "insuranceAccount",
      "outputs": [
        {
          "internalType": "address",
          "name": "",
          "type": "address"
        }
      ],
      "stateMutability": "view",
      "type": "function"
    },
    {
      "inputs": [],
      "name": "insurancePool",
      "outputs": [
        {
          "internalType": "uint256",
          "name": "",
          "type": "uint256"
        }
      ],
      "stateMutability": "view",
      "type": "function"
    },
    {
      "inputs": [],
      "name": "isFreezeReward",
      "outputs": [
        {
          "internalType": "bool",
          "name": "",
          "type": "bool"
        }
      ],
      "stateMutability": "view",
      "type": "function"
    },
    {
      "inputs": [],
      "name": "isStopLoss30ofATH",
      "outputs": [
        {
          "internalType": "bool",
          "name": "",
          "type": "bool"
        }
      ],
      "stateMutability": "view",
      "type": "function"
    },
    {
      "inputs": [],
      "name": "isStopLoss50ofATH",
      "outputs": [
        {
          "internalType": "bool",
          "name": "",
          "type": "bool"
        }
      ],
      "stateMutability": "view",
      "type": "function"
    },
    {
      "inputs": [],
      "name": "lastDistribute",
      "outputs": [
        {
          "internalType": "uint256",
          "name": "",
          "type": "uint256"
        }
      ],
      "stateMutability": "view",
      "type": "function"
    },
    {
      "inputs": [],
      "name": "more1kIncomePool",
      "outputs": [
        {
          "internalType": "uint256",
          "name": "",
          "type": "uint256"
        }
      ],
      "stateMutability": "view",
      "type": "function"
    },
    {
      "inputs": [
        {
          "internalType": "address",
          "name": "",
          "type": "address"
        },
        {
          "internalType": "uint256",
          "name": "",
          "type": "uint256"
        }
      ],
      "name": "myTeamUsers",
      "outputs": [
        {
          "internalType": "address",
          "name": "",
          "type": "address"
        }
      ],
      "stateMutability": "view",
      "type": "function"
    },
    {
      "inputs": [
        {
          "internalType": "address",
          "name": "",
          "type": "address"
        },
        {
          "internalType": "uint256",
          "name": "",
          "type": "uint256"
        }
      ],
      "name": "orderInfos",
      "outputs": [
        {
          "internalType": "uint256",
          "name": "cycle",
          "type": "uint256"
        },
        {
          "internalType": "uint256",
          "name": "amount",
          "type": "uint256"
        },
        {
          "internalType": "uint256",
          "name": "start",
          "type": "uint256"
        },
        {
          "internalType": "uint256",
          "name": "unfreeze",
          "type": "uint256"
        },
        {
          "internalType": "bool",
          "name": "isClaimed",
          "type": "bool"
        }
      ],
      "stateMutability": "view",
      "type": "function"
    },
    {
      "inputs": [
        {
          "internalType": "address",
          "name": "_referral",
          "type": "address"
        }
      ],
      "name": "register",
      "outputs": [],
      "stateMutability": "nonpayable",
      "type": "function"
    },
    {
      "inputs": [
        {
          "internalType": "address",
          "name": "",
          "type": "address"
        }
      ],
      "name": "rewardInfo",
      "outputs": [
        {
          "internalType": "uint256",
          "name": "capitals",
          "type": "uint256"
        },
        {
          "internalType": "uint256",
          "name": "statics",
          "type": "uint256"
        },
        {
          "internalType": "uint256",
          "name": "directs",
          "type": "uint256"
        },
        {
          "internalType": "uint256",
          "name": "levelReleased",
          "type": "uint256"
        },
        {
          "internalType": "uint256",
          "name": "infinityBonusReleased",
          "type": "uint256"
        },
        {
          "internalType": "uint256",
          "name": "cycleNumber",
          "type": "uint256"
        },
        {
          "internalType": "uint256",
          "name": "more1k",
          "type": "uint256"
        },
        {
          "internalType": "uint256",
          "name": "lockusdt",
          "type": "uint256"
        },
        {
          "internalType": "uint256",
          "name": "lockusdtDebt",
          "type": "uint256"
        }
      ],
      "stateMutability": "view",
      "type": "function"
    },
    {
      "inputs": [],
      "name": "startTime",
      "outputs": [
        {
          "internalType": "uint256",
          "name": "",
          "type": "uint256"
        }
      ],
      "stateMutability": "view",
      "type": "function"
    },
    {
      "inputs": [
        {
          "internalType": "address",
          "name": "",
          "type": "address"
        },
        {
          "internalType": "uint256",
          "name": "",
          "type": "uint256"
        },
        {
          "internalType": "uint256",
          "name": "",
          "type": "uint256"
        }
      ],
      "name": "teamUsers",
      "outputs": [
        {
          "internalType": "address",
          "name": "",
          "type": "address"
        }
      ],
      "stateMutability": "view",
      "type": "function"
    },
    {
      "inputs": [],
      "name": "totalUser",
      "outputs": [
        {
          "internalType": "uint256",
          "name": "",
          "type": "uint256"
        }
      ],
      "stateMutability": "view",
      "type": "function"
    },
    {
      "inputs": [
        {
          "internalType": "address",
          "name": "_receiver",
          "type": "address"
        },
        {
          "internalType": "uint256",
          "name": "_amount",
          "type": "uint256"
        }
      ],
      "name": "transferBylockusdt",
      "outputs": [],
      "stateMutability": "nonpayable",
      "type": "function"
    },
    {
      "inputs": [],
      "name": "usdt",
      "outputs": [
        {
          "internalType": "contract IERC20",
          "name": "",
          "type": "address"
        }
      ],
      "stateMutability": "view",
      "type": "function"
    },
    {
      "inputs": [
        {
          "internalType": "address",
          "name": "",
          "type": "address"
        }
      ],
      "name": "userInfo",
      "outputs": [
        {
          "internalType": "address",
          "name": "referrer",
          "type": "address"
        },
        {
          "internalType": "uint256",
          "name": "start",
          "type": "uint256"
        },
        {
          "internalType": "uint256",
          "name": "level",
          "type": "uint256"
        },
        {
          "internalType": "uint256",
          "name": "maxDeposit",
          "type": "uint256"
        },
        {
          "internalType": "uint256",
          "name": "totalDeposit",
          "type": "uint256"
        },
        {
          "internalType": "uint256",
          "name": "teamNum",
          "type": "uint256"
        },
        {
          "internalType": "uint256",
          "name": "teamTotalDeposit",
          "type": "uint256"
        },
        {
          "internalType": "uint256",
          "name": "teamTotalVolume",
          "type": "uint256"
        },
        {
          "internalType": "uint256",
          "name": "totalFreezed",
          "type": "uint256"
        },
        {
          "internalType": "uint256",
          "name": "totalRevenue",
          "type": "uint256"
        },
        {
          "internalType": "uint256",
          "name": "membership",
          "type": "uint256"
        },
        {
          "internalType": "uint256",
          "name": "directBonusCount",
          "type": "uint256"
        }
      ],
      "stateMutability": "view",
      "type": "function"
    },
    {
      "inputs": [],
      "name": "withdraw",
      "outputs": [],
      "stateMutability": "nonpayable",
      "type": "function"
    }
  ],
  "bytecode": "0x6102006040526101f46080908152606460a081905260c860c081905260e0829052610100526101208190526101408190526101608190526101808190526101a05260326101c08190526101e0526200005c90600190600c6200012c565b50604080516060810182526117708152611f406020820152612af8918101919091526200008e90600290600362000182565b50601e805462ffffff19169055348015620000a857600080fd5b5060405162003c4938038062003c49833981016040819052620000cb9162000237565b600080546001600160a01b038087166001600160a01b031992831617909255600b8054868416908316179055600a805492851692909116919091179055620001176008826002620001b8565b505042600c819055600d555062000317915050565b82805482825590600052602060002090810192821562000170579160200282015b8281111562000170578251829061ffff169055916020019190600101906200014d565b506200017e92915062000203565b5090565b826005810192821562000170579160200282018281111562000170578251829061ffff169055916020019190600101906200014d565b826002810192821562000170579160200282015b828111156200017057825182546001600160a01b0319166001600160a01b03909116178255602090920191600190910190620001cc565b5b808211156200017e576000815560010162000204565b80516001600160a01b03811681146200023257600080fd5b919050565b60008060008060a085870312156200024d578384fd5b62000258856200021a565b93506020620002698187016200021a565b935062000279604087016200021a565b925086607f8701126200028a578182fd5b604080519081016001600160401b0381118282101715620002af57620002af62000301565b604052806060880160a089018a1015620002c7578485fd5b845b6002811015620002f157620002de826200021a565b83529184019190840190600101620002c9565b5096999598509396509450505050565b634e487b7160e01b600052604160045260246000fd5b61392280620003276000396000f3fe608060405234801561001057600080fd5b50600436106103265760003560e01c8063732cef43116101b8578063ab2adc0011610104578063de6b8a2e116100a2578063e402a0711161007c578063e402a0711461088b578063e4b2fb791461089e578063fd0c0d7b146108b1578063fda92ce5146108c457600080fd5b8063de6b8a2e14610846578063e1604b701461086f578063e28aa97a1461087857600080fd5b8063cbecf6b5116100de578063cbecf6b51461076d578063cc38c8a01461080d578063d0c85cfe14610820578063dd853c2f1461083357600080fd5b8063ab2adc001461073e578063ae97397e14610747578063b6b55f251461075a57600080fd5b806385a6327c11610171578063991e76681161014b578063991e7668146106cc5780639a6a0d2f146106f8578063a71c90361461070b578063aa0204f91461071e57600080fd5b806385a6327c1461067d57806386dd5eb0146106905780638b5a432a146106b957600080fd5b8063732cef43146105ec57806373cb4d051461060f5780637647e0ff1461062257806378e979251461064e5780638258ccf21461065757806383fb8af71461066a57600080fd5b80633955782b116102775780634e506831116102305780636a6e76b31161020a5780636a6e76b3146105bb5780636e70c235146105ce5780636f0110d3146105d757806370abe5fe146105e457600080fd5b80634e506831146105595780635b3817601461056b57806360a1cbd71461057e57600080fd5b80633955782b146105065780633ccfd60b146105195780633fdfd4c21461052157806341e8a718146105345780634420e4861461053d57806347d673391461055057600080fd5b80631efbbb36116102e45780632e2f9aa9116102be5780632e2f9aa9146104ad5780632f48ab7d146104c05780632fea20f6146104eb57806330538c32146104f357600080fd5b80631efbbb36146104745780632489a223146104875780632c45ab541461049a57600080fd5b8062a7a56e1461032b5780630643f24714610346578063069570e2146103595780630cf9310a146103625780631959a002146103855780631d606ed21461045f575b600080fd5b6103336108cd565b6040519081526020015b60405180910390f35b61033361035436600461370e565b6108f4565b61033360135481565b61037561037036600461370e565b610a90565b604051901515815260200161033d565b6103fc61039336600461370e565b601a60205260009081526040902080546001820154600283015460038401546004850154600586015460068701546007880154600889015460098a0154600a8b0154600b909b01546001600160a01b03909a169a9899979896979596949593949293919290918c565b604080516001600160a01b03909d168d5260208d019b909b52998b019890985260608a0196909652608089019490945260a088019290925260c087015260e08601526101008501526101208401526101408301526101608201526101800161033d565b61047261046d366004613728565b610ac7565b005b61033361048236600461370e565b610ca9565b601e546103759062010000900460ff1681565b6103756104a836600461370e565b610dc7565b6103336104bb36600461370e565b610e62565b6000546104d3906001600160a01b031681565b6040516001600160a01b03909116815260200161033d565b601954610333565b6104d36105013660046137a3565b610ee1565b6104d36105143660046137a3565b610f0b565b610472610f1b565b61033361052f36600461370e565b61144a565b61033360105481565b61047261054b36600461370e565b611471565b610333600d5481565b601e5461037590610100900460ff1681565b6104d36105793660046137a3565b611617565b61059161058c366004613728565b611637565b6040805195865260208601949094529284019190915260608301521515608082015260a00161033d565b6103336105c936600461370e565b611688565b61033360125481565b601e546103759060ff1681565b6104726116ff565b6103756105fa3660046137a3565b60076020526000908152604090205460ff1681565b6104d361061d366004613751565b611726565b61033361063036600461370e565b6001600160a01b03166000908152601a602052604090206006015490565b610333600c5481565b61033361066536600461370e565b61176b565b6104726106783660046137a3565b6117c7565b600b546104d3906001600160a01b031681565b61033361069e36600461370e565b6001600160a01b03166000908152601c602052604090205490565b6104d36106c73660046137d3565b611983565b6103336106da36600461370e565b6001600160a01b03166000908152601a602052604090206005015490565b61033361070636600461370e565b6119bb565b61033361071936600461370e565b611aca565b61033361072c3660046137a3565b60009081526014602052604090205490565b610333600f5481565b610333610755366004613728565b611c46565b6104726107683660046137a3565b611c84565b6107c961077b36600461370e565b601d6020528060005260406000206000915090508060000154908060010154908060020154908060030154908060040154908060050154908060060154908060070154908060080154905089565b60408051998a5260208a0198909852968801959095526060870193909352608086019190915260a085015260c084015260e08301526101008201526101200161033d565b600a546104d3906001600160a01b031681565b6104d361082e366004613728565b611dbe565b61033361084136600461370e565b611dda565b61033361085436600461370e565b6001600160a01b031660009081526018602052604090205490565b610333600e5481565b6104d36108863660046137a3565b612276565b61033361089936600461370e565b612286565b6104d36108ac3660046137a3565b612337565b6103336108bf36600461370e565b612347565b61033360115481565b60006108ef603c6108e9600c544261245290919063ffffffff16565b9061245e565b905090565b6001600160a01b0381166000908152601c6020908152604080832080546018909352908320805491929184919082901561096b578154829061093890600190613863565b8154811061095657634e487b7160e01b600052603260045260246000fd5b90600052602060002090600502016001015490505b60005b84811015610a84576001600160a01b0388166000908152601c6020526040812080546018918391859081106109b357634e487b7160e01b600052603260045260246000fd5b60009182526020808320909101546001600160a01b031683528201929092526040019020805490915015610a7157805460009082906109f490600190613863565b81548110610a1257634e487b7160e01b600052603260045260246000fd5b9060005260206000209060050201905060008160030154905042811115610a6e57600085836001015411610a4a578260010154610a4c565b855b9050610a6a610a636127106108e9846101f461246a565b8990612476565b9750505b50505b5080610a7c81613891565b91505061096e565b50919695505050505050565b6001600160a01b038082166000908152601a602052604081208054919290911615610abe5750600192915050565b50600092915050565b610ad66305f5e100600261245e565b8110158015610afb5750610af9610af26305f5e100600261245e565b8290612482565b155b610b395760405162461bcd60e51b815260206004820152600a60248201526930b6b7bab73a1032b93960b11b60448201526064015b60405180910390fd5b6001600160a01b038281166000908152601a602052604090205416610ba05760405162461bcd60e51b815260206004820152601d60248201527f52656365697665722073686f756c642062652072656769737472616e740000006044820152606401610b30565b336000908152601d602052604090206007015481811015610bf95760405162461bcd60e51b8152602060048201526013602482015272696e73756666696369656e7420696e636f6d6560681b6044820152606401610b30565b336000908152601d6020526040902060070154610c169083612452565b336000908152601d60205260408082206007908101939093556001600160a01b038616825290200154610c499083612476565b6001600160a01b0384166000908152601d60205260409081902060070191909155517f31c16c09f64d62f5f951a79f903c62bfa160a100f5037e6582506bd30f13e0c390610c9c903390869086906137f4565b60405180910390a1505050565b600080805b600c811015610dc0576001600160a01b0384166000908152601b602090815260408083208484529091528120805490915b81811015610daa576000838281548110610d0957634e487b7160e01b600052603260045260246000fd5b60009182526020808320909101546001600160a01b03168083526018909152604090912080549192509015610d955780546000908290610d4b90600190613863565b81548110610d6957634e487b7160e01b600052603260045260246000fd5b906000526020600020906005020190504281600301541115610d9357610d90886001612476565b97505b505b50508080610da290613891565b915050610cdf565b5050508080610db890613891565b915050610cae565b5092915050565b6001600160a01b0381166000908152601d6020526040812060058101548290600211801590610df65750815415155b8015610e5a57506001600160a01b03841660009081526018602052604090206005830154429190610e28906002612452565b81548110610e4657634e487b7160e01b600052603260045260246000fd5b906000526020600020906005020160030154105b949350505050565b60175460009081805b82811015610ed957846001600160a01b031660178281548110610e9e57634e487b7160e01b600052603260045260246000fd5b6000918252602090912001546001600160a01b03161415610ec757610ec4826001612476565b91505b80610ed181613891565b915050610e6b565b509392505050565b60178181548110610ef157600080fd5b6000918252602090912001546001600160a01b0316905081565b60168181548110610ef157600080fd5b336000908152601d60209081526040808320601890925282206005820154919291429190610f4a906002612452565b81548110610f6857634e487b7160e01b600052603260045260246000fd5b906000526020600020906005020160030154108015610f875750815415155b90506001811515146110015760405162461bcd60e51b815260206004820152603760248201527f43616e7420636c61696d2c20506c6561736520636865636b207374616b65206460448201527f61746520616e64206465706f73697420737461747573210000000000000000006064820152608401610b30565b6110096116ff565b6000806110153361248e565b909250905080826000806110283361251a565b90925090506110378383612476565b92506110438482612476565b336000908152601a6020526040902060098101549195509061107190869061106b9087612476565b90612476565b600982015561108e6110838587612476565b600883015490612452565b600882015560078901546110a29086612476565b60078a0155600060018a0181905560038a0181905560048a0181905560068a015588546110d0908590612476565b93506110e0338a600001546125d5565b6000808a555460405163a9059cbb60e01b8152336004820152602481018690526001600160a01b039091169063a9059cbb90604401602060405180830381600087803b15801561112f57600080fd5b505af1158015611143573d6000803e3d6000fd5b505050506040513d601f19601f820116820180604052508101906111679190613783565b50600061117333611aca565b9050806004141561127a57600061118933610e62565b9050600a811015611274576017805460018101825560009182527fc624b66cc0138b8fabc209247f72d758e1cf3343756d543badbf24212bed8c150180546001600160a01b0319163317905554600a5460405163a9059cbb60e01b81526001600160a01b0391821660048201526302faf080602482015291169063a9059cbb90604401602060405180830381600087803b15801561122657600080fd5b505af115801561123a573d6000803e3d6000fd5b505050506040513d601f19601f8201168201806040525081019061125e9190613783565b50600f54611270906302faf080612476565b600f555b5061137b565b806003141561137b57600061128e33611688565b90506014811015611379576016805460018101825560009182527fd833147d7dc355ba459fc788f669e58cfaf9dc25ddcd0702e87d69c7b51242890180546001600160a01b0319163317905554600a5460405163a9059cbb60e01b81526001600160a01b03918216600482015263017d7840602482015291169063a9059cbb90604401602060405180830381600087803b15801561132b57600080fd5b505af115801561133f573d6000803e3d6000fd5b505050506040513d601f19601f820116820180604052508101906113639190613783565b50600f546113759063017d7840612476565b600f555b505b600080546040516370a0823160e01b81523060048201526001600160a01b03909116906370a082319060240160206040518083038186803b1580156113bf57600080fd5b505afa1580156113d3573d6000803e3d6000fd5b505050506040513d601f19601f820116820180604052508101906113f791906137bb565b90506114048160006126a6565b60408051338152602081018890527f884edad9ce6fa2440d8a54cc123490eb96d2768479d49ff9c7366125a9424364910160405180910390a15050505050505050505050565b6000806114568361248e565b50905060006114648461251a565b509050610e5a8282612476565b6001600160a01b0381166000908152601a60205260409020600401541515806114a75750600b546001600160a01b038281169116145b6114e35760405162461bcd60e51b815260206004820152600d60248201526c34b73b30b634b2103932b332b960991b6044820152606401610b30565b336000908152601a6020526040902080546001600160a01b03161561153c5760405162461bcd60e51b815260206004820152600f60248201526e1c9959995c9c995c88189bdb991959608a1b6044820152606401610b30565b80546001600160a01b0319166001600160a01b03831617815542600182015561156433612786565b6001600160a01b0382166000818152601c6020908152604080832080546001810182559084528284200180546001600160a01b03191633908117909155848452601a90925290912091146115c85760058101546115c2906001612476565b60058201555b600e546115d6906001612476565b600e55604080513381526001600160a01b03851660208201527f98ada70a1cb506dc4591465e1ee9be3fd7a2b6c73ecf3b949009718c9a3515199101610c9c565b6008816002811061162757600080fd5b01546001600160a01b0316905081565b6018602052816000526040600020818154811061165357600080fd5b600091825260209091206005909102018054600182015460028301546003840154600490940154929550909350919060ff1685565b60165460009081805b82811015610ed957846001600160a01b0316601682815481106116c457634e487b7160e01b600052603260045260246000fd5b6000918252602090912001546001600160a01b031614156116ed576116ea826001612476565b91505b806116f781613891565b915050611691565b600d5461170d90603c612476565b421115611724574261171e8161286c565b5042600d555b565b601b602052826000526040600020602052816000526040600020818154811061174e57600080fd5b6000918252602090912001546001600160a01b0316925083915050565b6000806117778361248e565b91505060006117858461251a565b6001600160a01b0386166000908152601d602052604090206008810154600790910154919350610e5a9250906117c190849061106b9087612476565b90612452565b60006117d682620f424061246a565b90506117e76305f5e100600261245e565b81101580156118055750611803610af26305f5e100600261245e565b155b61183e5760405162461bcd60e51b815260206004820152600a60248201526930b6b7bab73a1032b93960b11b6044820152606401610b30565b33600090815260186020526040902054156118af5760405162461bcd60e51b815260206004820152602b60248201527f4669727374206465706f7369746f72732063616e206f6e6c792075736520746860448201526a34b990333ab731ba34b7b760a91b6064820152608401610b30565b336000908152601d6020526040902060070154818111156119125760405162461bcd60e51b815260206004820152601b60248201527f696e73756666696369656e74206672657368206c6f636b7573647400000000006044820152606401610b30565b336000818152601d6020526040812060070155611938906119338484612476565b612977565b7f07302eff02da419ed556321e69ca94ba35733d9e5910897626312a691b6b22cc336119648484612476565b604080516001600160a01b039093168352602083019190915201610c9c565b6014602052816000526040600020818154811061199f57600080fd5b6000918252602090912001546001600160a01b03169150829050565b6001600160a01b0381166000908152601c60205260408120805482805b82811015611ac1576001600160a01b0386166000908152601c602052604081208054601891839185908110611a1d57634e487b7160e01b600052603260045260246000fd5b60009182526020808320909101546001600160a01b031683528201929092526040019020805490915015611aae5780546000908290611a5e90600190613863565b81548110611a7c57634e487b7160e01b600052603260045260246000fd5b9060005260206000209060050201905060008160030154905042811115611aab57611aa8856001612476565b94505b50505b5080611ab981613891565b9150506119d8565b50949350505050565b6001600160a01b0381166000908152601860209081526040808320601a909252822081548392839283928392839283928015611c3257600083611b0e600184613863565b81548110611b2c57634e487b7160e01b600052603260045260246000fd5b906000526020600020906005020190508060010154985082600501549750611b538c612347565b9650611b5e8c610ca9565b955082600701549450639502f9008910158015611b7c5750600f8810155b8015611b8d575064037e11d6008710155b8015611b9b57506101908610155b8015611bac575064746a5288008510155b15611bba5760049950611c2c565b639502f9008910158015611bcf5750600a8810155b8015611be057506402540be4008710155b8015611bed575060b48610155b8015611bfe575064174876e8008510155b15611c0c5760039950611c2c565b60288610158015611c2257506404a817c8008510155b15611c2c57600299505b50611c37565b600098505b50969998505050505050505050565b6000600c8210611c5857506000611c7e565b506001600160a01b0382166000908152601b602090815260408083208484529091529020545b92915050565b6000611c9382620f424061246a565b9050611ca3816305f5e100612482565b15611cf05760405162461bcd60e51b815260206004820181905260248201527f616d6f756e742073686f756c64206265206d756c7469706c65206f66203130306044820152606401610b30565b6000546040516323b872dd60e01b81526001600160a01b03909116906323b872dd90611d24903390309086906004016137f4565b602060405180830381600087803b158015611d3e57600080fd5b505af1158015611d52573d6000803e3d6000fd5b505050506040513d601f19601f82011682018060405250810190611d769190613783565b50611d813382612977565b60408051338152602081018390527fe1fffcc4923d04b559f4d29a8bfc6cda04eb5b0d3c460751c2402c5c5cc9109c910160405180910390a15050565b601c602052816000526040600020818154811061199f57600080fd5b600080611de683611aca565b905060006002821061226f578160041415611f9d576000611e0685610e62565b9050600a811015611f975760005b600c811015611f70576001600160a01b0386166000908152601b602090815260408083208484529091528120905b8154811015611f5b57600060186000848481548110611e7157634e487b7160e01b600052603260045260246000fd5b60009182526020808320909101546001600160a01b031683528201929092526040019020805490915015611f485780546000908290611eb290600190613863565b81548110611ed057634e487b7160e01b600052603260045260246000fd5b906000526020600020906005020190504281600301541115611f4657611f43611f3c6127106108e961019060018a81548110611f1c57634e487b7160e01b600052603260045260246000fd5b9060005260206000200154611f319190613818565b60018601549061246a565b8890612476565b96505b505b5080611f5381613891565b915050611e42565b50508080611f6890613891565b915050611e14565b506302faf080821115611f9257611f8b826302faf080612452565b9150611f97565b600091505b5061226f565b816003141561212a576000611fb185611688565b90506014811015611f975760005b600c81101561210f576001600160a01b0386166000908152601b602090815260408083208484529091528120905b81548110156120fa5760006018600084848154811061201c57634e487b7160e01b600052603260045260246000fd5b60009182526020808320909101546001600160a01b0316835282019290925260400190208054909150156120e7578054600090829061205d90600190613863565b8154811061207b57634e487b7160e01b600052603260045260246000fd5b9060005260206000209060050201905042816003015411156120e5576120e2611f3c6127106108e9600189815481106120c457634e487b7160e01b600052603260045260246000fd5b9060005260206000200154856001015461246a90919063ffffffff16565b96505b505b50806120f281613891565b915050611fed565b5050808061210790613891565b915050611fbf565b5063017d7840821115611f9257611f8b8263017d7840612452565b816002141561226f5760005b6005811015610ed9576001600160a01b0385166000908152601b602090815260408083208484529091528120905b815481101561225a5760006018600084848154811061219357634e487b7160e01b600052603260045260246000fd5b60009182526020808320909101546001600160a01b03168352820192909252604001902080549091501561224757805460009082906121d490600190613863565b815481106121f257634e487b7160e01b600052603260045260246000fd5b9060005260206000209060050201905042816003015411156122455761224261223b6127106108e9600189815481106120c457634e487b7160e01b600052603260045260246000fd5b8790612476565b95505b505b508061225281613891565b915050612164565b5050808061226790613891565b915050612136565b9392505050565b60158181548110610ef157600080fd5b6001600160a01b03811660009081526018602052604081205481905b8015610dc0576001600160a01b03841660009081526018602052604081206122cb600184613863565b815481106122e957634e487b7160e01b600052603260045260246000fd5b90600052602060002090600502019050428160030154111561231e57828160010154111561231957806001015492505b612324565b50610dc0565b508061232f8161387a565b9150506122a2565b60198181548110610ef157600080fd5b6001600160a01b0381166000908152601c60205260408120805482805b82811015611ac1576001600160a01b0386166000908152601c6020526040812080546018918391859081106123a957634e487b7160e01b600052603260045260246000fd5b60009182526020808320909101546001600160a01b03168352820192909252604001902080549091501561243f57805460009082906123ea90600190613863565b8154811061240857634e487b7160e01b600052603260045260246000fd5b906000526020600020906005020190506000816003015490504281111561243c5760018201546124388682612476565b9550505b50505b508061244a81613891565b915050612364565b600061226f8284613863565b600061226f8284613830565b600061226f8284613844565b600061226f8284613818565b600061226f82846138ac565b6001600160a01b0381166000908152601d60205260408120805482919082806124b687612daf565b11156124d5576124ce6127106108e9846107d061246a565b90506124ea565b6124e76127106108e9846105dc61246a565b90505b60006124fe6127106108e984610bb861246a565b9050600061250c8383612452565b989197509095505050505050565b6001600160a01b0381166000908152601d60205260408120819081808061254087611aca565b90506002811061255a5761255387611dda565b9150612566565b612563876108f4565b91505b6125708383612476565b925061258984600601548461247690919063ffffffff16565b92506125a284600401548461247690919063ffffffff16565b925060006125b86127106108e986610bb861246a565b905060006125c68583612452565b99919850909650505050505050565b6001600160a01b038083166000908152601a60205260409020805490911680158015906126145750836001600160a01b0316816001600160a01b031614155b156126a0576001600160a01b0381166000908152601a6020526040902060060154831015612683576001600160a01b0381166000908152601a60205260409020600601546126629084612452565b6001600160a01b0382166000908152601a60205260409020600601556126a0565b6001600160a01b0381166000908152601a60205260408120600601555b50505050565b801561272d576126b4612e0b565b60055b8015612728576007600060026126ce600185613863565b600581106126ec57634e487b7160e01b600052603260045260246000fd5b0154815260208101919091526040016000205460ff161561271657601e805460ff19169055505050565b806127208161387a565b9150506126b7565b505050565b60055b8015612728576127546127106108e961274b82610bb8612452565b6013549061246a565b83101561277057601e805460ff19166001179055612728612e0b565b8061277a8161387a565b915050612730565b5050565b6001600160a01b038082166000908152601a602052604081208054909216905b600c8110156126a0576001600160a01b038216158015906127d95750816001600160a01b0316846001600160a01b031614155b15612855576001600160a01b038281166000818152601b6020908152604080832086845282528220805460018101825590835291200180546001600160a01b031916878416179055600b549091161415612832576126a0565b6001600160a01b039182166000908152601a60205260409020549091169061285a565b6126a0565b8061286481613891565b9150506127a6565b600060148161287c600185613863565b81526020810191909152604001600020549050801561278257805b801561296d5760006014816128ad600187613863565b81526020019081526020016000206001836128c89190613863565b815481106128e657634e487b7160e01b600052603260045260246000fd5b6000918252602090912001546001600160a01b03169050801561295a57601154600090612913908561245e565b6001600160a01b0383166000908152601d602052604090206006015490915061293c9082612476565b6001600160a01b0383166000908152601d6020526040902060060155505b50806129658161387a565b915050612897565b5060006011555050565b6001600160a01b038083166000908152601a6020526040902080549091166129ed5760405162461bcd60e51b8152602060048201526024808201527f7265676973746572206669727374207769746820726566657272616c206164646044820152637265737360e01b6064820152608401610b30565b6305f5e100821015612a415760405162461bcd60e51b815260206004820152601b60248201527f73686f756c64206265206d6f7265207468616e206d696e2031303000000000006044820152606401610b30565b639502f900821115612a955760405162461bcd60e51b815260206004820152601c60248201527f73686f756c64206265206c657373207468616e206d696e2032353030000000006044820152606401610b30565b60038101541580612aaa575080600301548210155b612b115760405162461bcd60e51b815260206004820152603260248201527f6e657874206465706f7369742073686f756c6420626520657175616c206f72206044820152716d6f7265207468616e2070726576696f757360701b6064820152608401610b30565b6003810154612b265760038101829055612b3a565b8181600301541015612b3a57600381018290555b612b4382612f6e565b6004810154158015612b595750633b9aca008210155b15612ba1576000612b686108cd565b60009081526014602090815260408220805460018101825590835291200180546001600160a01b0319166001600160a01b038616179055505b612baa836131e3565b6004810154612bb99083612476565b60048201556008810154612bcd9083612476565b60088201556001600160a01b0383166000908152601d6020526040902060058101546023908111612c0a57612c0381603c61246a565b9050612c1d565b6005820154612c1a90603c61246a565b90505b6000612c2e8261106b42603c612476565b6001600160a01b0387166000908152601860209081526040808320815160a0810183526005898101805483528286018d8152429584019586526060840189815260808501898152865460018082018955978b5298909920945197909302909301958655915185840155925160028501559151600384015592516004909201805460ff19169215159290921790915554919250612cca9190612476565b6005840155612cd8866132a3565b612ce06116ff565b612cea86866133f2565b612cf486866134ac565b600080546040516370a0823160e01b81523060048201526001600160a01b03909116906370a082319060240160206040518083038186803b158015612d3857600080fd5b505afa158015612d4c573d6000803e3d6000fd5b505050506040513d601f19601f82011682018060405250810190612d7091906137bb565b9050612d7b816135ec565b601e5460ff1615612d9657612d918160016126a6565b612da6565b806013541015612da65760138190555b50505050505050565b6001600160a01b0381166000908152601d6020526040812054816002612dd4856119bb565b10158015612df45750612de882600261246a565b612df185612347565b10155b15612e015750600161226f565b5060009392505050565b60008054600a54604051636eb1769f60e11b81526001600160a01b03918216600482015230602482015291169063dd62ed3e9060440160206040518083038186803b158015612e5957600080fd5b505afa158015612e6d573d6000803e3d6000fd5b505050506040513d601f19601f82011682018060405250810190612e9191906137bb565b9050620f42408110612f6b57600f54811115612f3357600054600a54600f546040516323b872dd60e01b81526001600160a01b03938416936323b872dd93612ee1939116913091906004016137f4565b602060405180830381600087803b158015612efb57600080fd5b505af1158015612f0f573d6000803e3d6000fd5b505050506040513d601f19601f820116820180604052508101906127829190613783565b600054600a546040516323b872dd60e01b81526001600160a01b03928316926323b872dd92612ee192911690309086906004016137f4565b50565b6000612f816127106108e98460c861246a565b6000546008549192506001600160a01b039081169163a9059cbb9116612fa884600261245e565b6040516001600160e01b031960e085901b1681526001600160a01b0390921660048301526024820152604401602060405180830381600087803b158015612fee57600080fd5b505af1158015613002573d6000803e3d6000fd5b505050506040513d601f19601f820116820180604052508101906130269190613783565b506000546001600160a01b031663a9059cbb6008600101546001600160a01b031661305284600261245e565b6040516001600160e01b031960e085901b1681526001600160a01b0390921660048301526024820152604401602060405180830381600087803b15801561309857600080fd5b505af11580156130ac573d6000803e3d6000fd5b505050506040513d601f19601f820116820180604052508101906130d09190613783565b5060006130e46127106108e985603261246a565b600054600a5460405163a9059cbb60e01b81526001600160a01b03918216600482015260248101849052929350169063a9059cbb90604401602060405180830381600087803b15801561313657600080fd5b505af115801561314a573d6000803e3d6000fd5b505050506040513d601f19601f8201168201806040525081019061316e9190613783565b50600f5461317c9082612476565b600f5560006131926127106108e986603261246a565b6010549091506131a29082612476565b60105560006131b86127106108e987603261246a565b6011549091506131c89082612476565b60118190556012546131d991612476565b6012555050505050565b6000805b60195481101561324c576019818154811061321257634e487b7160e01b600052603260045260246000fd5b6000918252602090912001546001600160a01b038481169116141561323a576001915061324c565b8061324481613891565b9150506131e7565b508061278257601980546001810182556000919091527f944998273e477b495144fb8794c914197f3ccb46be2900f4698fd0ef743c96950180546001600160a01b0384166001600160a01b03199091161790555050565b60005b6001600160a01b038216600090815260186020526040902054811015612782576001600160a01b03821660009081526018602052604081208054839081106132fe57634e487b7160e01b600052603260045260246000fd5b906000526020600020906005020190508060030154421180156133265750600481015460ff16155b801561335857506001600160a01b0383166000908152601d6020526040902060050154613354906001612452565b8154105b156133df57601e54600090610100900460ff168061337e5750601e5462010000900460ff165b1561338b575060006133cc565b60018201546001600160a01b0385166000908152601d60205260409020546133b291612476565b6001600160a01b0385166000908152601d60205260409020555b50600401805460ff191660011790555050565b50806133ea81613891565b9150506132a6565b6001600160a01b038083166000908152601a60205260409020805490911680158015906134315750806001600160a01b0316846001600160a01b031614155b156126a0576001600160a01b0381166000908152601a602052604090206006015461345c9084612476565b6001600160a01b0382166000908152601a6020526040902060068101919091556007015461348a9084612476565b6001600160a01b0382166000908152601a602052604090206007015550505050565b6001600160a01b038083166000908152601a60205260409020805490911680156126a05760005b600c8110156135e5576001600160a01b038216158015906135065750846001600160a01b0316826001600160a01b031614155b156135ce5760006135516127106108e96001858154811061353757634e487b7160e01b600052603260045260246000fd5b90600052602060002001548861246a90919063ffffffff16565b6001600160a01b0384166000908152601d602052604090206003015490915061357a9082612476565b6001600160a01b038085166000818152601d6020526040902060030192909255600b541614156135aa57506135e5565b506001600160a01b039182166000908152601a6020526040902054909116906135d3565b6135e5565b806135dd81613891565b9150506134d3565b5050505050565b60055b8015612782576136346127106108e9600261360b600186613863565b6005811061362957634e487b7160e01b600052603260045260246000fd5b01546013549061246a565b821061368f57600160076000600261364c8486613863565b6005811061366a57634e487b7160e01b600052603260045260246000fd5b015481526020810191909152604001600020805460ff19169115159190911790555050565b600060078160026136a1600186613863565b600581106136bf57634e487b7160e01b600052603260045260246000fd5b015481526020810191909152604001600020805460ff1916911515919091179055806136ea8161387a565b9150506135ef565b80356001600160a01b038116811461370957600080fd5b919050565b60006020828403121561371f578081fd5b61226f826136f2565b6000806040838503121561373a578081fd5b613743836136f2565b946020939093013593505050565b600080600060608486031215613765578081fd5b61376e846136f2565b95602085013595506040909401359392505050565b600060208284031215613794578081fd5b8151801515811461226f578182fd5b6000602082840312156137b4578081fd5b5035919050565b6000602082840312156137cc578081fd5b5051919050565b600080604083850312156137e5578182fd5b50508035926020909101359150565b6001600160a01b039384168152919092166020820152604081019190915260600190565b6000821982111561382b5761382b6138c0565b500190565b60008261383f5761383f6138d6565b500490565b600081600019048311821515161561385e5761385e6138c0565b500290565b600082821015613875576138756138c0565b500390565b600081613889576138896138c0565b506000190190565b60006000198214156138a5576138a56138c0565b5060010190565b6000826138bb576138bb6138d6565b500690565b634e487b7160e01b600052601160045260246000fd5b634e487b7160e01b600052601260045260246000fdfea264697066735822122073e31774498787eb5b6eeac761a4d20192f69ae0b0f904007f0d174be8f7ebfe64736f6c63430008040033",
  "linkReferences": {},
  "deployedLinkReferences": {}
}