{
  "_format": "hh-sol-artifact-1",
  "contractName": "PolygonBSG",
  "sourceName": "contracts/BSG.sol",
  "abi": [
    {
      "inputs": [
        {
          "internalType": "address",
          "name": "_usdtAddr",
          "type": "address"
        },
        {
          "internalType": "address",
          "name": "_defaultRefer",
          "type": "address"
        },
        {
          "internalType": "address",
          "name": "_insurance",
          "type": "address"
        },
        {
          "internalType": "address[2]",
          "name": "_feeReceivers",
          "type": "address[2]"
        }
      ],
      "stateMutability": "nonpayable",
      "type": "constructor"
    },
    {
      "anonymous": false,
      "inputs": [
        {
          "indexed": false,
          "internalType": "address",
          "name": "user",
          "type": "address"
        },
        {
          "indexed": false,
          "internalType": "uint256",
          "name": "amount",
          "type": "uint256"
        }
      ],
      "name": "Deposit",
      "type": "event"
    },
    {
      "anonymous": false,
      "inputs": [
        {
          "indexed": false,
          "internalType": "address",
          "name": "user",
          "type": "address"
        },
        {
          "indexed": false,
          "internalType": "uint256",
          "name": "amount",
          "type": "uint256"
        }
      ],
      "name": "DepositBySplit",
      "type": "event"
    },
    {
      "anonymous": false,
      "inputs": [
        {
          "indexed": false,
          "internalType": "address",
          "name": "user",
          "type": "address"
        },
        {
          "indexed": false,
          "internalType": "address",
          "name": "referral",
          "type": "address"
        }
      ],
      "name": "Register",
      "type": "event"
    },
    {
      "anonymous": false,
      "inputs": [
        {
          "indexed": false,
          "internalType": "address",
          "name": "user",
          "type": "address"
        },
        {
          "indexed": false,
          "internalType": "address",
          "name": "receiver",
          "type": "address"
        },
        {
          "indexed": false,
          "internalType": "uint256",
          "name": "amount",
          "type": "uint256"
        }
      ],
      "name": "TransferBySplit",
      "type": "event"
    },
    {
      "anonymous": false,
      "inputs": [
        {
          "indexed": false,
          "internalType": "address",
          "name": "user",
          "type": "address"
        },
        {
          "indexed": false,
          "internalType": "uint256",
          "name": "withdrawable",
          "type": "uint256"
        }
      ],
      "name": "Withdraw",
      "type": "event"
    },
    {
      "inputs": [],
      "name": "AllTimeHigh",
      "outputs": [
        {
          "internalType": "uint256",
          "name": "",
          "type": "uint256"
        }
      ],
      "stateMutability": "view",
      "type": "function"
    },
    {
      "inputs": [
        {
          "internalType": "address",
          "name": "_user",
          "type": "address"
        }
      ],
      "name": "_checkClaimable",
      "outputs": [
        {
          "internalType": "bool",
          "name": "",
          "type": "bool"
        }
      ],
      "stateMutability": "view",
      "type": "function"
    },
    {
      "inputs": [
        {
          "internalType": "address",
          "name": "_user",
          "type": "address"
        }
      ],
      "name": "_checkRegistered",
      "outputs": [
        {
          "internalType": "bool",
          "name": "",
          "type": "bool"
        }
      ],
      "stateMutability": "view",
      "type": "function"
    },
    {
      "inputs": [
        {
          "internalType": "uint256",
          "name": "",
          "type": "uint256"
        }
      ],
      "name": "balStatus",
      "outputs": [
        {
          "internalType": "bool",
          "name": "",
          "type": "bool"
        }
      ],
      "stateMutability": "view",
      "type": "function"
    },
    {
      "inputs": [
        {
          "internalType": "uint256",
          "name": "",
          "type": "uint256"
        }
      ],
      "name": "blueDiamondUsers",
      "outputs": [
        {
          "internalType": "address",
          "name": "",
          "type": "address"
        }
      ],
      "stateMutability": "view",
      "type": "function"
    },
    {
      "inputs": [
        {
          "internalType": "uint256",
          "name": "",
          "type": "uint256"
        }
      ],
      "name": "crownDiamondUsers",
      "outputs": [
        {
          "internalType": "address",
          "name": "",
          "type": "address"
        }
      ],
      "stateMutability": "view",
      "type": "function"
    },
    {
      "inputs": [
        {
          "internalType": "uint256",
          "name": "",
          "type": "uint256"
        },
        {
          "internalType": "uint256",
          "name": "",
          "type": "uint256"
        }
      ],
      "name": "dayMore1kUsers",
      "outputs": [
        {
          "internalType": "address",
          "name": "",
          "type": "address"
        }
      ],
      "stateMutability": "view",
      "type": "function"
    },
    {
      "inputs": [],
      "name": "defaultRefer",
      "outputs": [
        {
          "internalType": "address",
          "name": "",
          "type": "address"
        }
      ],
      "stateMutability": "view",
      "type": "function"
    },
    {
      "inputs": [
        {
          "internalType": "uint256",
          "name": "amount",
          "type": "uint256"
        }
      ],
      "name": "deposit",
      "outputs": [],
      "stateMutability": "nonpayable",
      "type": "function"
    },
    {
      "inputs": [
        {
          "internalType": "uint256",
          "name": "amount",
          "type": "uint256"
        }
      ],
      "name": "depositBySplit",
      "outputs": [],
      "stateMutability": "nonpayable",
      "type": "function"
    },
    {
      "inputs": [
        {
          "internalType": "uint256",
          "name": "",
          "type": "uint256"
        }
      ],
      "name": "depositors",
      "outputs": [
        {
          "internalType": "address",
          "name": "",
          "type": "address"
        }
      ],
      "stateMutability": "view",
      "type": "function"
    },
    {
      "inputs": [],
      "name": "diamondIncomePool",
      "outputs": [
        {
          "internalType": "uint256",
          "name": "",
          "type": "uint256"
        }
      ],
      "stateMutability": "view",
      "type": "function"
    },
    {
      "inputs": [
        {
          "internalType": "uint256",
          "name": "",
          "type": "uint256"
        }
      ],
      "name": "diamondUsers",
      "outputs": [
        {
          "internalType": "address",
          "name": "",
          "type": "address"
        }
      ],
      "stateMutability": "view",
      "type": "function"
    },
    {
      "inputs": [],
      "name": "distributePoolRewards",
      "outputs": [],
      "stateMutability": "nonpayable",
      "type": "function"
    },
    {
      "inputs": [
        {
          "internalType": "uint256",
          "name": "",
          "type": "uint256"
        }
      ],
      "name": "feeReceivers",
      "outputs": [
        {
          "internalType": "address",
          "name": "",
          "type": "address"
        }
      ],
      "stateMutability": "view",
      "type": "function"
    },
    {
      "inputs": [],
      "name": "getCurDay",
      "outputs": [
        {
          "internalType": "uint256",
          "name": "",
          "type": "uint256"
        }
      ],
      "stateMutability": "view",
      "type": "function"
    },
    {
      "inputs": [
        {
          "internalType": "address",
          "name": "_user",
          "type": "address"
        }
      ],
      "name": "getCurSplit",
      "outputs": [
        {
          "internalType": "uint256",
          "name": "",
          "type": "uint256"
        }
      ],
      "stateMutability": "view",
      "type": "function"
    },
    {
      "inputs": [
        {
          "internalType": "uint256",
          "name": "_day",
          "type": "uint256"
        }
      ],
      "name": "getDayMore1kLength",
      "outputs": [
        {
          "internalType": "uint256",
          "name": "",
          "type": "uint256"
        }
      ],
      "stateMutability": "view",
      "type": "function"
    },
    {
      "inputs": [],
      "name": "getDepositorsLength",
      "outputs": [
        {
          "internalType": "uint256",
          "name": "",
          "type": "uint256"
        }
      ],
      "stateMutability": "view",
      "type": "function"
    },
    {
      "inputs": [
        {
          "internalType": "address",
          "name": "_user",
          "type": "address"
        }
      ],
      "name": "getMaxFreezing",
      "outputs": [
        {
          "internalType": "uint256",
          "name": "",
          "type": "uint256"
        }
      ],
      "stateMutability": "view",
      "type": "function"
    },
    {
      "inputs": [
        {
          "internalType": "address",
          "name": "_user",
          "type": "address"
        }
      ],
      "name": "getMyTeamNumbers",
      "outputs": [
        {
          "internalType": "uint256",
          "name": "",
          "type": "uint256"
        }
      ],
      "stateMutability": "view",
      "type": "function"
    },
    {
      "inputs": [
        {
          "internalType": "address",
          "name": "_user",
          "type": "address"
        }
      ],
      "name": "getOrderLength",
      "outputs": [
        {
          "internalType": "uint256",
          "name": "",
          "type": "uint256"
        }
      ],
      "stateMutability": "view",
      "type": "function"
    },
    {
      "inputs": [
        {
          "internalType": "address",
          "name": "_user",
          "type": "address"
        }
      ],
      "name": "getTeamDeposit",
      "outputs": [
        {
          "internalType": "uint256",
          "name": "",
          "type": "uint256"
        }
      ],
      "stateMutability": "view",
      "type": "function"
    },
    {
      "inputs": [
        {
          "internalType": "address",
          "name": "_user",
          "type": "address"
        }
      ],
      "name": "getTeamUsersLength",
      "outputs": [
        {
          "internalType": "uint256",
          "name": "",
          "type": "uint256"
        }
      ],
      "stateMutability": "view",
      "type": "function"
    },
    {
      "inputs": [
        {
          "internalType": "address",
          "name": "_user",
          "type": "address"
        },
        {
          "internalType": "uint256",
          "name": "_layer",
          "type": "uint256"
        }
      ],
      "name": "getTeamUsersLengthwithDepth",
      "outputs": [
        {
          "internalType": "uint256",
          "name": "",
          "type": "uint256"
        }
      ],
      "stateMutability": "view",
      "type": "function"
    },
    {
      "inputs": [],
      "name": "insuranceAccount",
      "outputs": [
        {
          "internalType": "address",
          "name": "",
          "type": "address"
        }
      ],
      "stateMutability": "view",
      "type": "function"
    },
    {
      "inputs": [],
      "name": "insurancePool",
      "outputs": [
        {
          "internalType": "uint256",
          "name": "",
          "type": "uint256"
        }
      ],
      "stateMutability": "view",
      "type": "function"
    },
    {
      "inputs": [],
      "name": "isFreezeReward",
      "outputs": [
        {
          "internalType": "bool",
          "name": "",
          "type": "bool"
        }
      ],
      "stateMutability": "view",
      "type": "function"
    },
    {
      "inputs": [],
      "name": "isStopLoss30ofATH",
      "outputs": [
        {
          "internalType": "bool",
          "name": "",
          "type": "bool"
        }
      ],
      "stateMutability": "view",
      "type": "function"
    },
    {
      "inputs": [],
      "name": "isStopLoss50ofATH",
      "outputs": [
        {
          "internalType": "bool",
          "name": "",
          "type": "bool"
        }
      ],
      "stateMutability": "view",
      "type": "function"
    },
    {
      "inputs": [],
      "name": "lastDistribute",
      "outputs": [
        {
          "internalType": "uint256",
          "name": "",
          "type": "uint256"
        }
      ],
      "stateMutability": "view",
      "type": "function"
    },
    {
      "inputs": [],
      "name": "more1kIncomePool",
      "outputs": [
        {
          "internalType": "uint256",
          "name": "",
          "type": "uint256"
        }
      ],
      "stateMutability": "view",
      "type": "function"
    },
    {
      "inputs": [
        {
          "internalType": "address",
          "name": "",
          "type": "address"
        },
        {
          "internalType": "uint256",
          "name": "",
          "type": "uint256"
        }
      ],
      "name": "myTeamUsers",
      "outputs": [
        {
          "internalType": "address",
          "name": "",
          "type": "address"
        }
      ],
      "stateMutability": "view",
      "type": "function"
    },
    {
      "inputs": [
        {
          "internalType": "address",
          "name": "",
          "type": "address"
        },
        {
          "internalType": "uint256",
          "name": "",
          "type": "uint256"
        }
      ],
      "name": "orderInfos",
      "outputs": [
        {
          "internalType": "uint256",
          "name": "cycle",
          "type": "uint256"
        },
        {
          "internalType": "uint256",
          "name": "amount",
          "type": "uint256"
        },
        {
          "internalType": "uint256",
          "name": "start",
          "type": "uint256"
        },
        {
          "internalType": "uint256",
          "name": "unfreeze",
          "type": "uint256"
        },
        {
          "internalType": "bool",
          "name": "isClaimed",
          "type": "bool"
        }
      ],
      "stateMutability": "view",
      "type": "function"
    },
    {
      "inputs": [
        {
          "internalType": "address",
          "name": "_referral",
          "type": "address"
        }
      ],
      "name": "register",
      "outputs": [],
      "stateMutability": "nonpayable",
      "type": "function"
    },
    {
      "inputs": [
        {
          "internalType": "address",
          "name": "",
          "type": "address"
        }
      ],
      "name": "rewardInfo",
      "outputs": [
        {
          "internalType": "uint256",
          "name": "capitals",
          "type": "uint256"
        },
        {
          "internalType": "uint256",
          "name": "statics",
          "type": "uint256"
        },
        {
          "internalType": "uint256",
          "name": "directs",
          "type": "uint256"
        },
        {
          "internalType": "uint256",
          "name": "levelReleased",
          "type": "uint256"
        },
        {
          "internalType": "uint256",
          "name": "infinityBonusReleased",
          "type": "uint256"
        },
        {
          "internalType": "uint256",
          "name": "cycleNumber",
          "type": "uint256"
        },
        {
          "internalType": "uint256",
          "name": "more1k",
          "type": "uint256"
        },
        {
          "internalType": "uint256",
          "name": "split",
          "type": "uint256"
        },
        {
          "internalType": "uint256",
          "name": "splitDebt",
          "type": "uint256"
        }
      ],
      "stateMutability": "view",
      "type": "function"
    },
    {
      "inputs": [],
      "name": "startTime",
      "outputs": [
        {
          "internalType": "uint256",
          "name": "",
          "type": "uint256"
        }
      ],
      "stateMutability": "view",
      "type": "function"
    },
    {
      "inputs": [
        {
          "internalType": "address",
          "name": "",
          "type": "address"
        },
        {
          "internalType": "uint256",
          "name": "",
          "type": "uint256"
        },
        {
          "internalType": "uint256",
          "name": "",
          "type": "uint256"
        }
      ],
      "name": "teamUsers",
      "outputs": [
        {
          "internalType": "address",
          "name": "",
          "type": "address"
        }
      ],
      "stateMutability": "view",
      "type": "function"
    },
    {
      "inputs": [],
      "name": "totalUser",
      "outputs": [
        {
          "internalType": "uint256",
          "name": "",
          "type": "uint256"
        }
      ],
      "stateMutability": "view",
      "type": "function"
    },
    {
      "inputs": [
        {
          "internalType": "address",
          "name": "_receiver",
          "type": "address"
        },
        {
          "internalType": "uint256",
          "name": "_amount",
          "type": "uint256"
        }
      ],
      "name": "transferBySplit",
      "outputs": [],
      "stateMutability": "nonpayable",
      "type": "function"
    },
    {
      "inputs": [],
      "name": "usdt",
      "outputs": [
        {
          "internalType": "contract IERC20",
          "name": "",
          "type": "address"
        }
      ],
      "stateMutability": "view",
      "type": "function"
    },
    {
      "inputs": [
        {
          "internalType": "address",
          "name": "",
          "type": "address"
        }
      ],
      "name": "userInfo",
      "outputs": [
        {
          "internalType": "address",
          "name": "referrer",
          "type": "address"
        },
        {
          "internalType": "uint256",
          "name": "start",
          "type": "uint256"
        },
        {
          "internalType": "uint256",
          "name": "level",
          "type": "uint256"
        },
        {
          "internalType": "uint256",
          "name": "maxDeposit",
          "type": "uint256"
        },
        {
          "internalType": "uint256",
          "name": "totalDeposit",
          "type": "uint256"
        },
        {
          "internalType": "uint256",
          "name": "teamNum",
          "type": "uint256"
        },
        {
          "internalType": "uint256",
          "name": "teamTotalDeposit",
          "type": "uint256"
        },
        {
          "internalType": "uint256",
          "name": "teamTotalVolume",
          "type": "uint256"
        },
        {
          "internalType": "uint256",
          "name": "totalFreezed",
          "type": "uint256"
        },
        {
          "internalType": "uint256",
          "name": "totalRevenue",
          "type": "uint256"
        },
        {
          "internalType": "uint256",
          "name": "membership",
          "type": "uint256"
        },
        {
          "internalType": "uint256",
          "name": "directBonusCount",
          "type": "uint256"
        }
      ],
      "stateMutability": "view",
      "type": "function"
    },
    {
      "inputs": [],
      "name": "withdraw",
      "outputs": [],
      "stateMutability": "nonpayable",
      "type": "function"
    }
  ],
  "bytecode": "0x6102206040526101f46080908152606460a081905260c860c081905260e0829052610100526101208190526101408190526101608190526101808190526101a05260326101c08190526101e0526000610200526200006290600190600d62000132565b50604080516060810182526113888152611b586020820152612af8918101919091526200009490600290600362000188565b50601d805462ffffff19169055348015620000ae57600080fd5b5060405162002e3038038062002e30833981016040819052620000d1916200023d565b600080546001600160a01b038087166001600160a01b031992831617909255600b8054868416908316179055600a8054928516929091169190911790556200011d6008826002620001be565b505042600c819055600d55506200031d915050565b82805482825590600052602060002090810192821562000176579160200282015b8281111562000176578251829061ffff1690559160200191906001019062000153565b506200018492915062000209565b5090565b826005810192821562000176579160200282018281111562000176578251829061ffff1690559160200191906001019062000153565b826002810192821562000176579160200282015b828111156200017657825182546001600160a01b0319166001600160a01b03909116178255602090920191600190910190620001d2565b5b808211156200018457600081556001016200020a565b80516001600160a01b03811681146200023857600080fd5b919050565b60008060008060a0858703121562000253578384fd5b6200025e8562000220565b935060206200026f81870162000220565b93506200027f6040870162000220565b925086607f87011262000290578182fd5b604080519081016001600160401b0381118282101715620002b557620002b562000307565b604052806060880160a089018a1015620002cd578485fd5b845b6002811015620002f757620002e48262000220565b83529184019190840190600101620002cf565b5096999598509396509450505050565b634e487b7160e01b600052604160045260246000fd5b612b03806200032d6000396000f3fe608060405234801561001057600080fd5b50600436106102685760003560e01c8063732cef4311610151578063b6b55f25116100c3578063de6b8a2e11610087578063de6b8a2e1461070a578063e1604b7014610733578063e28aa97a1461073c578063e402a0711461074f578063e4b2fb7914610762578063fda92ce51461077557600080fd5b8063b6b55f251461061e578063c511b34514610631578063cbecf6b514610644578063cc38c8a0146106e4578063d0c85cfe146106f757600080fd5b806386dd5eb01161011557806386dd5eb0146105575780638b5a432a14610580578063991e766814610593578063aa0204f9146105bf578063ab2adc00146105df578063ae97397e146105e857600080fd5b8063732cef43146104d957806373cb4d05146104fc5780637647e0ff1461050f57806378e979251461053b57806385a6327c1461054457600080fd5b80633ccfd60b116101ea5780634e506831116101ae5780634e5068311461044f5780635b3817601461046157806360a1cbd7146104745780636f0110d3146104b157806370abe5fe146104be57806371a6b69d146104c657600080fd5b80633ccfd60b1461040d57806341e8a718146104175780634420e4861461042057806347d67339146104335780634c809c661461043c57600080fd5b80632c45ab54116102315780632c45ab54146103a15780632f48ab7d146103b45780632fea20f6146103df57806330538c32146103e75780633955782b146103fa57600080fd5b8062a7a56e1461026d578063069570e2146102885780630cf9310a146102915780631959a002146102b45780632489a2231461038e575b600080fd5b61027561077e565b6040519081526020015b60405180910390f35b61027560125481565b6102a461029f366004612913565b6107a5565b604051901515815260200161027f565b61032b6102c2366004612913565b601960205260009081526040902080546001820154600283015460038401546004850154600586015460068701546007880154600889015460098a0154600a8b0154600b909b01546001600160a01b03909a169a9899979896979596949593949293919290918c565b604080516001600160a01b03909d168d5260208d019b909b52998b019890985260608a0196909652608089019490945260a088019290925260c087015260e08601526101008501526101208401526101408301526101608201526101800161027f565b601d546102a49062010000900460ff1681565b6102a46103af366004612913565b6107dc565b6000546103c7906001600160a01b031681565b6040516001600160a01b03909116815260200161027f565b601854610275565b6103c76103f53660046129a8565b610877565b6103c76104083660046129a8565b6108a1565b6104156108b1565b005b61027560105481565b61041561042e366004612913565b610bd8565b610275600d5481565b61027561044a366004612913565b610d6f565b601d546102a490610100900460ff1681565b6103c761046f3660046129a8565b610dcb565b61048761048236600461292d565b610deb565b6040805195865260208601949094529284019190915260608301521515608082015260a00161027f565b601d546102a49060ff1681565b610415610e3c565b6104156104d436600461292d565b610e63565b6102a46104e73660046129a8565b60076020526000908152604090205460ff1681565b6103c761050a366004612956565b610fbb565b61027561051d366004612913565b6001600160a01b031660009081526019602052604090206006015490565b610275600c5481565b600b546103c7906001600160a01b031681565b610275610565366004612913565b6001600160a01b03166000908152601b602052604090205490565b6103c761058e3660046129d8565b611000565b6102756105a1366004612913565b6001600160a01b031660009081526019602052604090206005015490565b6102756105cd3660046129a8565b60009081526013602052604090205490565b610275600f5481565b6102756105f636600461292d565b6001600160a01b03919091166000908152601a60209081526040808320938352929052205490565b61041561062c3660046129a8565b611038565b61041561063f3660046129a8565b61111a565b6106a0610652366004612913565b601c6020528060005260406000206000915090508060000154908060010154908060020154908060030154908060040154908060050154908060060154908060070154908060080154905089565b60408051998a5260208a0198909852968801959095526060870193909352608086019190915260a085015260c084015260e08301526101008201526101200161027f565b600a546103c7906001600160a01b031681565b6103c761070536600461292d565b6112a1565b610275610718366004612913565b6001600160a01b031660009081526017602052604090205490565b610275600e5481565b6103c761074a3660046129a8565b6112bd565b61027561075d366004612913565b6112cd565b6103c76107703660046129a8565b611385565b61027560115481565b60006107a0603c61079a600c544261139590919063ffffffff16565b906113a8565b905090565b6001600160a01b03808216600090815260196020526040812080549192909116156107d35750600192915050565b50600092915050565b6001600160a01b0381166000908152601c602052604081206005810154829060021180159061080b5750815415155b801561086f57506001600160a01b0384166000908152601760205260409020600583015442919061083d906002611395565b8154811061085b57634e487b7160e01b600052603260045260246000fd5b906000526020600020906005020160030154105b949350505050565b6016818154811061088757600080fd5b6000918252602090912001546001600160a01b0316905081565b6015818154811061088757600080fd5b336000908152601c602090815260408083206017909252822060058201549192914291906108e0906002611395565b815481106108fe57634e487b7160e01b600052603260045260246000fd5b90600052602060002090600502016003015410801561091d5750815415155b905060018115151461099c5760405162461bcd60e51b815260206004820152603760248201527f43616e7420636c61696d2c20506c6561736520636865636b207374616b65206460448201527f61746520616e64206465706f736974207374617475732100000000000000000060648201526084015b60405180910390fd5b6109a4610e3c565b6000806109b0336113b4565b909250905080826000806109c333611433565b90925090506109d283836114c3565b92506109de84826114c3565b336000908152601960205260409020600981015491955090610a0c908690610a0690876114c3565b906114c3565b6009820155610a29610a1e85876114c3565b600883015490611395565b60088201556007890154610a3d90866114c3565b60078a0155600060018a0181905560028a0181905560038a0181905560048a0181905560068a01558854610a729085906114c3565b9350610a82338a600001546114cf565b6000808a555460405163a9059cbb60e01b8152336004820152602481018690526001600160a01b039091169063a9059cbb90604401602060405180830381600087803b158015610ad157600080fd5b505af1158015610ae5573d6000803e3d6000fd5b505050506040513d601f19601f82011682018060405250810190610b099190612988565b50600080546040516370a0823160e01b81523060048201526001600160a01b03909116906370a082319060240160206040518083038186803b158015610b4e57600080fd5b505afa158015610b62573d6000803e3d6000fd5b505050506040513d601f19601f82011682018060405250810190610b8691906129c0565b9050610b938160006115a0565b60408051338152602081018790527f884edad9ce6fa2440d8a54cc123490eb96d2768479d49ff9c7366125a9424364910160405180910390a150505050505050505050565b6001600160a01b038116600090815260196020526040902060040154151580610c0e5750600b546001600160a01b038281169116145b610c4a5760405162461bcd60e51b815260206004820152600d60248201526c34b73b30b634b2103932b332b960991b6044820152606401610993565b33600090815260196020526040902080546001600160a01b031615610ca35760405162461bcd60e51b815260206004820152600f60248201526e1c9959995c9c995c88189bdb991959608a1b6044820152606401610993565b80546001600160a01b03199081166001600160a01b0384169081178355426001808501919091556000828152601b6020908152604080832080549485018155835281832090930180543396168617905583825260199052209114610d17576005810154610d119060016114c3565b60058201555b600e54610d259060016114c3565b600e55604080513381526001600160a01b03851660208201527f98ada70a1cb506dc4591465e1ee9be3fd7a2b6c73ecf3b949009718c9a35151991015b60405180910390a1505050565b600080610d7b836113b4565b9150506000610d8984611433565b6001600160a01b0386166000908152601c60205260409020600881015460079091015491935061086f925090610dc5908490610a0690876114c3565b90611395565b60088160028110610ddb57600080fd5b01546001600160a01b0316905081565b60176020528160005260406000208181548110610e0757600080fd5b600091825260209091206005909102018054600182015460028301546003840154600490940154929550909350919060ff1685565b600d54610e4a90603c6114c3565b421115610e615742610e5b81611678565b5042600d555b565b6305f5e1008110158015610e825750610e80816305f5e100611783565b155b610ebb5760405162461bcd60e51b815260206004820152600a60248201526930b6b7bab73a1032b93960b11b6044820152606401610993565b6000610ec633610d6f565b905081811015610f0e5760405162461bcd60e51b8152602060048201526013602482015272696e73756666696369656e7420696e636f6d6560681b6044820152606401610993565b336000908152601c6020526040902060080154610f2b90836114c3565b336000908152601c6020526040808220600801929092556001600160a01b03851681522060070154610f5d90836114c3565b6001600160a01b0384166000818152601c60209081526040918290206007019390935580513381529283019190915281018390527f6793236d14c3b3aa080156a78046b313bd7fc5dee636846f4254fa3506c81faa90606001610d62565b601a6020528260005260406000206020528160005260406000208181548110610fe357600080fd5b6000918252602090912001546001600160a01b0316925083915050565b6013602052816000526040600020818154811061101c57600080fd5b6000918252602090912001546001600160a01b03169150829050565b600061104782620f424061178f565b6000546040516323b872dd60e01b8152336004820152306024820152604481018390529192506001600160a01b0316906323b872dd90606401602060405180830381600087803b15801561109a57600080fd5b505af11580156110ae573d6000803e3d6000fd5b505050506040513d601f19601f820116820180604052508101906110d29190612988565b506110dd338261179b565b60408051338152602081018390527fe1fffcc4923d04b559f4d29a8bfc6cda04eb5b0d3c460751c2402c5c5cc9109c910160405180910390a15050565b600061112982620f424061178f565b90506305f5e100811015801561114a5750611148816305f5e100611783565b155b6111835760405162461bcd60e51b815260206004820152600a60248201526930b6b7bab73a1032b93960b11b6044820152606401610993565b33600090815260196020526040902060040154156111cd5760405162461bcd60e51b81526020600482015260076024820152661858dd1a5d995960ca1b6044820152606401610993565b60006111d833610d6f565b90508181101561121f5760405162461bcd60e51b81526020600482015260126024820152711a5b9cdd59999a58da595b9d081cdc1b1a5d60721b6044820152606401610993565b61124b611232606461079a85601e61178f565b336000908152601c602052604090206008015490611395565b336000818152601c602052604090206008019190915561126b908361179b565b60408051338152602081018490527f29e90a65bdaddba77321b34070d4cd09a4d33ccf332d7760c852917757eed3cb9101610d62565b601b602052816000526040600020818154811061101c57600080fd5b6014818154811061088757600080fd5b6001600160a01b03811660009081526017602052604081205481905b801561137e576001600160a01b0384166000908152601760205260408120611312600184612a44565b8154811061133057634e487b7160e01b600052603260045260246000fd5b90600052602060002090600502019050428160030154111561136557828160010154111561136057806001015492505b61136b565b5061137e565b508061137681612a5b565b9150506112e9565b5092915050565b6018818154811061088757600080fd5b60006113a18284612a44565b9392505050565b60006113a18284612a11565b6001600160a01b0381166000908152601c60209081526040808320601990925282206001820154600a82015484939291908490611404576113fd61271061079a846107d061178f565b9050611419565b61141661271061079a84610bb861178f565b90505b60006114258383611395565b989197509095505050505050565b6001600160a01b0381166000908152601c60209081526040808320601990925282206003820154600283015484939291849161146e916114c3565b90506114878360060154826114c390919063ffffffff16565b90506114a08360040154826114c390919063ffffffff16565b9050600082600a015460001415611404576113fd61271061079a846107d061178f565b60006113a182846129f9565b6001600160a01b0380831660009081526019602052604090208054909116801580159061150e5750836001600160a01b0316816001600160a01b031614155b1561159a576001600160a01b03811660009081526019602052604090206006015483101561157d576001600160a01b03811660009081526019602052604090206006015461155c9084611395565b6001600160a01b03821660009081526019602052604090206006015561159a565b6001600160a01b0381166000908152601960205260408120600601555b50505050565b801561161f5760055b801561161a576007600060026115c0600185612a44565b600581106115de57634e487b7160e01b600052603260045260246000fd5b0154815260208101919091526040016000205460ff161561160857601d805460ff19169055505050565b8061161281612a5b565b9150506115a9565b505050565b60055b801561161a5761164661271061079a61163d82610bb8611395565b6012549061178f565b83101561166257601d805460ff1916600117905561161a611c8b565b8061166c81612a5b565b915050611622565b5050565b6000601381611688600185612a44565b81526020810191909152604001600020549050801561167457805b80156117795760006013816116b9600187612a44565b81526020019081526020016000206001836116d49190612a44565b815481106116f257634e487b7160e01b600052603260045260246000fd5b6000918252602090912001546001600160a01b0316905080156117665760115460009061171f90856113a8565b6001600160a01b0383166000908152601c602052604090206006015490915061174890826114c3565b6001600160a01b0383166000908152601c6020526040902060060155505b508061177181612a5b565b9150506116a3565b5060006011555050565b60006113a18284612a8d565b60006113a18284612a25565b6001600160a01b03808316600090815260196020526040902080549091166118115760405162461bcd60e51b8152602060048201526024808201527f7265676973746572206669727374207769746820726566657272616c206164646044820152637265737360e01b6064820152608401610993565b6305f5e1008210156118655760405162461bcd60e51b815260206004820152601b60248201527f73686f756c64206265206d6f7265207468616e206d696e2031303000000000006044820152606401610993565b639502f9008211156118b95760405162461bcd60e51b815260206004820152601c60248201527f73686f756c64206265206c657373207468616e206d696e2032353030000000006044820152606401610993565b6118c7826305f5e100611783565b156119145760405162461bcd60e51b815260206004820181905260248201527f616d6f756e742073686f756c64206265206d756c7469706c65206f66203130306044820152606401610993565b60038101541580611929575080600301548210155b6119905760405162461bcd60e51b815260206004820152603260248201527f6e657874206465706f7369742073686f756c6420626520657175616c206f72206044820152716d6f7265207468616e2070726576696f757360701b6064820152608401610993565b60038101546119a557600381018290556119b9565b81816003015410156119b957600381018290555b6119c282611daa565b60048101541580156119d85750633b9aca008210155b15611a205760006119e761077e565b60009081526013602090815260408220805460018101825590835291200180546001600160a01b0319166001600160a01b038616179055505b601880546001810182556000919091527fb13d2d76d1f4b7be834882e410b3e3a8afaf69f83600ae24db354391d2378d2e0180546001600160a01b0319166001600160a01b0385161790556004810154611a7a90836114c3565b60048201556008810154611a8e90836114c3565b6008820155611a9c83611ffe565b6001600160a01b0383166000908152601c6020526040902060058101546032908111611ad457611acd81603c61178f565b9050611ae7565b6005820154611ae490603c61178f565b90505b6000611af882610a0642603c6114c3565b6001600160a01b0387166000908152601760209081526040808320815160a0810183526005898101805483528286018d8152429584019586526060840189815260808501898152865460018082018955978b5298909920945197909302909301958655915185840155925160028501559151600384015592516004909201805460ff19169215159290921790915554919250611b9491906114c3565b6005840155611ba28661215e565b611baa610e3c565b611bb486866123a0565b611bbe868661245d565b611bc8868661259d565b600080546040516370a0823160e01b81523060048201526001600160a01b03909116906370a082319060240160206040518083038186803b158015611c0c57600080fd5b505afa158015611c20573d6000803e3d6000fd5b505050506040513d601f19601f82011682018060405250810190611c4491906129c0565b9050611c4f816127f1565b601d5460ff1615611c7257611c62611c8b565b611c6d8160016115a0565b611c82565b806012541015611c825760128190555b50505050505050565b600054600a54604051636eb1769f60e11b81526001600160a01b0391821660048201819052306024830181905292909316926323b872dd929091849063dd62ed3e9060440160206040518083038186803b158015611ce857600080fd5b505afa158015611cfc573d6000803e3d6000fd5b505050506040513d601f19601f82011682018060405250810190611d2091906129c0565b6040516001600160e01b031960e086901b1681526001600160a01b0393841660048201529290911660248301526044820152606401602060405180830381600087803b158015611d6f57600080fd5b505af1158015611d83573d6000803e3d6000fd5b505050506040513d601f19601f82011682018060405250810190611da79190612988565b50565b6000611dbd61271061079a8460c861178f565b6000546008549192506001600160a01b039081169163a9059cbb9116611de48460026113a8565b6040516001600160e01b031960e085901b1681526001600160a01b0390921660048301526024820152604401602060405180830381600087803b158015611e2a57600080fd5b505af1158015611e3e573d6000803e3d6000fd5b505050506040513d601f19601f82011682018060405250810190611e629190612988565b506000546001600160a01b031663a9059cbb6008600101546001600160a01b0316611e8e8460026113a8565b6040516001600160e01b031960e085901b1681526001600160a01b0390921660048301526024820152604401602060405180830381600087803b158015611ed457600080fd5b505af1158015611ee8573d6000803e3d6000fd5b505050506040513d601f19601f82011682018060405250810190611f0c9190612988565b506000611f2061271061079a85603261178f565b600054600a5460405163a9059cbb60e01b81526001600160a01b03918216600482015260248101849052929350169063a9059cbb90604401602060405180830381600087803b158015611f7257600080fd5b505af1158015611f86573d6000803e3d6000fd5b505050506040513d601f19601f82011682018060405250810190611faa9190612988565b506000611fbe61271061079a86603261178f565b601054909150611fce90826114c3565b6010556000611fe461271061079a87603261178f565b601154909150611ff490826114c3565b6011555050505050565b6001600160a01b0381166000908152601960205260409020600581015460021180159061203e5750600381015461203690600261178f565b816006015410155b1561215357639502f9008160030154101580156120605750600f816005015410155b8015612075575064037e11d600816006015410155b801561208a575064746a528800816007015410155b1561209a576004600a8201555050565b639502f9008160030154101580156120b75750600a816005015410155b80156120cc57506402540be400816006015410155b80156120e1575064174876e800816007015410155b156120f1576003600a8201555050565b633b9aca0081600301541015801561210e57506005816005015410155b801561212357506402540be400816006015410155b8015612138575064174876e800816007015410155b15612148576002600a8201555050565b6001600a8201555050565b6000600a8201555050565b6001600160a01b0381166000908152601960205260408120905b6001600160a01b03831660009081526017602052604090205481101561161a576001600160a01b03831660009081526017602052604081208054839081106121d057634e487b7160e01b600052603260045260246000fd5b906000526020600020906005020190508060030154421180156121f85750600481015460ff16155b801561222a57506001600160a01b0384166000908152601c6020526040902060050154612226906001611395565b8154105b1561238d57601d54600090610100900460ff16806122505750601d5462010000900460ff165b1561225d5750600061237c565b6002846005015410158015612294575061228c61271061079a614e20856001015461178f90919063ffffffff16565b846006015410155b156122bf576122b861271061079a6107d0856001015461178f90919063ffffffff16565b90506122e1565b6122de61271061079a6105dc856001015461178f90919063ffffffff16565b90505b61230061271061079a614e20856001015461178f90919063ffffffff16565b8460090154111561230f575060005b60018201546001600160a01b0386166000908152601c6020526040902054612336916114c3565b6001600160a01b0386166000908152601c602052604090209081556001015461235f90826114c3565b6001600160a01b0386166000908152601c60205260409020600101555b5060048101805460ff191660011790555b508061239881612a72565b915050612178565b6001600160a01b038083166000908152601960205260409020805490911680158015906123df5750806001600160a01b0316846001600160a01b031614155b1561159a576001600160a01b03811660009081526019602052604090206006015461240a90846114c3565b6001600160a01b038216600090815260196020526040902060068101919091556007015461243890846114c3565b6001600160a01b03821660009081526019602052604090206007015561159a81611ffe565b6001600160a01b0380831660009081526019602052604090208054909116801561159a5760005b600c811015612596576001600160a01b038216158015906124b75750846001600160a01b0316826001600160a01b031614155b1561257f57600061250261271061079a600185815481106124e857634e487b7160e01b600052603260045260246000fd5b90600052602060002001548861178f90919063ffffffff16565b6001600160a01b0384166000908152601c602052604090206003015490915061252b90826114c3565b6001600160a01b038085166000818152601c6020526040902060030192909255600b5416141561255b5750612596565b506001600160a01b0391821660009081526019602052604090205490911690612584565b612596565b8061258e81612a72565b915050612484565b5050505050565b6001600160a01b0380831660009081526019602052604090208054909116801561159a576001600160a01b0381166000908152601c602090815260408083206019909252909120600a0154600214156126285761261e61261361271061079a818161044c61260d8b61019061178f565b9061178f565b6004830154906114c3565b6004820155612713565b6001600160a01b0382166000908152601960205260409020600a0154600314156127135761267c63017d7840610dc561267161271061079a81816106a461260d8d61019061178f565b6004850154906114c3565b600482810191909155600054600a5460405163a9059cbb60e01b81526001600160a01b039182169381019390935263017d78406024840152169063a9059cbb90604401602060405180830381600087803b1580156126d957600080fd5b505af11580156126ed573d6000803e3d6000fd5b505050506040513d601f19601f820116820180604052508101906127119190612988565b505b6001600160a01b0382166000908152601960205260409020600a015460041415612596576127546302faf080610dc561267161271061079a8961019061178f565b600482810191909155600054600a5460405163a9059cbb60e01b81526001600160a01b03918216938101939093526302faf0806024840152169063a9059cbb90604401602060405180830381600087803b1580156127b157600080fd5b505af11580156127c5573d6000803e3d6000fd5b505050506040513d601f19601f820116820180604052508101906127e99190612988565b505050505050565b60055b80156116745761283961271061079a6002612810600186612a44565b6005811061282e57634e487b7160e01b600052603260045260246000fd5b01546012549061178f565b82106128945760016007600060026128518486612a44565b6005811061286f57634e487b7160e01b600052603260045260246000fd5b015481526020810191909152604001600020805460ff19169115159190911790555050565b600060078160026128a6600186612a44565b600581106128c457634e487b7160e01b600052603260045260246000fd5b015481526020810191909152604001600020805460ff1916911515919091179055806128ef81612a5b565b9150506127f4565b80356001600160a01b038116811461290e57600080fd5b919050565b600060208284031215612924578081fd5b6113a1826128f7565b6000806040838503121561293f578081fd5b612948836128f7565b946020939093013593505050565b60008060006060848603121561296a578081fd5b612973846128f7565b95602085013595506040909401359392505050565b600060208284031215612999578081fd5b815180151581146113a1578182fd5b6000602082840312156129b9578081fd5b5035919050565b6000602082840312156129d1578081fd5b5051919050565b600080604083850312156129ea578182fd5b50508035926020909101359150565b60008219821115612a0c57612a0c612aa1565b500190565b600082612a2057612a20612ab7565b500490565b6000816000190483118215151615612a3f57612a3f612aa1565b500290565b600082821015612a5657612a56612aa1565b500390565b600081612a6a57612a6a612aa1565b506000190190565b6000600019821415612a8657612a86612aa1565b5060010190565b600082612a9c57612a9c612ab7565b500690565b634e487b7160e01b600052601160045260246000fd5b634e487b7160e01b600052601260045260246000fdfea26469706673582212205ffa059f8e613077a4955ef50078dde0e4308d8e60d76d1537d1c627eeb436ce64736f6c63430008040033",
  "linkReferences": {},
  "deployedLinkReferences": {}
}