{
  "_format": "hh-sol-artifact-1",
  "contractName": "PolygonBSG",
  "sourceName": "contracts/BSG.sol",
  "abi": [
    {
      "inputs": [
        {
          "internalType": "address",
          "name": "_usdtAddr",
          "type": "address"
        },
        {
          "internalType": "address",
          "name": "_defaultRefer",
          "type": "address"
        },
        {
          "internalType": "address",
          "name": "_insurance",
          "type": "address"
        },
        {
          "internalType": "address[2]",
          "name": "_feeReceivers",
          "type": "address[2]"
        }
      ],
      "stateMutability": "nonpayable",
      "type": "constructor"
    },
    {
      "anonymous": false,
      "inputs": [
        {
          "indexed": false,
          "internalType": "address",
          "name": "user",
          "type": "address"
        },
        {
          "indexed": false,
          "internalType": "uint256",
          "name": "amount",
          "type": "uint256"
        }
      ],
      "name": "Deposit",
      "type": "event"
    },
    {
      "anonymous": false,
      "inputs": [
        {
          "indexed": false,
          "internalType": "address",
          "name": "user",
          "type": "address"
        },
        {
          "indexed": false,
          "internalType": "uint256",
          "name": "amount",
          "type": "uint256"
        }
      ],
      "name": "DepositBySplit",
      "type": "event"
    },
    {
      "anonymous": false,
      "inputs": [
        {
          "indexed": false,
          "internalType": "address",
          "name": "user",
          "type": "address"
        },
        {
          "indexed": false,
          "internalType": "address",
          "name": "referral",
          "type": "address"
        }
      ],
      "name": "Register",
      "type": "event"
    },
    {
      "anonymous": false,
      "inputs": [
        {
          "indexed": false,
          "internalType": "address",
          "name": "user",
          "type": "address"
        },
        {
          "indexed": false,
          "internalType": "address",
          "name": "receiver",
          "type": "address"
        },
        {
          "indexed": false,
          "internalType": "uint256",
          "name": "amount",
          "type": "uint256"
        }
      ],
      "name": "TransferBySplit",
      "type": "event"
    },
    {
      "anonymous": false,
      "inputs": [
        {
          "indexed": false,
          "internalType": "address",
          "name": "user",
          "type": "address"
        },
        {
          "indexed": false,
          "internalType": "uint256",
          "name": "withdrawable",
          "type": "uint256"
        }
      ],
      "name": "Withdraw",
      "type": "event"
    },
    {
      "inputs": [],
      "name": "AllTimeHigh",
      "outputs": [
        {
          "internalType": "uint256",
          "name": "",
          "type": "uint256"
        }
      ],
      "stateMutability": "view",
      "type": "function"
    },
    {
      "inputs": [
        {
          "internalType": "address",
          "name": "_user",
          "type": "address"
        }
      ],
      "name": "_checkClaimable",
      "outputs": [
        {
          "internalType": "bool",
          "name": "",
          "type": "bool"
        },
        {
          "internalType": "uint256",
          "name": "",
          "type": "uint256"
        }
      ],
      "stateMutability": "view",
      "type": "function"
    },
    {
      "inputs": [
        {
          "internalType": "uint256",
          "name": "",
          "type": "uint256"
        }
      ],
      "name": "balStatus",
      "outputs": [
        {
          "internalType": "bool",
          "name": "",
          "type": "bool"
        }
      ],
      "stateMutability": "view",
      "type": "function"
    },
    {
      "inputs": [
        {
          "internalType": "uint256",
          "name": "",
          "type": "uint256"
        }
      ],
      "name": "blueDiamondUsers",
      "outputs": [
        {
          "internalType": "address",
          "name": "",
          "type": "address"
        }
      ],
      "stateMutability": "view",
      "type": "function"
    },
    {
      "inputs": [
        {
          "internalType": "uint256",
          "name": "",
          "type": "uint256"
        }
      ],
      "name": "crownDiamondUsers",
      "outputs": [
        {
          "internalType": "address",
          "name": "",
          "type": "address"
        }
      ],
      "stateMutability": "view",
      "type": "function"
    },
    {
      "inputs": [
        {
          "internalType": "uint256",
          "name": "",
          "type": "uint256"
        },
        {
          "internalType": "uint256",
          "name": "",
          "type": "uint256"
        }
      ],
      "name": "dayMore1kUsers",
      "outputs": [
        {
          "internalType": "address",
          "name": "",
          "type": "address"
        }
      ],
      "stateMutability": "view",
      "type": "function"
    },
    {
      "inputs": [],
      "name": "defaultRefer",
      "outputs": [
        {
          "internalType": "address",
          "name": "",
          "type": "address"
        }
      ],
      "stateMutability": "view",
      "type": "function"
    },
    {
      "inputs": [
        {
          "internalType": "uint256",
          "name": "amount",
          "type": "uint256"
        }
      ],
      "name": "deposit",
      "outputs": [],
      "stateMutability": "nonpayable",
      "type": "function"
    },
    {
      "inputs": [
        {
          "internalType": "uint256",
          "name": "amount",
          "type": "uint256"
        }
      ],
      "name": "depositBySplit",
      "outputs": [],
      "stateMutability": "nonpayable",
      "type": "function"
    },
    {
      "inputs": [
        {
          "internalType": "uint256",
          "name": "",
          "type": "uint256"
        }
      ],
      "name": "depositors",
      "outputs": [
        {
          "internalType": "address",
          "name": "",
          "type": "address"
        }
      ],
      "stateMutability": "view",
      "type": "function"
    },
    {
      "inputs": [],
      "name": "diamondIncomePool",
      "outputs": [
        {
          "internalType": "uint256",
          "name": "",
          "type": "uint256"
        }
      ],
      "stateMutability": "view",
      "type": "function"
    },
    {
      "inputs": [
        {
          "internalType": "uint256",
          "name": "",
          "type": "uint256"
        }
      ],
      "name": "diamondUsers",
      "outputs": [
        {
          "internalType": "address",
          "name": "",
          "type": "address"
        }
      ],
      "stateMutability": "view",
      "type": "function"
    },
    {
      "inputs": [],
      "name": "distributePoolRewards",
      "outputs": [],
      "stateMutability": "nonpayable",
      "type": "function"
    },
    {
      "inputs": [
        {
          "internalType": "uint256",
          "name": "",
          "type": "uint256"
        }
      ],
      "name": "feeReceivers",
      "outputs": [
        {
          "internalType": "address",
          "name": "",
          "type": "address"
        }
      ],
      "stateMutability": "view",
      "type": "function"
    },
    {
      "inputs": [],
      "name": "getCurDay",
      "outputs": [
        {
          "internalType": "uint256",
          "name": "",
          "type": "uint256"
        }
      ],
      "stateMutability": "view",
      "type": "function"
    },
    {
      "inputs": [
        {
          "internalType": "address",
          "name": "_user",
          "type": "address"
        }
      ],
      "name": "getCurSplit",
      "outputs": [
        {
          "internalType": "uint256",
          "name": "",
          "type": "uint256"
        }
      ],
      "stateMutability": "view",
      "type": "function"
    },
    {
      "inputs": [
        {
          "internalType": "uint256",
          "name": "_day",
          "type": "uint256"
        }
      ],
      "name": "getDayMore1kLength",
      "outputs": [
        {
          "internalType": "uint256",
          "name": "",
          "type": "uint256"
        }
      ],
      "stateMutability": "view",
      "type": "function"
    },
    {
      "inputs": [],
      "name": "getDepositorsLength",
      "outputs": [
        {
          "internalType": "uint256",
          "name": "",
          "type": "uint256"
        }
      ],
      "stateMutability": "view",
      "type": "function"
    },
    {
      "inputs": [
        {
          "internalType": "address",
          "name": "_user",
          "type": "address"
        }
      ],
      "name": "getMaxFreezing",
      "outputs": [
        {
          "internalType": "uint256",
          "name": "",
          "type": "uint256"
        }
      ],
      "stateMutability": "view",
      "type": "function"
    },
    {
      "inputs": [
        {
          "internalType": "address",
          "name": "_user",
          "type": "address"
        }
      ],
      "name": "getOrderLength",
      "outputs": [
        {
          "internalType": "uint256",
          "name": "",
          "type": "uint256"
        }
      ],
      "stateMutability": "view",
      "type": "function"
    },
    {
      "inputs": [
        {
          "internalType": "address",
          "name": "_user",
          "type": "address"
        }
      ],
      "name": "getTeamDeposit",
      "outputs": [
        {
          "internalType": "uint256",
          "name": "",
          "type": "uint256"
        }
      ],
      "stateMutability": "view",
      "type": "function"
    },
    {
      "inputs": [
        {
          "internalType": "address",
          "name": "_user",
          "type": "address"
        }
      ],
      "name": "getTeamUsersLength",
      "outputs": [
        {
          "internalType": "uint256",
          "name": "",
          "type": "uint256"
        }
      ],
      "stateMutability": "view",
      "type": "function"
    },
    {
      "inputs": [
        {
          "internalType": "address",
          "name": "_user",
          "type": "address"
        },
        {
          "internalType": "uint256",
          "name": "_layer",
          "type": "uint256"
        }
      ],
      "name": "getTeamUsersLengthwithDepth",
      "outputs": [
        {
          "internalType": "uint256",
          "name": "",
          "type": "uint256"
        }
      ],
      "stateMutability": "view",
      "type": "function"
    },
    {
      "inputs": [],
      "name": "insuranceAccount",
      "outputs": [
        {
          "internalType": "address",
          "name": "",
          "type": "address"
        }
      ],
      "stateMutability": "view",
      "type": "function"
    },
    {
      "inputs": [],
      "name": "insurancePool",
      "outputs": [
        {
          "internalType": "uint256",
          "name": "",
          "type": "uint256"
        }
      ],
      "stateMutability": "view",
      "type": "function"
    },
    {
      "inputs": [],
      "name": "isFreezeReward",
      "outputs": [
        {
          "internalType": "bool",
          "name": "",
          "type": "bool"
        }
      ],
      "stateMutability": "view",
      "type": "function"
    },
    {
      "inputs": [],
      "name": "isStopLoss30ofATH",
      "outputs": [
        {
          "internalType": "bool",
          "name": "",
          "type": "bool"
        }
      ],
      "stateMutability": "view",
      "type": "function"
    },
    {
      "inputs": [],
      "name": "isStopLoss50ofATH",
      "outputs": [
        {
          "internalType": "bool",
          "name": "",
          "type": "bool"
        }
      ],
      "stateMutability": "view",
      "type": "function"
    },
    {
      "inputs": [],
      "name": "lastDistribute",
      "outputs": [
        {
          "internalType": "uint256",
          "name": "",
          "type": "uint256"
        }
      ],
      "stateMutability": "view",
      "type": "function"
    },
    {
      "inputs": [],
      "name": "more1kIncomePool",
      "outputs": [
        {
          "internalType": "uint256",
          "name": "",
          "type": "uint256"
        }
      ],
      "stateMutability": "view",
      "type": "function"
    },
    {
      "inputs": [
        {
          "internalType": "address",
          "name": "",
          "type": "address"
        },
        {
          "internalType": "uint256",
          "name": "",
          "type": "uint256"
        }
      ],
      "name": "orderInfos",
      "outputs": [
        {
          "internalType": "uint256",
          "name": "cycle",
          "type": "uint256"
        },
        {
          "internalType": "uint256",
          "name": "amount",
          "type": "uint256"
        },
        {
          "internalType": "uint256",
          "name": "start",
          "type": "uint256"
        },
        {
          "internalType": "uint256",
          "name": "unfreeze",
          "type": "uint256"
        },
        {
          "internalType": "bool",
          "name": "isClaimed",
          "type": "bool"
        }
      ],
      "stateMutability": "view",
      "type": "function"
    },
    {
      "inputs": [
        {
          "internalType": "address",
          "name": "_referral",
          "type": "address"
        }
      ],
      "name": "register",
      "outputs": [],
      "stateMutability": "nonpayable",
      "type": "function"
    },
    {
      "inputs": [
        {
          "internalType": "address",
          "name": "",
          "type": "address"
        }
      ],
      "name": "rewardInfo",
      "outputs": [
        {
          "internalType": "uint256",
          "name": "capitals",
          "type": "uint256"
        },
        {
          "internalType": "uint256",
          "name": "statics",
          "type": "uint256"
        },
        {
          "internalType": "uint256",
          "name": "directs",
          "type": "uint256"
        },
        {
          "internalType": "uint256",
          "name": "levelReleased",
          "type": "uint256"
        },
        {
          "internalType": "uint256",
          "name": "infinityBonusReleased",
          "type": "uint256"
        },
        {
          "internalType": "uint256",
          "name": "cycleNumber",
          "type": "uint256"
        },
        {
          "internalType": "uint256",
          "name": "more1k",
          "type": "uint256"
        },
        {
          "internalType": "uint256",
          "name": "split",
          "type": "uint256"
        },
        {
          "internalType": "uint256",
          "name": "splitDebt",
          "type": "uint256"
        }
      ],
      "stateMutability": "view",
      "type": "function"
    },
    {
      "inputs": [],
      "name": "startTime",
      "outputs": [
        {
          "internalType": "uint256",
          "name": "",
          "type": "uint256"
        }
      ],
      "stateMutability": "view",
      "type": "function"
    },
    {
      "inputs": [
        {
          "internalType": "address",
          "name": "",
          "type": "address"
        },
        {
          "internalType": "uint256",
          "name": "",
          "type": "uint256"
        },
        {
          "internalType": "uint256",
          "name": "",
          "type": "uint256"
        }
      ],
      "name": "teamUsers",
      "outputs": [
        {
          "internalType": "address",
          "name": "",
          "type": "address"
        }
      ],
      "stateMutability": "view",
      "type": "function"
    },
    {
      "inputs": [],
      "name": "totalUser",
      "outputs": [
        {
          "internalType": "uint256",
          "name": "",
          "type": "uint256"
        }
      ],
      "stateMutability": "view",
      "type": "function"
    },
    {
      "inputs": [
        {
          "internalType": "address",
          "name": "_receiver",
          "type": "address"
        },
        {
          "internalType": "uint256",
          "name": "_amount",
          "type": "uint256"
        }
      ],
      "name": "transferBySplit",
      "outputs": [],
      "stateMutability": "nonpayable",
      "type": "function"
    },
    {
      "inputs": [],
      "name": "usdt",
      "outputs": [
        {
          "internalType": "contract IERC20",
          "name": "",
          "type": "address"
        }
      ],
      "stateMutability": "view",
      "type": "function"
    },
    {
      "inputs": [
        {
          "internalType": "address",
          "name": "",
          "type": "address"
        }
      ],
      "name": "userInfo",
      "outputs": [
        {
          "internalType": "address",
          "name": "referrer",
          "type": "address"
        },
        {
          "internalType": "uint256",
          "name": "start",
          "type": "uint256"
        },
        {
          "internalType": "uint256",
          "name": "level",
          "type": "uint256"
        },
        {
          "internalType": "uint256",
          "name": "maxDeposit",
          "type": "uint256"
        },
        {
          "internalType": "uint256",
          "name": "totalDeposit",
          "type": "uint256"
        },
        {
          "internalType": "uint256",
          "name": "teamNum",
          "type": "uint256"
        },
        {
          "internalType": "uint256",
          "name": "teamTotalDeposit",
          "type": "uint256"
        },
        {
          "internalType": "uint256",
          "name": "teamTotalVolume",
          "type": "uint256"
        },
        {
          "internalType": "uint256",
          "name": "totalFreezed",
          "type": "uint256"
        },
        {
          "internalType": "uint256",
          "name": "totalRevenue",
          "type": "uint256"
        },
        {
          "internalType": "uint256",
          "name": "membership",
          "type": "uint256"
        },
        {
          "internalType": "uint256",
          "name": "directBonusCount",
          "type": "uint256"
        }
      ],
      "stateMutability": "view",
      "type": "function"
    },
    {
      "inputs": [],
      "name": "withdraw",
      "outputs": [],
      "stateMutability": "nonpayable",
      "type": "function"
    }
  ],
  "bytecode": "0x6102206040526101f46080908152606460a081905260c860c081905260e0829052610100526101208190526101408190526101608190526101808190526101a05260326101c08190526101e0526000610200526200006290600190600d62000132565b50604080516060810182526113888152611b586020820152612af8918101919091526200009490600290600362000188565b50601c805462ffffff19169055348015620000ae57600080fd5b5060405162002d8b38038062002d8b833981016040819052620000d1916200023d565b600080546001600160a01b038087166001600160a01b031992831617909255600b8054868416908316179055600a8054928516929091169190911790556200011d6008826002620001be565b505042600c819055600d55506200031d915050565b82805482825590600052602060002090810192821562000176579160200282015b8281111562000176578251829061ffff1690559160200191906001019062000153565b506200018492915062000209565b5090565b826005810192821562000176579160200282018281111562000176578251829061ffff1690559160200191906001019062000153565b826002810192821562000176579160200282015b828111156200017657825182546001600160a01b0319166001600160a01b03909116178255602090920191600190910190620001d2565b5b808211156200018457600081556001016200020a565b80516001600160a01b03811681146200023857600080fd5b919050565b60008060008060a0858703121562000253578384fd5b6200025e8562000220565b935060206200026f81870162000220565b93506200027f6040870162000220565b925086607f87011262000290578182fd5b604080519081016001600160401b0381118282101715620002b557620002b562000307565b604052806060880160a089018a1015620002cd578485fd5b845b6002811015620002f757620002e48262000220565b83529184019190840190600101620002cf565b5096999598509396509450505050565b634e487b7160e01b600052604160045260246000fd5b612a5e806200032d6000396000f3fe608060405234801561001057600080fd5b50600436106102475760003560e01c8063732cef431161013b578063b6b55f25116100b8578063e1604b701161007c578063e1604b70146106da578063e28aa97a146106e3578063e402a071146106f6578063e4b2fb7914610709578063fda92ce51461071c57600080fd5b8063b6b55f25146105d8578063c511b345146105eb578063cbecf6b5146105fe578063cc38c8a01461069e578063de6b8a2e146106b157600080fd5b80638b5a432a116100ff5780638b5a432a1461053a578063991e76681461054d578063aa0204f914610579578063ab2adc0014610599578063ae97397e146105a257600080fd5b8063732cef43146104bc57806373cb4d05146104df5780637647e0ff146104f257806378e979251461051e57806385a6327c1461052757600080fd5b806341e8a718116101c95780635b3817601161018d5780635b3817601461044457806360a1cbd7146104575780636f0110d31461049457806370abe5fe146104a157806371a6b69d146104a957600080fd5b806341e8a718146103fa5780634420e4861461040357806347d67339146104165780634c809c661461041f5780634e5068311461043257600080fd5b80632f48ab7d116102105780632f48ab7d146103975780632fea20f6146103c257806330538c32146103ca5780633955782b146103dd5780633ccfd60b146103f057600080fd5b8062a7a56e1461024c578063069570e2146102675780631959a002146102705780632489a2231461034a5780632c45ab541461036d575b600080fd5b610254610725565b6040519081526020015b60405180910390f35b61025460125481565b6102e761027e36600461286e565b601960205260009081526040902080546001820154600283015460038401546004850154600586015460068701546007880154600889015460098a0154600a8b0154600b909b01546001600160a01b03909a169a9899979896979596949593949293919290918c565b604080516001600160a01b03909d168d5260208d019b909b52998b019890985260608a0196909652608089019490945260a088019290925260c087015260e08601526101008501526101208401526101408301526101608201526101800161025e565b601c5461035d9062010000900460ff1681565b604051901515815260200161025e565b61038061037b36600461286e565b61074c565b60408051921515835260208301919091520161025e565b6000546103aa906001600160a01b031681565b6040516001600160a01b03909116815260200161025e565b601854610254565b6103aa6103d8366004612903565b61080d565b6103aa6103eb366004612903565b610837565b6103f8610847565b005b61025460105481565b6103f861041136600461286e565b610b6e565b610254600d5481565b61025461042d36600461286e565b610cdd565b601c5461035d90610100900460ff1681565b6103aa610452366004612903565b610d41565b61046a610465366004612888565b610d61565b6040805195865260208601949094529284019190915260608301521515608082015260a00161025e565b601c5461035d9060ff1681565b6103f8610db2565b6103f86104b7366004612888565b610dd9565b61035d6104ca366004612903565b60076020526000908152604090205460ff1681565b6103aa6104ed3660046128b1565b610f31565b61025461050036600461286e565b6001600160a01b031660009081526019602052604090206006015490565b610254600c5481565b600b546103aa906001600160a01b031681565b6103aa610548366004612933565b610f76565b61025461055b36600461286e565b6001600160a01b031660009081526019602052604090206005015490565b610254610587366004612903565b60009081526013602052604090205490565b610254600f5481565b6102546105b0366004612888565b6001600160a01b03919091166000908152601a60209081526040808320938352929052205490565b6103f86105e6366004612903565b610fae565b6103f86105f9366004612903565b611090565b61065a61060c36600461286e565b601b6020528060005260406000206000915090508060000154908060010154908060020154908060030154908060040154908060050154908060060154908060070154908060080154905089565b60408051998a5260208a0198909852968801959095526060870193909352608086019190915260a085015260c084015260e08301526101008201526101200161025e565b600a546103aa906001600160a01b031681565b6102546106bf36600461286e565b6001600160a01b031660009081526017602052604090205490565b610254600e5481565b6103aa6106f1366004612903565b611217565b61025461070436600461286e565b611227565b6103aa610717366004612903565b6112df565b61025460115481565b6000610747603c610741600c54426112ef90919063ffffffff16565b90611302565b905090565b6001600160a01b0381166000908152601760205260408120805482919082906107779060019061299f565b90505b600082828154811061079c57634e487b7160e01b600052603260045260246000fd5b600091825260208083206001600160a01b038a168452601b9091526040909220600590810154910290910191506107d49060016112ef565b8154118015906107e8575080600301544210155b156107fa575060019590945092505050565b5080610805816129b6565b91505061077a565b6016818154811061081d57600080fd5b6000918252602090912001546001600160a01b0316905081565b6015818154811061081d57600080fd5b336000908152601b602090815260408083206017909252822060058201549192914291906108769060026112ef565b8154811061089457634e487b7160e01b600052603260045260246000fd5b9060005260206000209060050201600301541080156108b35750815415155b90506001811515146109325760405162461bcd60e51b815260206004820152603760248201527f43616e7420636c61696d2c20506c6561736520636865636b207374616b65206460448201527f61746520616e64206465706f736974207374617475732100000000000000000060648201526084015b60405180910390fd5b61093a610db2565b6000806109463361130e565b909250905080826000806109593361138d565b9092509050610968838361141d565b9250610974848261141d565b3360009081526019602052604090206009810154919550906109a290869061099c908761141d565b9061141d565b60098201556109bf6109b4858761141d565b6008830154906112ef565b600882015560078901546109d3908661141d565b60078a0155600060018a0181905560028a0181905560038a0181905560048a0181905560068a01558854610a0890859061141d565b9350610a18338a60000154611429565b6000808a555460405163a9059cbb60e01b8152336004820152602481018690526001600160a01b039091169063a9059cbb90604401602060405180830381600087803b158015610a6757600080fd5b505af1158015610a7b573d6000803e3d6000fd5b505050506040513d601f19601f82011682018060405250810190610a9f91906128e3565b50600080546040516370a0823160e01b81523060048201526001600160a01b03909116906370a082319060240160206040518083038186803b158015610ae457600080fd5b505afa158015610af8573d6000803e3d6000fd5b505050506040513d601f19601f82011682018060405250810190610b1c919061291b565b9050610b298160006114fa565b60408051338152602081018790527f884edad9ce6fa2440d8a54cc123490eb96d2768479d49ff9c7366125a9424364910160405180910390a150505050505050505050565b6001600160a01b038116600090815260196020526040902060040154151580610ba45750600b546001600160a01b038281169116145b610be05760405162461bcd60e51b815260206004820152600d60248201526c34b73b30b634b2103932b332b960991b6044820152606401610929565b33600090815260196020526040902080546001600160a01b031615610c395760405162461bcd60e51b815260206004820152600f60248201526e1c9959995c9c995c88189bdb991959608a1b6044820152606401610929565b80546001600160a01b0319166001600160a01b03831690811782554260018301556000818152601960205260409020903314610c85576005810154610c7f90600161141d565b60058201555b600e54610c9390600161141d565b600e55604080513381526001600160a01b03851660208201527f98ada70a1cb506dc4591465e1ee9be3fd7a2b6c73ecf3b949009718c9a35151991015b60405180910390a1505050565b600080610ce98361130e565b9150506000610cf78461138d565b6001600160a01b0386166000908152601b602052604090206008810154600790910154919350610d39925090610d3390849061099c908761141d565b906112ef565b949350505050565b60088160028110610d5157600080fd5b01546001600160a01b0316905081565b60176020528160005260406000208181548110610d7d57600080fd5b600091825260209091206005909102018054600182015460028301546003840154600490940154929550909350919060ff1685565b600d54610dc090603c61141d565b421115610dd75742610dd1816115d2565b5042600d555b565b6305f5e1008110158015610df85750610df6816305f5e1006116dd565b155b610e315760405162461bcd60e51b815260206004820152600a60248201526930b6b7bab73a1032b93960b11b6044820152606401610929565b6000610e3c33610cdd565b905081811015610e845760405162461bcd60e51b8152602060048201526013602482015272696e73756666696369656e7420696e636f6d6560681b6044820152606401610929565b336000908152601b6020526040902060080154610ea1908361141d565b336000908152601b6020526040808220600801929092556001600160a01b03851681522060070154610ed3908361141d565b6001600160a01b0384166000818152601b60209081526040918290206007019390935580513381529283019190915281018390527f6793236d14c3b3aa080156a78046b313bd7fc5dee636846f4254fa3506c81faa90606001610cd0565b601a6020528260005260406000206020528160005260406000208181548110610f5957600080fd5b6000918252602090912001546001600160a01b0316925083915050565b60136020528160005260406000208181548110610f9257600080fd5b6000918252602090912001546001600160a01b03169150829050565b6000610fbd82620f42406116e9565b6000546040516323b872dd60e01b8152336004820152306024820152604481018390529192506001600160a01b0316906323b872dd90606401602060405180830381600087803b15801561101057600080fd5b505af1158015611024573d6000803e3d6000fd5b505050506040513d601f19601f8201168201806040525081019061104891906128e3565b5061105333826116f5565b60408051338152602081018390527fe1fffcc4923d04b559f4d29a8bfc6cda04eb5b0d3c460751c2402c5c5cc9109c910160405180910390a15050565b600061109f82620f42406116e9565b90506305f5e10081101580156110c057506110be816305f5e1006116dd565b155b6110f95760405162461bcd60e51b815260206004820152600a60248201526930b6b7bab73a1032b93960b11b6044820152606401610929565b33600090815260196020526040902060040154156111435760405162461bcd60e51b81526020600482015260076024820152661858dd1a5d995960ca1b6044820152606401610929565b600061114e33610cdd565b9050818110156111955760405162461bcd60e51b81526020600482015260126024820152711a5b9cdd59999a58da595b9d081cdc1b1a5d60721b6044820152606401610929565b6111c16111a8606461074185601e6116e9565b336000908152601b6020526040902060080154906112ef565b336000818152601b60205260409020600801919091556111e190836116f5565b60408051338152602081018490527f29e90a65bdaddba77321b34070d4cd09a4d33ccf332d7760c852917757eed3cb9101610cd0565b6014818154811061081d57600080fd5b6001600160a01b03811660009081526017602052604081205481905b80156112d8576001600160a01b038416600090815260176020526040812061126c60018461299f565b8154811061128a57634e487b7160e01b600052603260045260246000fd5b9060005260206000209060050201905042816003015411156112bf5782816001015411156112ba57806001015492505b6112c5565b506112d8565b50806112d0816129b6565b915050611243565b5092915050565b6018818154811061081d57600080fd5b60006112fb828461299f565b9392505050565b60006112fb828461296c565b6001600160a01b0381166000908152601b60209081526040808320601990925282206001820154600a8201548493929190849061135e57611357612710610741846107d06116e9565b9050611373565b61137061271061074184610bb86116e9565b90505b600061137f83836112ef565b989197509095505050505050565b6001600160a01b0381166000908152601b6020908152604080832060199092528220600382015460028301548493929184916113c89161141d565b90506113e183600601548261141d90919063ffffffff16565b90506113fa83600401548261141d90919063ffffffff16565b9050600082600a01546000141561135e57611357612710610741846107d06116e9565b60006112fb8284612954565b6001600160a01b038083166000908152601960205260409020805490911680158015906114685750836001600160a01b0316816001600160a01b031614155b156114f4576001600160a01b0381166000908152601960205260409020600601548310156114d7576001600160a01b0381166000908152601960205260409020600601546114b690846112ef565b6001600160a01b0382166000908152601960205260409020600601556114f4565b6001600160a01b0381166000908152601960205260408120600601555b50505050565b80156115795760055b80156115745760076000600261151a60018561299f565b6005811061153857634e487b7160e01b600052603260045260246000fd5b0154815260208101919091526040016000205460ff161561156257601c805460ff19169055505050565b8061156c816129b6565b915050611503565b505050565b60055b8015611574576115a061271061074161159782610bb86112ef565b601254906116e9565b8310156115bc57601c805460ff19166001179055611574611be6565b806115c6816129b6565b91505061157c565b5050565b60006013816115e260018561299f565b8152602081019190915260400160002054905080156115ce57805b80156116d357600060138161161360018761299f565b815260200190815260200160002060018361162e919061299f565b8154811061164c57634e487b7160e01b600052603260045260246000fd5b6000918252602090912001546001600160a01b0316905080156116c0576011546000906116799085611302565b6001600160a01b0383166000908152601b60205260409020600601549091506116a2908261141d565b6001600160a01b0383166000908152601b6020526040902060060155505b50806116cb816129b6565b9150506115fd565b5060006011555050565b60006112fb82846129e8565b60006112fb8284612980565b6001600160a01b038083166000908152601960205260409020805490911661176b5760405162461bcd60e51b8152602060048201526024808201527f7265676973746572206669727374207769746820726566657272616c206164646044820152637265737360e01b6064820152608401610929565b6305f5e1008210156117bf5760405162461bcd60e51b815260206004820152601b60248201527f73686f756c64206265206d6f7265207468616e206d696e2031303000000000006044820152606401610929565b639502f9008211156118135760405162461bcd60e51b815260206004820152601c60248201527f73686f756c64206265206c657373207468616e206d696e2032353030000000006044820152606401610929565b611821826305f5e1006116dd565b1561186e5760405162461bcd60e51b815260206004820181905260248201527f616d6f756e742073686f756c64206265206d756c7469706c65206f66203130306044820152606401610929565b60038101541580611883575080600301548210155b6118ea5760405162461bcd60e51b815260206004820152603260248201527f6e657874206465706f7369742073686f756c6420626520657175616c206f72206044820152716d6f7265207468616e2070726576696f757360701b6064820152608401610929565b60038101546118ff5760038101829055611913565b818160030154101561191357600381018290555b61191c82611d05565b60048101541580156119325750633b9aca008210155b1561197a576000611941610725565b60009081526013602090815260408220805460018101825590835291200180546001600160a01b0319166001600160a01b038616179055505b601880546001810182556000919091527fb13d2d76d1f4b7be834882e410b3e3a8afaf69f83600ae24db354391d2378d2e0180546001600160a01b0319166001600160a01b03851617905560048101546119d4908361141d565b600482015560088101546119e8908361141d565b60088201556119f683611f59565b6001600160a01b0383166000908152601b6020526040902060058101546032908111611a2e57611a2781603c6116e9565b9050611a41565b6005820154611a3e90603c6116e9565b90505b6000611a528261099c42603c61141d565b6001600160a01b0387166000908152601760209081526040808320815160a0810183526005898101805483528286018d8152429584019586526060840189815260808501898152865460018082018955978b5298909920945197909302909301958655915185840155925160028501559151600384015592516004909201805460ff19169215159290921790915554919250611aee919061141d565b6005840155611afd86866120b9565b611b05610db2565b611b0f86866122fb565b611b1986866123b8565b611b2386866124f8565b600080546040516370a0823160e01b81523060048201526001600160a01b03909116906370a082319060240160206040518083038186803b158015611b6757600080fd5b505afa158015611b7b573d6000803e3d6000fd5b505050506040513d601f19601f82011682018060405250810190611b9f919061291b565b9050611baa8161274c565b601c5460ff1615611bcd57611bbd611be6565b611bc88160016114fa565b611bdd565b806012541015611bdd5760128190555b50505050505050565b600054600a54604051636eb1769f60e11b81526001600160a01b0391821660048201819052306024830181905292909316926323b872dd929091849063dd62ed3e9060440160206040518083038186803b158015611c4357600080fd5b505afa158015611c57573d6000803e3d6000fd5b505050506040513d601f19601f82011682018060405250810190611c7b919061291b565b6040516001600160e01b031960e086901b1681526001600160a01b0393841660048201529290911660248301526044820152606401602060405180830381600087803b158015611cca57600080fd5b505af1158015611cde573d6000803e3d6000fd5b505050506040513d601f19601f82011682018060405250810190611d0291906128e3565b50565b6000611d186127106107418460c86116e9565b6000546008549192506001600160a01b039081169163a9059cbb9116611d3f846002611302565b6040516001600160e01b031960e085901b1681526001600160a01b0390921660048301526024820152604401602060405180830381600087803b158015611d8557600080fd5b505af1158015611d99573d6000803e3d6000fd5b505050506040513d601f19601f82011682018060405250810190611dbd91906128e3565b506000546001600160a01b031663a9059cbb6008600101546001600160a01b0316611de9846002611302565b6040516001600160e01b031960e085901b1681526001600160a01b0390921660048301526024820152604401602060405180830381600087803b158015611e2f57600080fd5b505af1158015611e43573d6000803e3d6000fd5b505050506040513d601f19601f82011682018060405250810190611e6791906128e3565b506000611e7b6127106107418560326116e9565b600054600a5460405163a9059cbb60e01b81526001600160a01b03918216600482015260248101849052929350169063a9059cbb90604401602060405180830381600087803b158015611ecd57600080fd5b505af1158015611ee1573d6000803e3d6000fd5b505050506040513d601f19601f82011682018060405250810190611f0591906128e3565b506000611f196127106107418660326116e9565b601054909150611f29908261141d565b6010556000611f3f6127106107418760326116e9565b601154909150611f4f908261141d565b6011555050505050565b6001600160a01b03811660009081526019602052604090206005810154600211801590611f9957506003810154611f919060026116e9565b816006015410155b156120ae57639502f900816003015410158015611fbb5750600f816005015410155b8015611fd0575064037e11d600816006015410155b8015611fe5575064746a528800816007015410155b15611ff5576004600a8201555050565b639502f9008160030154101580156120125750600a816005015410155b801561202757506402540be400816006015410155b801561203c575064174876e800816007015410155b1561204c576003600a8201555050565b633b9aca0081600301541015801561206957506005816005015410155b801561207e57506402540be400816006015410155b8015612093575064174876e800816007015410155b156120a3576002600a8201555050565b6001600a8201555050565b6000600a8201555050565b6001600160a01b0382166000908152601960205260408120905b6001600160a01b0384166000908152601760205260409020548110156114f4576001600160a01b038416600090815260176020526040812080548390811061212b57634e487b7160e01b600052603260045260246000fd5b906000526020600020906005020190508060030154421180156121535750600481015460ff16155b801561218557506001600160a01b0385166000908152601b60205260409020600501546121819060016112ef565b8154105b156122e857601c54600090610100900460ff16806121ab5750601c5462010000900460ff165b156121b8575060006122d7565b60028460050154101580156121ef57506121e7612710610741614e2085600101546116e990919063ffffffff16565b846006015410155b1561221a576122136127106107416107d085600101546116e990919063ffffffff16565b905061223c565b6122396127106107416105dc85600101546116e990919063ffffffff16565b90505b61225b612710610741614e2085600101546116e990919063ffffffff16565b8460090154111561226a575060005b60018201546001600160a01b0387166000908152601b60205260409020546122919161141d565b6001600160a01b0387166000908152601b60205260409020908155600101546122ba908261141d565b6001600160a01b0387166000908152601b60205260409020600101555b5060048101805460ff191660011790555b50806122f3816129cd565b9150506120d3565b6001600160a01b0380831660009081526019602052604090208054909116801580159061233a5750806001600160a01b0316846001600160a01b031614155b156114f4576001600160a01b038116600090815260196020526040902060060154612365908461141d565b6001600160a01b0382166000908152601960205260409020600681019190915560070154612393908461141d565b6001600160a01b0382166000908152601960205260409020600701556114f481611f59565b6001600160a01b038083166000908152601960205260409020805490911680156114f45760005b600c8110156124f1576001600160a01b038216158015906124125750846001600160a01b0316826001600160a01b031614155b156124da57600061245d6127106107416001858154811061244357634e487b7160e01b600052603260045260246000fd5b9060005260206000200154886116e990919063ffffffff16565b6001600160a01b0384166000908152601b6020526040902060030154909150612486908261141d565b6001600160a01b038085166000818152601b6020526040902060030192909255600b541614156124b657506124f1565b506001600160a01b03918216600090815260196020526040902054909116906124df565b6124f1565b806124e9816129cd565b9150506123df565b5050505050565b6001600160a01b038083166000908152601960205260409020805490911680156114f4576001600160a01b0381166000908152601b602090815260408083206019909252909120600a0154600214156125835761257961256e612710610741818161044c6125688b6101906116e9565b906116e9565b60048301549061141d565b600482015561266e565b6001600160a01b0382166000908152601960205260409020600a01546003141561266e576125d763017d7840610d336125cc61271061074181816106a46125688d6101906116e9565b60048501549061141d565b600482810191909155600054600a5460405163a9059cbb60e01b81526001600160a01b039182169381019390935263017d78406024840152169063a9059cbb90604401602060405180830381600087803b15801561263457600080fd5b505af1158015612648573d6000803e3d6000fd5b505050506040513d601f19601f8201168201806040525081019061266c91906128e3565b505b6001600160a01b0382166000908152601960205260409020600a0154600414156124f1576126af6302faf080610d336125cc612710610741896101906116e9565b600482810191909155600054600a5460405163a9059cbb60e01b81526001600160a01b03918216938101939093526302faf0806024840152169063a9059cbb90604401602060405180830381600087803b15801561270c57600080fd5b505af1158015612720573d6000803e3d6000fd5b505050506040513d601f19601f8201168201806040525081019061274491906128e3565b505050505050565b60055b80156115ce57612794612710610741600261276b60018661299f565b6005811061278957634e487b7160e01b600052603260045260246000fd5b0154601254906116e9565b82106127ef5760016007600060026127ac848661299f565b600581106127ca57634e487b7160e01b600052603260045260246000fd5b015481526020810191909152604001600020805460ff19169115159190911790555050565b6000600781600261280160018661299f565b6005811061281f57634e487b7160e01b600052603260045260246000fd5b015481526020810191909152604001600020805460ff19169115159190911790558061284a816129b6565b91505061274f565b80356001600160a01b038116811461286957600080fd5b919050565b60006020828403121561287f578081fd5b6112fb82612852565b6000806040838503121561289a578081fd5b6128a383612852565b946020939093013593505050565b6000806000606084860312156128c5578081fd5b6128ce84612852565b95602085013595506040909401359392505050565b6000602082840312156128f4578081fd5b815180151581146112fb578182fd5b600060208284031215612914578081fd5b5035919050565b60006020828403121561292c578081fd5b5051919050565b60008060408385031215612945578182fd5b50508035926020909101359150565b60008219821115612967576129676129fc565b500190565b60008261297b5761297b612a12565b500490565b600081600019048311821515161561299a5761299a6129fc565b500290565b6000828210156129b1576129b16129fc565b500390565b6000816129c5576129c56129fc565b506000190190565b60006000198214156129e1576129e16129fc565b5060010190565b6000826129f7576129f7612a12565b500690565b634e487b7160e01b600052601160045260246000fd5b634e487b7160e01b600052601260045260246000fdfea264697066735822122028ecff84362bea765181c22646b578f0e9487eefa331a47f4e82a0cdc2680dea64736f6c63430008040033",
  "linkReferences": {},
  "deployedLinkReferences": {}
}