{
  "_format": "hh-sol-artifact-1",
  "contractName": "PolygonBSG",
  "sourceName": "contracts/BSG.sol",
  "abi": [
    {
      "inputs": [
        {
          "internalType": "address",
          "name": "_usdtAddr",
          "type": "address"
        },
        {
          "internalType": "address",
          "name": "_defaultRefer",
          "type": "address"
        },
        {
          "internalType": "address",
          "name": "_insurance",
          "type": "address"
        },
        {
          "internalType": "address[2]",
          "name": "_feeReceivers",
          "type": "address[2]"
        }
      ],
      "stateMutability": "nonpayable",
      "type": "constructor"
    },
    {
      "anonymous": false,
      "inputs": [
        {
          "indexed": false,
          "internalType": "address",
          "name": "user",
          "type": "address"
        },
        {
          "indexed": false,
          "internalType": "uint256",
          "name": "amount",
          "type": "uint256"
        }
      ],
      "name": "Deposit",
      "type": "event"
    },
    {
      "anonymous": false,
      "inputs": [
        {
          "indexed": false,
          "internalType": "address",
          "name": "user",
          "type": "address"
        },
        {
          "indexed": false,
          "internalType": "uint256",
          "name": "amount",
          "type": "uint256"
        }
      ],
      "name": "DepositBylockusdt",
      "type": "event"
    },
    {
      "anonymous": false,
      "inputs": [
        {
          "indexed": false,
          "internalType": "address",
          "name": "user",
          "type": "address"
        },
        {
          "indexed": false,
          "internalType": "address",
          "name": "referral",
          "type": "address"
        }
      ],
      "name": "Register",
      "type": "event"
    },
    {
      "anonymous": false,
      "inputs": [
        {
          "indexed": false,
          "internalType": "address",
          "name": "user",
          "type": "address"
        },
        {
          "indexed": false,
          "internalType": "address",
          "name": "receiver",
          "type": "address"
        },
        {
          "indexed": false,
          "internalType": "uint256",
          "name": "amount",
          "type": "uint256"
        }
      ],
      "name": "TransferBylockusdt",
      "type": "event"
    },
    {
      "anonymous": false,
      "inputs": [
        {
          "indexed": false,
          "internalType": "address",
          "name": "user",
          "type": "address"
        },
        {
          "indexed": false,
          "internalType": "uint256",
          "name": "withdrawable",
          "type": "uint256"
        }
      ],
      "name": "Withdraw",
      "type": "event"
    },
    {
      "inputs": [],
      "name": "AllTimeHigh",
      "outputs": [
        {
          "internalType": "uint256",
          "name": "",
          "type": "uint256"
        }
      ],
      "stateMutability": "view",
      "type": "function"
    },
    {
      "inputs": [
        {
          "internalType": "address",
          "name": "_user",
          "type": "address"
        }
      ],
      "name": "_calCurDynamicRewards",
      "outputs": [
        {
          "internalType": "uint256",
          "name": "",
          "type": "uint256"
        },
        {
          "internalType": "uint256",
          "name": "",
          "type": "uint256"
        }
      ],
      "stateMutability": "view",
      "type": "function"
    },
    {
      "inputs": [
        {
          "internalType": "address",
          "name": "_user",
          "type": "address"
        }
      ],
      "name": "_calCurStaticRewards",
      "outputs": [
        {
          "internalType": "uint256",
          "name": "",
          "type": "uint256"
        },
        {
          "internalType": "uint256",
          "name": "",
          "type": "uint256"
        }
      ],
      "stateMutability": "view",
      "type": "function"
    },
    {
      "inputs": [
        {
          "internalType": "address",
          "name": "_user",
          "type": "address"
        }
      ],
      "name": "_checkClaimable",
      "outputs": [
        {
          "internalType": "bool",
          "name": "",
          "type": "bool"
        }
      ],
      "stateMutability": "view",
      "type": "function"
    },
    {
      "inputs": [
        {
          "internalType": "address",
          "name": "_user",
          "type": "address"
        }
      ],
      "name": "_checkRegistered",
      "outputs": [
        {
          "internalType": "bool",
          "name": "",
          "type": "bool"
        }
      ],
      "stateMutability": "view",
      "type": "function"
    },
    {
      "inputs": [],
      "name": "_myinsurance",
      "outputs": [
        {
          "internalType": "contract Insurance",
          "name": "",
          "type": "address"
        }
      ],
      "stateMutability": "view",
      "type": "function"
    },
    {
      "inputs": [
        {
          "internalType": "uint256",
          "name": "",
          "type": "uint256"
        }
      ],
      "name": "balStatus",
      "outputs": [
        {
          "internalType": "bool",
          "name": "",
          "type": "bool"
        }
      ],
      "stateMutability": "view",
      "type": "function"
    },
    {
      "inputs": [
        {
          "internalType": "uint256",
          "name": "",
          "type": "uint256"
        }
      ],
      "name": "blueDiamondUsers",
      "outputs": [
        {
          "internalType": "address",
          "name": "",
          "type": "address"
        }
      ],
      "stateMutability": "view",
      "type": "function"
    },
    {
      "inputs": [],
      "name": "boosterIncomePool",
      "outputs": [
        {
          "internalType": "uint256",
          "name": "",
          "type": "uint256"
        }
      ],
      "stateMutability": "view",
      "type": "function"
    },
    {
      "inputs": [
        {
          "internalType": "address",
          "name": "_user",
          "type": "address"
        }
      ],
      "name": "checkBlueDiamondClaimCount",
      "outputs": [
        {
          "internalType": "uint256",
          "name": "",
          "type": "uint256"
        }
      ],
      "stateMutability": "view",
      "type": "function"
    },
    {
      "inputs": [
        {
          "internalType": "address",
          "name": "_user",
          "type": "address"
        }
      ],
      "name": "checkCrownDiamondClaimCount",
      "outputs": [
        {
          "internalType": "uint256",
          "name": "",
          "type": "uint256"
        }
      ],
      "stateMutability": "view",
      "type": "function"
    },
    {
      "inputs": [
        {
          "internalType": "address",
          "name": "_user",
          "type": "address"
        }
      ],
      "name": "checkDiamondMembership",
      "outputs": [
        {
          "internalType": "uint256",
          "name": "",
          "type": "uint256"
        }
      ],
      "stateMutability": "view",
      "type": "function"
    },
    {
      "inputs": [
        {
          "internalType": "uint256",
          "name": "",
          "type": "uint256"
        }
      ],
      "name": "crownDiamondUsers",
      "outputs": [
        {
          "internalType": "address",
          "name": "",
          "type": "address"
        }
      ],
      "stateMutability": "view",
      "type": "function"
    },
    {
      "inputs": [
        {
          "internalType": "uint256",
          "name": "",
          "type": "uint256"
        },
        {
          "internalType": "uint256",
          "name": "",
          "type": "uint256"
        }
      ],
      "name": "dayMore1kUsers",
      "outputs": [
        {
          "internalType": "address",
          "name": "",
          "type": "address"
        }
      ],
      "stateMutability": "view",
      "type": "function"
    },
    {
      "inputs": [],
      "name": "defaultRefer",
      "outputs": [
        {
          "internalType": "address",
          "name": "",
          "type": "address"
        }
      ],
      "stateMutability": "view",
      "type": "function"
    },
    {
      "inputs": [
        {
          "internalType": "uint256",
          "name": "amount",
          "type": "uint256"
        }
      ],
      "name": "deposit",
      "outputs": [],
      "stateMutability": "nonpayable",
      "type": "function"
    },
    {
      "inputs": [
        {
          "internalType": "uint256",
          "name": "amount",
          "type": "uint256"
        }
      ],
      "name": "depositBylockusdt",
      "outputs": [],
      "stateMutability": "nonpayable",
      "type": "function"
    },
    {
      "inputs": [
        {
          "internalType": "uint256",
          "name": "",
          "type": "uint256"
        }
      ],
      "name": "depositors",
      "outputs": [
        {
          "internalType": "address",
          "name": "",
          "type": "address"
        }
      ],
      "stateMutability": "view",
      "type": "function"
    },
    {
      "inputs": [],
      "name": "diamondIncomePool",
      "outputs": [
        {
          "internalType": "uint256",
          "name": "",
          "type": "uint256"
        }
      ],
      "stateMutability": "view",
      "type": "function"
    },
    {
      "inputs": [
        {
          "internalType": "uint256",
          "name": "",
          "type": "uint256"
        }
      ],
      "name": "diamondUsers",
      "outputs": [
        {
          "internalType": "address",
          "name": "",
          "type": "address"
        }
      ],
      "stateMutability": "view",
      "type": "function"
    },
    {
      "inputs": [],
      "name": "distributePoolRewards",
      "outputs": [],
      "stateMutability": "nonpayable",
      "type": "function"
    },
    {
      "inputs": [
        {
          "internalType": "uint256",
          "name": "",
          "type": "uint256"
        }
      ],
      "name": "feeReceivers",
      "outputs": [
        {
          "internalType": "address",
          "name": "",
          "type": "address"
        }
      ],
      "stateMutability": "view",
      "type": "function"
    },
    {
      "inputs": [
        {
          "internalType": "address",
          "name": "_user",
          "type": "address"
        }
      ],
      "name": "getActiveDirectDeposit",
      "outputs": [
        {
          "internalType": "uint256",
          "name": "",
          "type": "uint256"
        }
      ],
      "stateMutability": "view",
      "type": "function"
    },
    {
      "inputs": [
        {
          "internalType": "address",
          "name": "_user",
          "type": "address"
        }
      ],
      "name": "getActiveDirectNumbers",
      "outputs": [
        {
          "internalType": "uint256",
          "name": "",
          "type": "uint256"
        }
      ],
      "stateMutability": "view",
      "type": "function"
    },
    {
      "inputs": [
        {
          "internalType": "address",
          "name": "_user",
          "type": "address"
        }
      ],
      "name": "getActiveDirectReward",
      "outputs": [
        {
          "internalType": "uint256",
          "name": "",
          "type": "uint256"
        }
      ],
      "stateMutability": "view",
      "type": "function"
    },
    {
      "inputs": [
        {
          "internalType": "address",
          "name": "_user",
          "type": "address"
        }
      ],
      "name": "getActiveTeambyDepth",
      "outputs": [
        {
          "internalType": "uint256",
          "name": "",
          "type": "uint256"
        }
      ],
      "stateMutability": "view",
      "type": "function"
    },
    {
      "inputs": [],
      "name": "getCurDay",
      "outputs": [
        {
          "internalType": "uint256",
          "name": "",
          "type": "uint256"
        }
      ],
      "stateMutability": "view",
      "type": "function"
    },
    {
      "inputs": [
        {
          "internalType": "address",
          "name": "_user",
          "type": "address"
        }
      ],
      "name": "getCurclaimableusdt",
      "outputs": [
        {
          "internalType": "uint256",
          "name": "",
          "type": "uint256"
        }
      ],
      "stateMutability": "view",
      "type": "function"
    },
    {
      "inputs": [
        {
          "internalType": "address",
          "name": "_user",
          "type": "address"
        }
      ],
      "name": "getCurlockusdt",
      "outputs": [
        {
          "internalType": "uint256",
          "name": "",
          "type": "uint256"
        }
      ],
      "stateMutability": "view",
      "type": "function"
    },
    {
      "inputs": [
        {
          "internalType": "uint256",
          "name": "_day",
          "type": "uint256"
        }
      ],
      "name": "getDayMore1kLength",
      "outputs": [
        {
          "internalType": "uint256",
          "name": "",
          "type": "uint256"
        }
      ],
      "stateMutability": "view",
      "type": "function"
    },
    {
      "inputs": [],
      "name": "getDepositorsLength",
      "outputs": [
        {
          "internalType": "uint256",
          "name": "",
          "type": "uint256"
        }
      ],
      "stateMutability": "view",
      "type": "function"
    },
    {
      "inputs": [
        {
          "internalType": "address",
          "name": "_user",
          "type": "address"
        }
      ],
      "name": "getDiamondReward",
      "outputs": [
        {
          "internalType": "uint256",
          "name": "",
          "type": "uint256"
        }
      ],
      "stateMutability": "view",
      "type": "function"
    },
    {
      "inputs": [
        {
          "internalType": "address",
          "name": "_user",
          "type": "address"
        }
      ],
      "name": "getMaxFreezing",
      "outputs": [
        {
          "internalType": "uint256",
          "name": "",
          "type": "uint256"
        }
      ],
      "stateMutability": "view",
      "type": "function"
    },
    {
      "inputs": [
        {
          "internalType": "address",
          "name": "_user",
          "type": "address"
        }
      ],
      "name": "getMember",
      "outputs": [
        {
          "internalType": "uint256",
          "name": "",
          "type": "uint256"
        }
      ],
      "stateMutability": "view",
      "type": "function"
    },
    {
      "inputs": [
        {
          "internalType": "address",
          "name": "_user",
          "type": "address"
        }
      ],
      "name": "getMyTeamNumbers",
      "outputs": [
        {
          "internalType": "uint256",
          "name": "",
          "type": "uint256"
        }
      ],
      "stateMutability": "view",
      "type": "function"
    },
    {
      "inputs": [
        {
          "internalType": "address",
          "name": "_user",
          "type": "address"
        }
      ],
      "name": "getOrderLength",
      "outputs": [
        {
          "internalType": "uint256",
          "name": "",
          "type": "uint256"
        }
      ],
      "stateMutability": "view",
      "type": "function"
    },
    {
      "inputs": [
        {
          "internalType": "address",
          "name": "_user",
          "type": "address"
        }
      ],
      "name": "getTeamDeposit",
      "outputs": [
        {
          "internalType": "uint256",
          "name": "",
          "type": "uint256"
        }
      ],
      "stateMutability": "view",
      "type": "function"
    },
    {
      "inputs": [
        {
          "internalType": "address",
          "name": "_user",
          "type": "address"
        }
      ],
      "name": "getTeamUsersLength",
      "outputs": [
        {
          "internalType": "uint256",
          "name": "",
          "type": "uint256"
        }
      ],
      "stateMutability": "view",
      "type": "function"
    },
    {
      "inputs": [
        {
          "internalType": "address",
          "name": "_user",
          "type": "address"
        },
        {
          "internalType": "uint256",
          "name": "_layer",
          "type": "uint256"
        }
      ],
      "name": "getTeamUsersLengthwithDepth",
      "outputs": [
        {
          "internalType": "uint256",
          "name": "",
          "type": "uint256"
        }
      ],
      "stateMutability": "view",
      "type": "function"
    },
    {
      "inputs": [],
      "name": "insuranceAccount",
      "outputs": [
        {
          "internalType": "address",
          "name": "",
          "type": "address"
        }
      ],
      "stateMutability": "view",
      "type": "function"
    },
    {
      "inputs": [],
      "name": "insurancePool",
      "outputs": [
        {
          "internalType": "uint256",
          "name": "",
          "type": "uint256"
        }
      ],
      "stateMutability": "view",
      "type": "function"
    },
    {
      "inputs": [],
      "name": "isFreezeReward",
      "outputs": [
        {
          "internalType": "bool",
          "name": "",
          "type": "bool"
        }
      ],
      "stateMutability": "view",
      "type": "function"
    },
    {
      "inputs": [],
      "name": "isStopLoss30ofATH",
      "outputs": [
        {
          "internalType": "bool",
          "name": "",
          "type": "bool"
        }
      ],
      "stateMutability": "view",
      "type": "function"
    },
    {
      "inputs": [],
      "name": "isStopLoss50ofATH",
      "outputs": [
        {
          "internalType": "bool",
          "name": "",
          "type": "bool"
        }
      ],
      "stateMutability": "view",
      "type": "function"
    },
    {
      "inputs": [],
      "name": "lastDistribute",
      "outputs": [
        {
          "internalType": "uint256",
          "name": "",
          "type": "uint256"
        }
      ],
      "stateMutability": "view",
      "type": "function"
    },
    {
      "inputs": [],
      "name": "more1kIncomePool",
      "outputs": [
        {
          "internalType": "uint256",
          "name": "",
          "type": "uint256"
        }
      ],
      "stateMutability": "view",
      "type": "function"
    },
    {
      "inputs": [
        {
          "internalType": "address",
          "name": "",
          "type": "address"
        },
        {
          "internalType": "uint256",
          "name": "",
          "type": "uint256"
        }
      ],
      "name": "myTeamUsers",
      "outputs": [
        {
          "internalType": "address",
          "name": "",
          "type": "address"
        }
      ],
      "stateMutability": "view",
      "type": "function"
    },
    {
      "inputs": [
        {
          "internalType": "address",
          "name": "",
          "type": "address"
        },
        {
          "internalType": "uint256",
          "name": "",
          "type": "uint256"
        }
      ],
      "name": "orderInfos",
      "outputs": [
        {
          "internalType": "uint256",
          "name": "cycle",
          "type": "uint256"
        },
        {
          "internalType": "uint256",
          "name": "amount",
          "type": "uint256"
        },
        {
          "internalType": "uint256",
          "name": "start",
          "type": "uint256"
        },
        {
          "internalType": "uint256",
          "name": "unfreeze",
          "type": "uint256"
        },
        {
          "internalType": "bool",
          "name": "isClaimed",
          "type": "bool"
        }
      ],
      "stateMutability": "view",
      "type": "function"
    },
    {
      "inputs": [
        {
          "internalType": "address",
          "name": "_referral",
          "type": "address"
        }
      ],
      "name": "register",
      "outputs": [],
      "stateMutability": "nonpayable",
      "type": "function"
    },
    {
      "inputs": [
        {
          "internalType": "address",
          "name": "",
          "type": "address"
        }
      ],
      "name": "rewardInfo",
      "outputs": [
        {
          "internalType": "uint256",
          "name": "capitals",
          "type": "uint256"
        },
        {
          "internalType": "uint256",
          "name": "statics",
          "type": "uint256"
        },
        {
          "internalType": "uint256",
          "name": "directs",
          "type": "uint256"
        },
        {
          "internalType": "uint256",
          "name": "diamondLuckyReward",
          "type": "uint256"
        },
        {
          "internalType": "uint256",
          "name": "infinityBonusReleased",
          "type": "uint256"
        },
        {
          "internalType": "uint256",
          "name": "cycleNumber",
          "type": "uint256"
        },
        {
          "internalType": "uint256",
          "name": "more1k",
          "type": "uint256"
        },
        {
          "internalType": "uint256",
          "name": "lockusdt",
          "type": "uint256"
        },
        {
          "internalType": "uint256",
          "name": "lockusdtDebt",
          "type": "uint256"
        }
      ],
      "stateMutability": "view",
      "type": "function"
    },
    {
      "inputs": [],
      "name": "startTime",
      "outputs": [
        {
          "internalType": "uint256",
          "name": "",
          "type": "uint256"
        }
      ],
      "stateMutability": "view",
      "type": "function"
    },
    {
      "inputs": [
        {
          "internalType": "address",
          "name": "",
          "type": "address"
        },
        {
          "internalType": "uint256",
          "name": "",
          "type": "uint256"
        },
        {
          "internalType": "uint256",
          "name": "",
          "type": "uint256"
        }
      ],
      "name": "teamUsers",
      "outputs": [
        {
          "internalType": "address",
          "name": "",
          "type": "address"
        }
      ],
      "stateMutability": "view",
      "type": "function"
    },
    {
      "inputs": [],
      "name": "totalUser",
      "outputs": [
        {
          "internalType": "uint256",
          "name": "",
          "type": "uint256"
        }
      ],
      "stateMutability": "view",
      "type": "function"
    },
    {
      "inputs": [
        {
          "internalType": "address",
          "name": "_receiver",
          "type": "address"
        },
        {
          "internalType": "uint256",
          "name": "amount",
          "type": "uint256"
        }
      ],
      "name": "transferBylockusdt",
      "outputs": [],
      "stateMutability": "nonpayable",
      "type": "function"
    },
    {
      "inputs": [],
      "name": "usdt",
      "outputs": [
        {
          "internalType": "contract IERC20",
          "name": "",
          "type": "address"
        }
      ],
      "stateMutability": "view",
      "type": "function"
    },
    {
      "inputs": [
        {
          "internalType": "address",
          "name": "",
          "type": "address"
        }
      ],
      "name": "userInfo",
      "outputs": [
        {
          "internalType": "address",
          "name": "referrer",
          "type": "address"
        },
        {
          "internalType": "uint256",
          "name": "start",
          "type": "uint256"
        },
        {
          "internalType": "uint256",
          "name": "level",
          "type": "uint256"
        },
        {
          "internalType": "uint256",
          "name": "maxDeposit",
          "type": "uint256"
        },
        {
          "internalType": "uint256",
          "name": "totalDeposit",
          "type": "uint256"
        },
        {
          "internalType": "uint256",
          "name": "teamNum",
          "type": "uint256"
        },
        {
          "internalType": "uint256",
          "name": "teamTotalDeposit",
          "type": "uint256"
        },
        {
          "internalType": "uint256",
          "name": "teamTotalVolume",
          "type": "uint256"
        },
        {
          "internalType": "uint256",
          "name": "totalFreezed",
          "type": "uint256"
        },
        {
          "internalType": "uint256",
          "name": "totalRevenue",
          "type": "uint256"
        },
        {
          "internalType": "uint256",
          "name": "membership",
          "type": "uint256"
        },
        {
          "internalType": "uint256",
          "name": "directBonusCount",
          "type": "uint256"
        }
      ],
      "stateMutability": "view",
      "type": "function"
    },
    {
      "inputs": [],
      "name": "withdraw",
      "outputs": [],
      "stateMutability": "nonpayable",
      "type": "function"
    }
  ],
  "bytecode": "0x6107d06002556102006040526101f46080908152606460a081905260c860c081905260e0829052610100526101208190526101408190526101608190526101808190526101a05260326101c08190526101e0526200006290600390600c62000192565b50604080516060810182526117708152611f406020820152612af89181019190915262000094906004906003620001e8565b506020805462ffffff19169055348015620000ae57600080fd5b50604051620042e3380380620042e3833981016040819052620000d191620002ab565b600080546001600160a01b0319166001600160a01b03861617905560405184903090620000fe906200021e565b6001600160a01b03928316815291166020820152604001604051809103906000f08015801562000132573d6000803e3d6000fd5b50600180546001600160a01b03199081166001600160a01b0393841617909155600d80548216868416179055600c80549091169184169190911790556200017d600a8260026200022c565b505042600e819055600f55506200038b915050565b828054828255906000526020600020908101928215620001d6579160200282015b82811115620001d6578251829061ffff16905591602001919060010190620001b3565b50620001e492915062000277565b5090565b8260058101928215620001d65791602002820182811115620001d6578251829061ffff16905591602001919060010190620001b3565b61046c8062003e7783390190565b8260028101928215620001d6579160200282015b82811115620001d657825182546001600160a01b0319166001600160a01b0390911617825560209092019160019091019062000240565b5b80821115620001e4576000815560010162000278565b80516001600160a01b0381168114620002a657600080fd5b919050565b60008060008060a08587031215620002c1578384fd5b620002cc856200028e565b93506020620002dd8187016200028e565b9350620002ed604087016200028e565b925086607f870112620002fe578182fd5b604080519081016001600160401b038111828210171562000323576200032362000375565b604052806060880160a089018a10156200033b578485fd5b845b6002811015620003655762000352826200028e565b835291840191908401906001016200033d565b5096999598509396509450505050565b634e487b7160e01b600052604160045260246000fd5b613adc806200039b6000396000f3fe608060405234801561001057600080fd5b50600436106103825760003560e01c8063732cef43116101de578063aa0204f91161010f578063dd853c2f116100ad578063e402a0711161007c578063e402a07114610948578063e4b2fb791461095b578063fd0c0d7b1461096e578063fda92ce51461098157600080fd5b8063dd853c2f146108f0578063de6b8a2e14610903578063e1604b701461092c578063e28aa97a1461093557600080fd5b8063b6b55f25116100e9578063b6b55f2514610817578063cbecf6b51461082a578063cc38c8a0146108ca578063d0c85cfe146108dd57600080fd5b8063aa0204f9146107db578063ab2adc00146107fb578063ae97397e1461080457600080fd5b806385a6327c1161017c578063991e766811610156578063991e7668146107765780639a6a0d2f146107a25780639fc83a05146107b5578063a71c9036146107c857600080fd5b806385a6327c1461072757806386dd5eb01461073a5780638b5a432a1461076357600080fd5b80637647e0ff116101b85780637647e0ff146106cc57806378e97925146106f85780638258ccf21461070157806383fb8af71461071457600080fd5b8063732cef431461068357806373586f11146106a657806373cb4d05146106b957600080fd5b80633390af2a116102b85780634e506831116102565780636a6e76b3116102305780636a6e76b3146106525780636e70c235146106655780636f0110d31461066e57806370abe5fe1461067b57600080fd5b80634e506831146105f05780635b3817601461060257806360a1cbd71461061557600080fd5b80633fdfd4c2116102925780633fdfd4c2146105b857806341e8a718146105cb5780634420e486146105d457806347d67339146105e757600080fd5b80633390af2a146105755780633955782b1461059d5780633ccfd60b146105b057600080fd5b80632489a223116103255780632e2f9aa9116102ff5780632e2f9aa91461051c5780632f48ab7d1461052f5780632fea20f61461055a57806330538c321461056257600080fd5b80632489a223146104e35780632ada2596146104f65780632c45ab541461050957600080fd5b80630cf9310a116103615780630cf9310a146103be5780631959a002146103e15780631d606ed2146104bb5780631efbbb36146104d057600080fd5b8062a7a56e146103875780630643f247146103a2578063069570e2146103b5575b600080fd5b61038f61098a565b6040519081526020015b60405180910390f35b61038f6103b03660046138c8565b6109b1565b61038f60155481565b6103d16103cc3660046138c8565b610b4d565b6040519015158152602001610399565b6104586103ef3660046138c8565b601c60205260009081526040902080546001820154600283015460038401546004850154600586015460068701546007880154600889015460098a0154600a8b0154600b909b01546001600160a01b03909a169a9899979896979596949593949293919290918c565b604080516001600160a01b03909d168d5260208d019b909b52998b019890985260608a0196909652608089019490945260a088019290925260c087015260e086015261010085015261012084015261014083015261016082015261018001610399565b6104ce6104c93660046138e2565b610b84565b005b61038f6104de3660046138c8565b610d78565b6020546103d19062010000900460ff1681565b61038f6105043660046138c8565b610e96565b6103d16105173660046138c8565b610ef6565b61038f61052a3660046138c8565b610f91565b600054610542906001600160a01b031681565b6040516001600160a01b039091168152602001610399565b601b5461038f565b61054261057036600461395d565b611010565b6105886105833660046138c8565b61103a565b60408051928352602083019190915201610399565b6105426105ab36600461395d565b61114a565b6104ce61115a565b61038f6105c63660046138c8565b61168f565b61038f60125481565b6104ce6105e23660046138c8565b6116b6565b61038f600f5481565b6020546103d190610100900460ff1681565b61054261061036600461395d565b611865565b6106286106233660046138e2565b611885565b6040805195865260208601949094529284019190915260608301521515608082015260a001610399565b61038f6106603660046138c8565b6118d6565b61038f60145481565b6020546103d19060ff1681565b6104ce61194d565b6103d161069136600461395d565b60096020526000908152604090205460ff1681565b6105886106b43660046138c8565b61197c565b6105426106c736600461390b565b611a88565b61038f6106da3660046138c8565b6001600160a01b03166000908152601c602052604090206006015490565b61038f600e5481565b61038f61070f3660046138c8565b611acd565b6104ce61072236600461395d565b611b29565b600d54610542906001600160a01b031681565b61038f6107483660046138c8565b6001600160a01b03166000908152601e602052604090205490565b61054261077136600461398d565b611d12565b61038f6107843660046138c8565b6001600160a01b03166000908152601c602052604090206005015490565b61038f6107b03660046138c8565b611d4a565b600154610542906001600160a01b031681565b61038f6107d63660046138c8565b611e59565b61038f6107e936600461395d565b60009081526016602052604090205490565b61038f60115481565b61038f6108123660046138e2565b612035565b6104ce61082536600461395d565b612073565b6108866108383660046138c8565b601f6020528060005260406000206000915090508060000154908060010154908060020154908060030154908060040154908060050154908060060154908060070154908060080154905089565b60408051998a5260208a0198909852968801959095526060870193909352608086019190915260a085015260c084015260e083015261010082015261012001610399565b600c54610542906001600160a01b031681565b6105426108eb3660046138e2565b6121ad565b61038f6108fe3660046138c8565b6121c9565b61038f6109113660046138c8565b6001600160a01b03166000908152601a602052604090205490565b61038f60105481565b61054261094336600461395d565b61265e565b61038f6109563660046138c8565b61266e565b61054261096936600461395d565b61271f565b61038f61097c3660046138c8565b61272f565b61038f60135481565b60006109ac603c6109a6600e544261283a90919063ffffffff16565b90612846565b905090565b6001600160a01b0381166000908152601e602090815260408083208054601a9093529083208054919291849190829015610a2857815482906109f590600190613a1d565b81548110610a1357634e487b7160e01b600052603260045260246000fd5b90600052602060002090600502016001015490505b60005b84811015610b41576001600160a01b0388166000908152601e602052604081208054601a91839185908110610a7057634e487b7160e01b600052603260045260246000fd5b60009182526020808320909101546001600160a01b031683528201929092526040019020805490915015610b2e5780546000908290610ab190600190613a1d565b81548110610acf57634e487b7160e01b600052603260045260246000fd5b9060005260206000209060050201905060008160030154905042811115610b2b57600085836001015411610b07578260010154610b09565b855b9050610b27610b206127106109a6846101f4612852565b899061285e565b9750505b50505b5080610b3981613a4b565b915050610a2b565b50919695505050505050565b6001600160a01b038082166000908152601c602052604081208054919290911615610b7b5750600192915050565b50600092915050565b6000610b9382620f4240612852565b9050610ba46305f5e1006002612846565b8110158015610bc95750610bc7610bc06305f5e1006002612846565b829061286a565b155b610c075760405162461bcd60e51b815260206004820152600a60248201526930b6b7bab73a1032b93960b11b60448201526064015b60405180910390fd5b6001600160a01b038381166000908152601c602052604090205416610c6e5760405162461bcd60e51b815260206004820152601d60248201527f52656365697665722073686f756c642062652072656769737472616e740000006044820152606401610bfe565b336000908152601f602052604090206007015481811015610cc75760405162461bcd60e51b8152602060048201526013602482015272696e73756666696369656e7420696e636f6d6560681b6044820152606401610bfe565b336000908152601f6020526040902060070154610ce4908361283a565b336000908152601f60205260408082206007908101939093556001600160a01b038716825290200154610d17908361285e565b6001600160a01b0385166000908152601f60205260409081902060070191909155517f31c16c09f64d62f5f951a79f903c62bfa160a100f5037e6582506bd30f13e0c390610d6a903390879086906139ae565b60405180910390a150505050565b600080805b600c811015610e8f576001600160a01b0384166000908152601d602090815260408083208484529091528120805490915b81811015610e79576000838281548110610dd857634e487b7160e01b600052603260045260246000fd5b60009182526020808320909101546001600160a01b0316808352601a909152604090912080549192509015610e645780546000908290610e1a90600190613a1d565b81548110610e3857634e487b7160e01b600052603260045260246000fd5b906000526020600020906005020190504281600301541115610e6257610e5f88600161285e565b97505b505b50508080610e7190613a4b565b915050610dae565b5050508080610e8790613a4b565b915050610d7d565b5092915050565b6001600160a01b0381166000908152601c6020526040812060030154816002610ebe85611d4a565b10158015610ede5750610ed2826002612852565b610edb8561272f565b10155b15610eeb57506001610eef565b5060005b9392505050565b6001600160a01b0381166000908152601f6020526040812060058101548290600211801590610f255750815415155b8015610f8957506001600160a01b0384166000908152601a602052604090206005830154429190610f5790600261283a565b81548110610f7557634e487b7160e01b600052603260045260246000fd5b906000526020600020906005020160030154105b949350505050565b60195460009081805b8281101561100857846001600160a01b031660198281548110610fcd57634e487b7160e01b600052603260045260246000fd5b6000918252602090912001546001600160a01b03161415610ff657610ff382600161285e565b91505b8061100081613a4b565b915050610f9a565b509392505050565b6019818154811061102057600080fd5b6000918252602090912001546001600160a01b0316905081565b6001600160a01b0381166000908152601f602052604081208054829190828061106287610e96565b11156110ba57600061107387611e59565b90506002811061109f576110986127106109a66002548661285290919063ffffffff16565b91506110b4565b6110b16127106109a6856107d0612852565b91505b506110cf565b6110cc6127106109a6846105dc612852565b90505b6001600160a01b0386166000908152601c60205260409020600901546110fd6127106109a685614e20612852565b1015611107575060005b600061111b6127106109a684610bb8612852565b90506000611129838361283a565b60205490915060ff161561113e575060009050805b97909650945050505050565b6018818154811061102057600080fd5b336000908152601f60209081526040808320601a9092528220600582015491929142919061118990600261283a565b815481106111a757634e487b7160e01b600052603260045260246000fd5b9060005260206000209060050201600301541080156111c65750815415155b90506001811515146112405760405162461bcd60e51b815260206004820152603760248201527f43616e7420636c61696d2c20506c6561736520636865636b207374616b65206460448201527f61746520616e64206465706f73697420737461747573210000000000000000006064820152608401610bfe565b60008061124c3361103a565b9092509050808260008061125f3361197c565b909250905061126e838361285e565b925061127a848261285e565b336000908152601c602052604090206009810154919550906112a89086906112a2908761285e565b9061285e565b60098201556112c56112ba858761285e565b60088301549061283a565b600882015560078901546112d9908661285e565b60078a0155600060018a0181905560038a0181905560048a0181905560068a0155885461130790859061285e565b9350611317338a60000154612876565b6000808a555460405163a9059cbb60e01b8152336004820152602481018690526001600160a01b039091169063a9059cbb90604401602060405180830381600087803b15801561136657600080fd5b505af115801561137a573d6000803e3d6000fd5b505050506040513d601f19601f8201168201806040525081019061139e919061393d565b5060006113aa33611e59565b905080600414156114b45760006113c033610f91565b9050600a8110156114ae57601980546001808201835560009283527f944998273e477b495144fb8794c914197f3ccb46be2900f4698fd0ef743c969590910180546001600160a01b031916331790559054905460405163a9059cbb60e01b81526001600160a01b0391821660048201526302faf080602482015291169063a9059cbb90604401602060405180830381600087803b15801561146057600080fd5b505af1158015611474573d6000803e3d6000fd5b505050506040513d601f19601f82011682018060405250810190611498919061393d565b506011546114aa906302faf08061285e565b6011555b506115b8565b80600314156115b85760006114c8336118d6565b905060148110156115b657601880546001808201835560009283527fb13d2d76d1f4b7be834882e410b3e3a8afaf69f83600ae24db354391d2378d2e90910180546001600160a01b031916331790559054905460405163a9059cbb60e01b81526001600160a01b03918216600482015263017d7840602482015291169063a9059cbb90604401602060405180830381600087803b15801561156857600080fd5b505af115801561157c573d6000803e3d6000fd5b505050506040513d601f19601f820116820180604052508101906115a0919061393d565b506011546115b29063017d784061285e565b6011555b505b6115c061194d565b600080546040516370a0823160e01b81523060048201526001600160a01b03909116906370a082319060240160206040518083038186803b15801561160457600080fd5b505afa158015611618573d6000803e3d6000fd5b505050506040513d601f19601f8201168201806040525081019061163c9190613975565b9050611649816000612947565b60408051338152602081018890527f884edad9ce6fa2440d8a54cc123490eb96d2768479d49ff9c7366125a9424364910160405180910390a15050505050505050505050565b60008061169b8361103a565b50905060006116a98461197c565b509050610f89828261285e565b6001600160a01b0381166000908152601c60205260409020600401541515806116ec5750600d546001600160a01b038281169116145b6117285760405162461bcd60e51b815260206004820152600d60248201526c34b73b30b634b2103932b332b960991b6044820152606401610bfe565b336000908152601c6020526040902080546001600160a01b0316156117815760405162461bcd60e51b815260206004820152600f60248201526e1c9959995c9c995c88189bdb991959608a1b6044820152606401610bfe565b80546001600160a01b0319166001600160a01b0383161781554260018201556117a9336129b3565b6001600160a01b0382166000818152601e6020908152604080832080546001810182559084528284200180546001600160a01b03191633908117909155848452601c909252909120911461180d57600581015461180790600161285e565b60058201555b60105461181b90600161285e565b601055604080513381526001600160a01b03851660208201527f98ada70a1cb506dc4591465e1ee9be3fd7a2b6c73ecf3b949009718c9a35151991015b60405180910390a1505050565b600a816002811061187557600080fd5b01546001600160a01b0316905081565b601a60205281600052604060002081815481106118a157600080fd5b600091825260209091206005909102018054600182015460028301546003840154600490940154929550909350919060ff1685565b60185460009081805b8281101561100857846001600160a01b03166018828154811061191257634e487b7160e01b600052603260045260246000fd5b6000918252602090912001546001600160a01b0316141561193b5761193882600161285e565b91505b8061194581613a4b565b9150506118df565b600f5461195b90603c61285e565b42111561197a574261196c81612a99565b611974612ba4565b5042600f555b565b6001600160a01b0381166000908152601f6020526040812080548291908280806119a588611e59565b9050600281106119bf576119b8886121c9565b91506119cb565b6119c8886109b1565b91505b6119d5838361285e565b92506119ee85600601548461285e90919063ffffffff16565b9250611a0785600301548461285e90919063ffffffff16565b6001600160a01b0389166000908152601c6020526040902060090154909350611a386127106109a687614e20612852565b1015611a4357600092505b6000611a576127106109a686610bb8612852565b90506000611a65858361283a565b60205490915060ff1615611a7a575060009050805b999098509650505050505050565b601d6020528260005260406000206020528160005260406000208181548110611ab057600080fd5b6000918252602090912001546001600160a01b0316925083915050565b600080611ad98361103a565b9150506000611ae78461197c565b6001600160a01b0386166000908152601f602052604090206008810154600790910154919350610f89925090611b239084906112a2908761285e565b9061283a565b6000611b3882620f4240612852565b9050611b496305f5e1006002612846565b8110158015611b675750611b65610bc06305f5e1006002612846565b155b611ba05760405162461bcd60e51b815260206004820152600a60248201526930b6b7bab73a1032b93960b11b6044820152606401610bfe565b336000908152601a602052604090205415611c115760405162461bcd60e51b815260206004820152602b60248201527f4669727374206465706f7369746f72732063616e206f6e6c792075736520746860448201526a34b990333ab731ba34b7b760a91b6064820152608401610bfe565b336000908152601f6020526040902060070154611c36610bb86109a684612710612852565b611c53611c47610bb8612710613a1d565b6109a684612710612852565b1115611ca15760405162461bcd60e51b815260206004820152601b60248201527f696e73756666696369656e74206672657368206c6f636b7573647400000000006044820152606401610bfe565b336000818152601f6020526040812060070155611cc790611cc2848461285e565b612c6d565b7f07302eff02da419ed556321e69ca94ba35733d9e5910897626312a691b6b22cc33611cf3848461285e565b604080516001600160a01b039093168352602083019190915201611858565b60166020528160005260406000208181548110611d2e57600080fd5b6000918252602090912001546001600160a01b03169150829050565b6001600160a01b0381166000908152601e60205260408120805482805b82811015611e50576001600160a01b0386166000908152601e602052604081208054601a91839185908110611dac57634e487b7160e01b600052603260045260246000fd5b60009182526020808320909101546001600160a01b031683528201929092526040019020805490915015611e3d5780546000908290611ded90600190613a1d565b81548110611e0b57634e487b7160e01b600052603260045260246000fd5b9060005260206000209060050201905060008160030154905042811115611e3a57611e3785600161285e565b94505b50505b5080611e4881613a4b565b915050611d67565b50949350505050565b6001600160a01b0381166000908152601a60209081526040808320601c9092528220815483928392839283928392839283929190801561202057600083611ea1600184613a1d565b81548110611ebf57634e487b7160e01b600052603260045260246000fd5b90600052602060002090600502019050600084600081548110611ef257634e487b7160e01b600052603260045260246000fd5b9060005260206000209060050201905081600101549a508060010154995083600501549850611f208e61272f565b9750611f2b8e610d78565b965083600701549550639502f9008b10158015611f4c5750639502f9008a10155b8015611f595750600f8910155b8015611f6a575064037e11d6008810155b8015611f7857506101908710155b8015611f89575064746a5288008610155b15611f975760049b50612019565b639502f9008b10158015611faf5750639502f9008a10155b8015611fbc5750600a8910155b8015611fcd57506402540be4008810155b8015611fda575060b48710155b8015611feb575064174876e8008610155b15611ff95760039b50612019565b6028871015801561200f57506404a817c8008610155b156120195760029b505b5050612025565b600099505b50979a9950505050505050505050565b6000600c82106120475750600061206d565b506001600160a01b0382166000908152601d602090815260408083208484529091529020545b92915050565b600061208282620f4240612852565b9050612092816305f5e10061286a565b156120df5760405162461bcd60e51b815260206004820181905260248201527f616d6f756e742073686f756c64206265206d756c7469706c65206f66203130306044820152606401610bfe565b6000546040516323b872dd60e01b81526001600160a01b03909116906323b872dd90612113903390309086906004016139ae565b602060405180830381600087803b15801561212d57600080fd5b505af1158015612141573d6000803e3d6000fd5b505050506040513d601f19601f82011682018060405250810190612165919061393d565b506121703382612c6d565b60408051338152602081018390527fe1fffcc4923d04b559f4d29a8bfc6cda04eb5b0d3c460751c2402c5c5cc9109c910160405180910390a15050565b601e6020528160005260406000208181548110611d2e57600080fd5b6000806121d583611e59565b9050600060028210610eef57816004141561238c5760006121f585610f91565b9050600a8110156123865760005b600c81101561235f576001600160a01b0386166000908152601d602090815260408083208484529091528120905b815481101561234a576000601a600084848154811061226057634e487b7160e01b600052603260045260246000fd5b60009182526020808320909101546001600160a01b03168352820192909252604001902080549091501561233757805460009082906122a190600190613a1d565b815481106122bf57634e487b7160e01b600052603260045260246000fd5b9060005260206000209060050201905042816003015411156123355761233261232b6127106109a661019060038a8154811061230b57634e487b7160e01b600052603260045260246000fd5b906000526020600020015461232091906139d2565b600186015490612852565b889061285e565b96505b505b508061234281613a4b565b915050612231565b5050808061235790613a4b565b915050612203565b506302faf0808211156123815761237a826302faf08061283a565b9150612386565b600091505b50610eef565b81600314156125195760006123a0856118d6565b905060148110156123865760005b600c8110156124fe576001600160a01b0386166000908152601d602090815260408083208484529091528120905b81548110156124e9576000601a600084848154811061240b57634e487b7160e01b600052603260045260246000fd5b60009182526020808320909101546001600160a01b0316835282019290925260400190208054909150156124d6578054600090829061244c90600190613a1d565b8154811061246a57634e487b7160e01b600052603260045260246000fd5b9060005260206000209060050201905042816003015411156124d4576124d161232b6127106109a6600389815481106124b357634e487b7160e01b600052603260045260246000fd5b9060005260206000200154856001015461285290919063ffffffff16565b96505b505b50806124e181613a4b565b9150506123dc565b505080806124f690613a4b565b9150506123ae565b5063017d78408211156123815761237a8263017d784061283a565b8160021415610eef5760005b6005811015611008576001600160a01b0385166000908152601d602090815260408083208484529091528120905b8154811015612649576000601a600084848154811061258257634e487b7160e01b600052603260045260246000fd5b60009182526020808320909101546001600160a01b03168352820192909252604001902080549091501561263657805460009082906125c390600190613a1d565b815481106125e157634e487b7160e01b600052603260045260246000fd5b9060005260206000209060050201905042816003015411156126345761263161262a6127106109a6600389815481106124b357634e487b7160e01b600052603260045260246000fd5b879061285e565b95505b505b508061264181613a4b565b915050612553565b5050808061265690613a4b565b915050612525565b6017818154811061102057600080fd5b6001600160a01b0381166000908152601a602052604081205481905b8015610e8f576001600160a01b0384166000908152601a602052604081206126b3600184613a1d565b815481106126d157634e487b7160e01b600052603260045260246000fd5b90600052602060002090600502019050428160030154111561270657828160010154111561270157806001015492505b61270c565b50610e8f565b508061271781613a34565b91505061268a565b601b818154811061102057600080fd5b6001600160a01b0381166000908152601e60205260408120805482805b82811015611e50576001600160a01b0386166000908152601e602052604081208054601a9183918590811061279157634e487b7160e01b600052603260045260246000fd5b60009182526020808320909101546001600160a01b03168352820192909252604001902080549091501561282757805460009082906127d290600190613a1d565b815481106127f057634e487b7160e01b600052603260045260246000fd5b9060005260206000209060050201905060008160030154905042811115612824576001820154612820868261285e565b9550505b50505b508061283281613a4b565b91505061274c565b6000610eef8284613a1d565b6000610eef82846139ea565b6000610eef82846139fe565b6000610eef82846139d2565b6000610eef8284613a66565b6001600160a01b038083166000908152601c60205260409020805490911680158015906128b55750836001600160a01b0316816001600160a01b031614155b15612941576001600160a01b0381166000908152601c6020526040902060060154831015612924576001600160a01b0381166000908152601c6020526040902060060154612903908461283a565b6001600160a01b0382166000908152601c6020526040902060060155612941565b6001600160a01b0381166000908152601c60205260408120600601555b50505050565b80156129595761295561309b565b5050565b60055b801561299c576129806127106109a6612977826107d061283a565b60155490612852565b8310156129a1576020805460ff1916600117905561299c61309b565b505050565b806129ab81613a34565b91505061295c565b6001600160a01b038082166000908152601c602052604081208054909216905b600c811015612941576001600160a01b03821615801590612a065750816001600160a01b0316846001600160a01b031614155b15612a82576001600160a01b038281166000818152601d6020908152604080832086845282528220805460018101825590835291200180546001600160a01b031916878416179055600d549091161415612a5f57612941565b6001600160a01b039182166000908152601c602052604090205490911690612a87565b612941565b80612a9181613a4b565b9150506129d3565b6000601681612aa9600185613a1d565b81526020810191909152604001600020549050801561295557805b8015612b9a576000601681612ada600187613a1d565b8152602001908152602001600020600183612af59190613a1d565b81548110612b1357634e487b7160e01b600052603260045260246000fd5b6000918252602090912001546001600160a01b031690508015612b8757601354600090612b409085612846565b6001600160a01b0383166000908152601f6020526040902060060154909150612b69908261285e565b6001600160a01b0383166000908152601f6020526040902060060155505b5080612b9281613a34565b915050612ac4565b5060006013555050565b6017546000612bb233611e59565b90506000612bbf336131fe565b905060028210158015612bd25750600581105b1561299c576000612bf0612be7856005612852565b60125490612846565b336000908152601f6020526040902060030154909150612c10908261285e565b336000818152601f60205260408120600301929092556017805460018101825592527fc624b66cc0138b8fabc209247f72d758e1cf3343756d543badbf24212bed8c1590910180546001600160a01b031916909117905550505050565b6001600160a01b038083166000908152601c602052604090208054909116612ce35760405162461bcd60e51b8152602060048201526024808201527f7265676973746572206669727374207769746820726566657272616c206164646044820152637265737360e01b6064820152608401610bfe565b6305f5e100821015612d375760405162461bcd60e51b815260206004820152601b60248201527f73686f756c64206265206d6f7265207468616e206d696e2031303000000000006044820152606401610bfe565b639502f900821115612d8b5760405162461bcd60e51b815260206004820152601c60248201527f73686f756c64206265206c657373207468616e206d696e2032353030000000006044820152606401610bfe565b60038101541580612da0575080600301548210155b612e075760405162461bcd60e51b815260206004820152603260248201527f6e657874206465706f7369742073686f756c6420626520657175616c206f72206044820152716d6f7265207468616e2070726576696f757360701b6064820152608401610bfe565b6003810154612e1c5760038101829055612e30565b8181600301541015612e3057600381018290555b612e3982613273565b6004810154158015612e4f5750633b9aca008210155b15612e97576000612e5e61098a565b60009081526016602090815260408220805460018101825590835291200180546001600160a01b0319166001600160a01b038616179055505b612ea083613565565b6004810154612eaf908361285e565b60048201556008810154612ec3908361285e565b60088201556001600160a01b0383166000908152601f6020526040902060058101546023908111612f0057612ef981603c612852565b9050612f13565b6005820154612f1090603c612852565b90505b6000612f24826112a242603c61285e565b6001600160a01b0387166000908152601a60209081526040808320815160a0810183526005898101805483528286018d8152429584019586526060840189815260808501898152865460018082018955978b5298909920945197909302909301958655915185840155925160028501559151600384015592516004909201805460ff19169215159290921790915554919250612fc0919061285e565b6005840155612fce86613625565b612fd661194d565b612fe08686613744565b600080546040516370a0823160e01b81523060048201526001600160a01b03909116906370a082319060240160206040518083038186803b15801561302457600080fd5b505afa158015613038573d6000803e3d6000fd5b505050506040513d601f19601f8201168201806040525081019061305c9190613975565b9050613067816137fe565b60205460ff16156130825761307d816001612947565b613092565b8060155410156130925760158190555b50505050505050565b60008054600c54604051636eb1769f60e11b81526001600160a01b03918216600482015230602482015291169063dd62ed3e9060440160206040518083038186803b1580156130e957600080fd5b505afa1580156130fd573d6000803e3d6000fd5b505050506040513d601f19601f820116820180604052508101906131219190613975565b9050620f424081106131fb576011548111156131c3576000546001546011546040516323b872dd60e01b81526001600160a01b03938416936323b872dd93613171939116913091906004016139ae565b602060405180830381600087803b15801561318b57600080fd5b505af115801561319f573d6000803e3d6000fd5b505050506040513d601f19601f82011682018060405250810190612955919061393d565b6000546001546040516323b872dd60e01b81526001600160a01b03928316926323b872dd9261317192911690309086906004016139ae565b50565b600080805b601754811015610e8f57836001600160a01b03166017828154811061323857634e487b7160e01b600052603260045260246000fd5b6000918252602090912001546001600160a01b031614156132615761325e82600161285e565b91505b8061326b81613a4b565b915050613203565b60006132866127106109a68460c8612852565b600054600a549192506001600160a01b039081169163a9059cbb91166132ad846002612846565b6040516001600160e01b031960e085901b1681526001600160a01b0390921660048301526024820152604401602060405180830381600087803b1580156132f357600080fd5b505af1158015613307573d6000803e3d6000fd5b505050506040513d601f19601f8201168201806040525081019061332b919061393d565b506000546001600160a01b031663a9059cbb600a600101546001600160a01b0316613357846002612846565b6040516001600160e01b031960e085901b1681526001600160a01b0390921660048301526024820152604401602060405180830381600087803b15801561339d57600080fd5b505af11580156133b1573d6000803e3d6000fd5b505050506040513d601f19601f820116820180604052508101906133d5919061393d565b5060205460ff16156133f4576000601281905560138190556014555050565b60006134076127106109a6856032612852565b60005460015460405163a9059cbb60e01b81526001600160a01b03918216600482015260248101849052929350169063a9059cbb90604401602060405180830381600087803b15801561345957600080fd5b505af115801561346d573d6000803e3d6000fd5b505050506040513d601f19601f82011682018060405250810190613491919061393d565b50600154604051632dd67e5560e21b8152600481018390526001600160a01b039091169063b759f95490602401600060405180830381600087803b1580156134d857600080fd5b505af11580156134ec573d6000803e3d6000fd5b50506011546134fe925090508261285e565b60115560006135146127106109a6866032612852565b601254909150613524908261285e565b601255600061353a6127106109a6876032612852565b60135490915061354a908261285e565b601381905560145461355b9161285e565b6014555050505050565b6000805b601b548110156135ce57601b818154811061359457634e487b7160e01b600052603260045260246000fd5b6000918252602090912001546001600160a01b03848116911614156135bc57600191506135ce565b806135c681613a4b565b915050613569565b508061295557601b80546001810182556000919091527f3ad8aa4f87544323a9d1e5dd902f40c356527a7955687113db5f9a85ad579dc10180546001600160a01b0384166001600160a01b03199091161790555050565b60005b6001600160a01b0382166000908152601a6020526040902054811015612955576001600160a01b0382166000908152601a6020526040812080548390811061368057634e487b7160e01b600052603260045260246000fd5b906000526020600020906005020190508060030154421180156136a85750600481015460ff16155b80156136da57506001600160a01b0383166000908152601f60205260409020600501546136d690600161283a565b8154105b156137315760018101546001600160a01b0384166000908152601f60205260409020546137069161285e565b6001600160a01b0384166000908152601f6020526040902055600401805460ff191660011790555050565b508061373c81613a4b565b915050613628565b6001600160a01b038083166000908152601c60205260409020805490911680158015906137835750806001600160a01b0316846001600160a01b031614155b15612941576001600160a01b0381166000908152601c60205260409020600601546137ae908461285e565b6001600160a01b0382166000908152601c602052604090206006810191909155600701546137dc908461285e565b6001600160a01b0382166000908152601c602052604090206007015550505050565b6138166127106109a660046002015460155490612852565b811061387e5760045460009081526009602090815260408083208054600160ff199182168117909255600554855291909320805490911690921790915560158290555460ff16156131fb576020805460ff191690556002805461387891612846565b60025550565b50600454600090815260096020526040808220805460ff199081169091556005548352912080549091169055565b80356001600160a01b03811681146138c357600080fd5b919050565b6000602082840312156138d9578081fd5b610eef826138ac565b600080604083850312156138f4578081fd5b6138fd836138ac565b946020939093013593505050565b60008060006060848603121561391f578081fd5b613928846138ac565b95602085013595506040909401359392505050565b60006020828403121561394e578081fd5b81518015158114610eef578182fd5b60006020828403121561396e578081fd5b5035919050565b600060208284031215613986578081fd5b5051919050565b6000806040838503121561399f578182fd5b50508035926020909101359150565b6001600160a01b039384168152919092166020820152604081019190915260600190565b600082198211156139e5576139e5613a7a565b500190565b6000826139f9576139f9613a90565b500490565b6000816000190483118215151615613a1857613a18613a7a565b500290565b600082821015613a2f57613a2f613a7a565b500390565b600081613a4357613a43613a7a565b506000190190565b6000600019821415613a5f57613a5f613a7a565b5060010190565b600082613a7557613a75613a90565b500690565b634e487b7160e01b600052601160045260246000fd5b634e487b7160e01b600052601260045260246000fdfea26469706673582212207074a75ca20d234718011a9f2698eb7034bc3ee644324f4ed281ddc22843932a64736f6c63430008040033608060405234801561001057600080fd5b5060405161046c38038061046c83398101604081905261002f916100d5565b61003833610069565b600280546001600160a01b039384166001600160a01b03199182161790915560018054929093169116179055610107565b600080546001600160a01b038381166001600160a01b0319831681178455604051919092169283917f8be0079c531659141344cd1fd0a4f28419497f9722a3daafe3b4186f6b6457e09190a35050565b80516001600160a01b03811681146100d057600080fd5b919050565b600080604083850312156100e7578182fd5b6100f0836100b9565b91506100fe602084016100b9565b90509250929050565b610356806101166000396000f3fe608060405234801561001057600080fd5b50600436106100625760003560e01c80632f48ab7d14610067578063715018a6146100965780638da5cb5b146100a0578063b759f954146100b1578063f2fde38b146100c4578063f7066a19146100d7575b600080fd5b60025461007a906001600160a01b031681565b6040516001600160a01b03909116815260200160405180910390f35b61009e6100ea565b005b6000546001600160a01b031661007a565b61009e6100bf366004610308565b6100fe565b61009e6100d23660046102ba565b610192565b60015461007a906001600160a01b031681565b6100f2610210565b6100fc600061026a565b565b610106610210565b60025460015460405163095ea7b360e01b81526001600160a01b0391821660048201526024810184905291169063095ea7b390604401602060405180830381600087803b15801561015657600080fd5b505af115801561016a573d6000803e3d6000fd5b505050506040513d601f19601f8201168201806040525081019061018e91906102e8565b5050565b61019a610210565b6001600160a01b0381166102045760405162461bcd60e51b815260206004820152602660248201527f4f776e61626c653a206e6577206f776e657220697320746865207a65726f206160448201526564647265737360d01b60648201526084015b60405180910390fd5b61020d8161026a565b50565b6000546001600160a01b031633146100fc5760405162461bcd60e51b815260206004820181905260248201527f4f776e61626c653a2063616c6c6572206973206e6f7420746865206f776e657260448201526064016101fb565b600080546001600160a01b038381166001600160a01b0319831681178455604051919092169283917f8be0079c531659141344cd1fd0a4f28419497f9722a3daafe3b4186f6b6457e09190a35050565b6000602082840312156102cb578081fd5b81356001600160a01b03811681146102e1578182fd5b9392505050565b6000602082840312156102f9578081fd5b815180151581146102e1578182fd5b600060208284031215610319578081fd5b503591905056fea264697066735822122047ad6b96d59b3eb82b1348952f7b34f1942233969fcfab41bd932ca5444d20ad64736f6c63430008040033",
  "linkReferences": {},
  "deployedLinkReferences": {}
}