{
  "_format": "hh-sol-artifact-1",
  "contractName": "PolygonBSG",
  "sourceName": "contracts/BSG.sol",
  "abi": [
    {
      "inputs": [
        {
          "internalType": "address",
          "name": "_usdtAddr",
          "type": "address"
        },
        {
          "internalType": "address",
          "name": "_defaultRefer",
          "type": "address"
        },
        {
          "internalType": "address",
          "name": "_insurance",
          "type": "address"
        },
        {
          "internalType": "address[2]",
          "name": "_feeReceivers",
          "type": "address[2]"
        }
      ],
      "stateMutability": "nonpayable",
      "type": "constructor"
    },
    {
      "anonymous": false,
      "inputs": [
        {
          "indexed": false,
          "internalType": "address",
          "name": "user",
          "type": "address"
        },
        {
          "indexed": false,
          "internalType": "uint256",
          "name": "amount",
          "type": "uint256"
        }
      ],
      "name": "Deposit",
      "type": "event"
    },
    {
      "anonymous": false,
      "inputs": [
        {
          "indexed": false,
          "internalType": "address",
          "name": "user",
          "type": "address"
        },
        {
          "indexed": false,
          "internalType": "uint256",
          "name": "amount",
          "type": "uint256"
        }
      ],
      "name": "DepositBylockusdt",
      "type": "event"
    },
    {
      "anonymous": false,
      "inputs": [
        {
          "indexed": false,
          "internalType": "address",
          "name": "user",
          "type": "address"
        },
        {
          "indexed": false,
          "internalType": "address",
          "name": "referral",
          "type": "address"
        }
      ],
      "name": "Register",
      "type": "event"
    },
    {
      "anonymous": false,
      "inputs": [
        {
          "indexed": false,
          "internalType": "address",
          "name": "user",
          "type": "address"
        },
        {
          "indexed": false,
          "internalType": "address",
          "name": "receiver",
          "type": "address"
        },
        {
          "indexed": false,
          "internalType": "uint256",
          "name": "amount",
          "type": "uint256"
        }
      ],
      "name": "TransferBylockusdt",
      "type": "event"
    },
    {
      "anonymous": false,
      "inputs": [
        {
          "indexed": false,
          "internalType": "address",
          "name": "user",
          "type": "address"
        },
        {
          "indexed": false,
          "internalType": "uint256",
          "name": "withdrawable",
          "type": "uint256"
        }
      ],
      "name": "Withdraw",
      "type": "event"
    },
    {
      "inputs": [],
      "name": "AllTimeHigh",
      "outputs": [
        {
          "internalType": "uint256",
          "name": "",
          "type": "uint256"
        }
      ],
      "stateMutability": "view",
      "type": "function"
    },
    {
      "inputs": [
        {
          "internalType": "address",
          "name": "_user",
          "type": "address"
        }
      ],
      "name": "_checkClaimable",
      "outputs": [
        {
          "internalType": "bool",
          "name": "",
          "type": "bool"
        }
      ],
      "stateMutability": "view",
      "type": "function"
    },
    {
      "inputs": [
        {
          "internalType": "address",
          "name": "_user",
          "type": "address"
        }
      ],
      "name": "_checkRegistered",
      "outputs": [
        {
          "internalType": "bool",
          "name": "",
          "type": "bool"
        }
      ],
      "stateMutability": "view",
      "type": "function"
    },
    {
      "inputs": [
        {
          "internalType": "uint256",
          "name": "",
          "type": "uint256"
        }
      ],
      "name": "balStatus",
      "outputs": [
        {
          "internalType": "bool",
          "name": "",
          "type": "bool"
        }
      ],
      "stateMutability": "view",
      "type": "function"
    },
    {
      "inputs": [
        {
          "internalType": "uint256",
          "name": "",
          "type": "uint256"
        }
      ],
      "name": "blueDiamondUsers",
      "outputs": [
        {
          "internalType": "address",
          "name": "",
          "type": "address"
        }
      ],
      "stateMutability": "view",
      "type": "function"
    },
    {
      "inputs": [],
      "name": "boosterIncomePool",
      "outputs": [
        {
          "internalType": "uint256",
          "name": "",
          "type": "uint256"
        }
      ],
      "stateMutability": "view",
      "type": "function"
    },
    {
      "inputs": [
        {
          "internalType": "address",
          "name": "_user",
          "type": "address"
        }
      ],
      "name": "checkBlueDiamondClaimCount",
      "outputs": [
        {
          "internalType": "uint256",
          "name": "",
          "type": "uint256"
        }
      ],
      "stateMutability": "view",
      "type": "function"
    },
    {
      "inputs": [
        {
          "internalType": "address",
          "name": "_user",
          "type": "address"
        }
      ],
      "name": "checkCrownDiamondClaimCount",
      "outputs": [
        {
          "internalType": "uint256",
          "name": "",
          "type": "uint256"
        }
      ],
      "stateMutability": "view",
      "type": "function"
    },
    {
      "inputs": [
        {
          "internalType": "address",
          "name": "_user",
          "type": "address"
        }
      ],
      "name": "checkDiamondMembership",
      "outputs": [
        {
          "internalType": "uint256",
          "name": "",
          "type": "uint256"
        }
      ],
      "stateMutability": "view",
      "type": "function"
    },
    {
      "inputs": [
        {
          "internalType": "uint256",
          "name": "",
          "type": "uint256"
        }
      ],
      "name": "crownDiamondUsers",
      "outputs": [
        {
          "internalType": "address",
          "name": "",
          "type": "address"
        }
      ],
      "stateMutability": "view",
      "type": "function"
    },
    {
      "inputs": [
        {
          "internalType": "uint256",
          "name": "",
          "type": "uint256"
        },
        {
          "internalType": "uint256",
          "name": "",
          "type": "uint256"
        }
      ],
      "name": "dayMore1kUsers",
      "outputs": [
        {
          "internalType": "address",
          "name": "",
          "type": "address"
        }
      ],
      "stateMutability": "view",
      "type": "function"
    },
    {
      "inputs": [],
      "name": "defaultRefer",
      "outputs": [
        {
          "internalType": "address",
          "name": "",
          "type": "address"
        }
      ],
      "stateMutability": "view",
      "type": "function"
    },
    {
      "inputs": [
        {
          "internalType": "uint256",
          "name": "amount",
          "type": "uint256"
        }
      ],
      "name": "deposit",
      "outputs": [],
      "stateMutability": "nonpayable",
      "type": "function"
    },
    {
      "inputs": [
        {
          "internalType": "uint256",
          "name": "amount",
          "type": "uint256"
        }
      ],
      "name": "depositBylockusdt",
      "outputs": [],
      "stateMutability": "nonpayable",
      "type": "function"
    },
    {
      "inputs": [
        {
          "internalType": "uint256",
          "name": "",
          "type": "uint256"
        }
      ],
      "name": "depositors",
      "outputs": [
        {
          "internalType": "address",
          "name": "",
          "type": "address"
        }
      ],
      "stateMutability": "view",
      "type": "function"
    },
    {
      "inputs": [],
      "name": "diamondIncomePool",
      "outputs": [
        {
          "internalType": "uint256",
          "name": "",
          "type": "uint256"
        }
      ],
      "stateMutability": "view",
      "type": "function"
    },
    {
      "inputs": [
        {
          "internalType": "uint256",
          "name": "",
          "type": "uint256"
        }
      ],
      "name": "diamondUsers",
      "outputs": [
        {
          "internalType": "address",
          "name": "",
          "type": "address"
        }
      ],
      "stateMutability": "view",
      "type": "function"
    },
    {
      "inputs": [],
      "name": "distributePoolRewards",
      "outputs": [],
      "stateMutability": "nonpayable",
      "type": "function"
    },
    {
      "inputs": [
        {
          "internalType": "uint256",
          "name": "",
          "type": "uint256"
        }
      ],
      "name": "feeReceivers",
      "outputs": [
        {
          "internalType": "address",
          "name": "",
          "type": "address"
        }
      ],
      "stateMutability": "view",
      "type": "function"
    },
    {
      "inputs": [
        {
          "internalType": "address",
          "name": "_user",
          "type": "address"
        }
      ],
      "name": "getActiveTeam",
      "outputs": [
        {
          "internalType": "uint256",
          "name": "",
          "type": "uint256"
        }
      ],
      "stateMutability": "view",
      "type": "function"
    },
    {
      "inputs": [
        {
          "internalType": "address",
          "name": "_user",
          "type": "address"
        }
      ],
      "name": "getActiveTeamReward",
      "outputs": [
        {
          "internalType": "uint256",
          "name": "",
          "type": "uint256"
        }
      ],
      "stateMutability": "view",
      "type": "function"
    },
    {
      "inputs": [
        {
          "internalType": "address",
          "name": "_user",
          "type": "address"
        }
      ],
      "name": "getActiveTeambyDepth",
      "outputs": [
        {
          "internalType": "uint256",
          "name": "",
          "type": "uint256"
        }
      ],
      "stateMutability": "view",
      "type": "function"
    },
    {
      "inputs": [],
      "name": "getCurDay",
      "outputs": [
        {
          "internalType": "uint256",
          "name": "",
          "type": "uint256"
        }
      ],
      "stateMutability": "view",
      "type": "function"
    },
    {
      "inputs": [
        {
          "internalType": "address",
          "name": "_user",
          "type": "address"
        }
      ],
      "name": "getCurclaimableusdt",
      "outputs": [
        {
          "internalType": "uint256",
          "name": "",
          "type": "uint256"
        }
      ],
      "stateMutability": "view",
      "type": "function"
    },
    {
      "inputs": [
        {
          "internalType": "address",
          "name": "_user",
          "type": "address"
        }
      ],
      "name": "getCurlockusdt",
      "outputs": [
        {
          "internalType": "uint256",
          "name": "",
          "type": "uint256"
        }
      ],
      "stateMutability": "view",
      "type": "function"
    },
    {
      "inputs": [
        {
          "internalType": "uint256",
          "name": "_day",
          "type": "uint256"
        }
      ],
      "name": "getDayMore1kLength",
      "outputs": [
        {
          "internalType": "uint256",
          "name": "",
          "type": "uint256"
        }
      ],
      "stateMutability": "view",
      "type": "function"
    },
    {
      "inputs": [],
      "name": "getDepositorsLength",
      "outputs": [
        {
          "internalType": "uint256",
          "name": "",
          "type": "uint256"
        }
      ],
      "stateMutability": "view",
      "type": "function"
    },
    {
      "inputs": [
        {
          "internalType": "address",
          "name": "_user",
          "type": "address"
        }
      ],
      "name": "getDiamondReward",
      "outputs": [
        {
          "internalType": "uint256",
          "name": "",
          "type": "uint256"
        }
      ],
      "stateMutability": "view",
      "type": "function"
    },
    {
      "inputs": [
        {
          "internalType": "address",
          "name": "_user",
          "type": "address"
        }
      ],
      "name": "getMaxFreezing",
      "outputs": [
        {
          "internalType": "uint256",
          "name": "",
          "type": "uint256"
        }
      ],
      "stateMutability": "view",
      "type": "function"
    },
    {
      "inputs": [
        {
          "internalType": "address",
          "name": "_user",
          "type": "address"
        }
      ],
      "name": "getMyTeamNumbers",
      "outputs": [
        {
          "internalType": "uint256",
          "name": "",
          "type": "uint256"
        }
      ],
      "stateMutability": "view",
      "type": "function"
    },
    {
      "inputs": [
        {
          "internalType": "address",
          "name": "_user",
          "type": "address"
        }
      ],
      "name": "getOrderLength",
      "outputs": [
        {
          "internalType": "uint256",
          "name": "",
          "type": "uint256"
        }
      ],
      "stateMutability": "view",
      "type": "function"
    },
    {
      "inputs": [
        {
          "internalType": "address",
          "name": "_user",
          "type": "address"
        }
      ],
      "name": "getTeamDeposit",
      "outputs": [
        {
          "internalType": "uint256",
          "name": "",
          "type": "uint256"
        }
      ],
      "stateMutability": "view",
      "type": "function"
    },
    {
      "inputs": [
        {
          "internalType": "address",
          "name": "_user",
          "type": "address"
        }
      ],
      "name": "getTeamUsersLength",
      "outputs": [
        {
          "internalType": "uint256",
          "name": "",
          "type": "uint256"
        }
      ],
      "stateMutability": "view",
      "type": "function"
    },
    {
      "inputs": [
        {
          "internalType": "address",
          "name": "_user",
          "type": "address"
        },
        {
          "internalType": "uint256",
          "name": "_layer",
          "type": "uint256"
        }
      ],
      "name": "getTeamUsersLengthwithDepth",
      "outputs": [
        {
          "internalType": "uint256",
          "name": "",
          "type": "uint256"
        }
      ],
      "stateMutability": "view",
      "type": "function"
    },
    {
      "inputs": [],
      "name": "insuranceAccount",
      "outputs": [
        {
          "internalType": "address",
          "name": "",
          "type": "address"
        }
      ],
      "stateMutability": "view",
      "type": "function"
    },
    {
      "inputs": [],
      "name": "insurancePool",
      "outputs": [
        {
          "internalType": "uint256",
          "name": "",
          "type": "uint256"
        }
      ],
      "stateMutability": "view",
      "type": "function"
    },
    {
      "inputs": [],
      "name": "isFreezeReward",
      "outputs": [
        {
          "internalType": "bool",
          "name": "",
          "type": "bool"
        }
      ],
      "stateMutability": "view",
      "type": "function"
    },
    {
      "inputs": [],
      "name": "isStopLoss30ofATH",
      "outputs": [
        {
          "internalType": "bool",
          "name": "",
          "type": "bool"
        }
      ],
      "stateMutability": "view",
      "type": "function"
    },
    {
      "inputs": [],
      "name": "isStopLoss50ofATH",
      "outputs": [
        {
          "internalType": "bool",
          "name": "",
          "type": "bool"
        }
      ],
      "stateMutability": "view",
      "type": "function"
    },
    {
      "inputs": [],
      "name": "lastDistribute",
      "outputs": [
        {
          "internalType": "uint256",
          "name": "",
          "type": "uint256"
        }
      ],
      "stateMutability": "view",
      "type": "function"
    },
    {
      "inputs": [],
      "name": "more1kIncomePool",
      "outputs": [
        {
          "internalType": "uint256",
          "name": "",
          "type": "uint256"
        }
      ],
      "stateMutability": "view",
      "type": "function"
    },
    {
      "inputs": [
        {
          "internalType": "address",
          "name": "",
          "type": "address"
        },
        {
          "internalType": "uint256",
          "name": "",
          "type": "uint256"
        }
      ],
      "name": "myTeamUsers",
      "outputs": [
        {
          "internalType": "address",
          "name": "",
          "type": "address"
        }
      ],
      "stateMutability": "view",
      "type": "function"
    },
    {
      "inputs": [
        {
          "internalType": "address",
          "name": "",
          "type": "address"
        },
        {
          "internalType": "uint256",
          "name": "",
          "type": "uint256"
        }
      ],
      "name": "orderInfos",
      "outputs": [
        {
          "internalType": "uint256",
          "name": "cycle",
          "type": "uint256"
        },
        {
          "internalType": "uint256",
          "name": "amount",
          "type": "uint256"
        },
        {
          "internalType": "uint256",
          "name": "start",
          "type": "uint256"
        },
        {
          "internalType": "uint256",
          "name": "unfreeze",
          "type": "uint256"
        },
        {
          "internalType": "bool",
          "name": "isClaimed",
          "type": "bool"
        }
      ],
      "stateMutability": "view",
      "type": "function"
    },
    {
      "inputs": [
        {
          "internalType": "address",
          "name": "_referral",
          "type": "address"
        }
      ],
      "name": "register",
      "outputs": [],
      "stateMutability": "nonpayable",
      "type": "function"
    },
    {
      "inputs": [
        {
          "internalType": "address",
          "name": "",
          "type": "address"
        }
      ],
      "name": "rewardInfo",
      "outputs": [
        {
          "internalType": "uint256",
          "name": "capitals",
          "type": "uint256"
        },
        {
          "internalType": "uint256",
          "name": "statics",
          "type": "uint256"
        },
        {
          "internalType": "uint256",
          "name": "directs",
          "type": "uint256"
        },
        {
          "internalType": "uint256",
          "name": "levelReleased",
          "type": "uint256"
        },
        {
          "internalType": "uint256",
          "name": "infinityBonusReleased",
          "type": "uint256"
        },
        {
          "internalType": "uint256",
          "name": "cycleNumber",
          "type": "uint256"
        },
        {
          "internalType": "uint256",
          "name": "more1k",
          "type": "uint256"
        },
        {
          "internalType": "uint256",
          "name": "lockusdt",
          "type": "uint256"
        },
        {
          "internalType": "uint256",
          "name": "lockusdtDebt",
          "type": "uint256"
        }
      ],
      "stateMutability": "view",
      "type": "function"
    },
    {
      "inputs": [],
      "name": "startTime",
      "outputs": [
        {
          "internalType": "uint256",
          "name": "",
          "type": "uint256"
        }
      ],
      "stateMutability": "view",
      "type": "function"
    },
    {
      "inputs": [
        {
          "internalType": "address",
          "name": "",
          "type": "address"
        },
        {
          "internalType": "uint256",
          "name": "",
          "type": "uint256"
        },
        {
          "internalType": "uint256",
          "name": "",
          "type": "uint256"
        }
      ],
      "name": "teamUsers",
      "outputs": [
        {
          "internalType": "address",
          "name": "",
          "type": "address"
        }
      ],
      "stateMutability": "view",
      "type": "function"
    },
    {
      "inputs": [],
      "name": "totalUser",
      "outputs": [
        {
          "internalType": "uint256",
          "name": "",
          "type": "uint256"
        }
      ],
      "stateMutability": "view",
      "type": "function"
    },
    {
      "inputs": [
        {
          "internalType": "address",
          "name": "_receiver",
          "type": "address"
        },
        {
          "internalType": "uint256",
          "name": "_amount",
          "type": "uint256"
        }
      ],
      "name": "transferBylockusdt",
      "outputs": [],
      "stateMutability": "nonpayable",
      "type": "function"
    },
    {
      "inputs": [],
      "name": "usdt",
      "outputs": [
        {
          "internalType": "contract IERC20",
          "name": "",
          "type": "address"
        }
      ],
      "stateMutability": "view",
      "type": "function"
    },
    {
      "inputs": [
        {
          "internalType": "address",
          "name": "",
          "type": "address"
        }
      ],
      "name": "userInfo",
      "outputs": [
        {
          "internalType": "address",
          "name": "referrer",
          "type": "address"
        },
        {
          "internalType": "uint256",
          "name": "start",
          "type": "uint256"
        },
        {
          "internalType": "uint256",
          "name": "level",
          "type": "uint256"
        },
        {
          "internalType": "uint256",
          "name": "maxDeposit",
          "type": "uint256"
        },
        {
          "internalType": "uint256",
          "name": "totalDeposit",
          "type": "uint256"
        },
        {
          "internalType": "uint256",
          "name": "teamNum",
          "type": "uint256"
        },
        {
          "internalType": "uint256",
          "name": "teamTotalDeposit",
          "type": "uint256"
        },
        {
          "internalType": "uint256",
          "name": "teamTotalVolume",
          "type": "uint256"
        },
        {
          "internalType": "uint256",
          "name": "totalFreezed",
          "type": "uint256"
        },
        {
          "internalType": "uint256",
          "name": "totalRevenue",
          "type": "uint256"
        },
        {
          "internalType": "uint256",
          "name": "membership",
          "type": "uint256"
        },
        {
          "internalType": "uint256",
          "name": "directBonusCount",
          "type": "uint256"
        }
      ],
      "stateMutability": "view",
      "type": "function"
    },
    {
      "inputs": [],
      "name": "withdraw",
      "outputs": [],
      "stateMutability": "nonpayable",
      "type": "function"
    }
  ],
  "bytecode": "0x6102006040526101f46080908152606460a081905260c860c081905260e0829052610100526101208190526101408190526101608190526101808190526101a05260326101c08190526101e0526200005c90600190600c6200012c565b50604080516060810182526117708152611f406020820152612af8918101919091526200008e90600290600362000182565b50601e805462ffffff19169055348015620000a857600080fd5b5060405162003c4338038062003c43833981016040819052620000cb9162000237565b600080546001600160a01b038087166001600160a01b031992831617909255600b8054868416908316179055600a805492851692909116919091179055620001176008826002620001b8565b505042600c819055600d555062000317915050565b82805482825590600052602060002090810192821562000170579160200282015b8281111562000170578251829061ffff169055916020019190600101906200014d565b506200017e92915062000203565b5090565b826005810192821562000170579160200282018281111562000170578251829061ffff169055916020019190600101906200014d565b826002810192821562000170579160200282015b828111156200017057825182546001600160a01b0319166001600160a01b03909116178255602090920191600190910190620001cc565b5b808211156200017e576000815560010162000204565b80516001600160a01b03811681146200023257600080fd5b919050565b60008060008060a085870312156200024d578384fd5b62000258856200021a565b93506020620002698187016200021a565b935062000279604087016200021a565b925086607f8701126200028a578182fd5b604080519081016001600160401b0381118282101715620002af57620002af62000301565b604052806060880160a089018a1015620002c7578485fd5b845b6002811015620002f157620002de826200021a565b83529184019190840190600101620002c9565b5096999598509396509450505050565b634e487b7160e01b600052604160045260246000fd5b61391c80620003276000396000f3fe608060405234801561001057600080fd5b506004361061030b5760003560e01c806370abe5fe1161019d578063ab2adc00116100e9578063dd853c2f116100a2578063e28aa97a1161007c578063e28aa97a1461085d578063e402a07114610870578063e4b2fb7914610883578063fda92ce51461089657600080fd5b8063dd853c2f14610818578063de6b8a2e1461082b578063e1604b701461085457600080fd5b8063ab2adc0014610723578063ae97397e1461072c578063b6b55f251461073f578063cbecf6b514610752578063cc38c8a0146107f2578063d0c85cfe1461080557600080fd5b806383fb8af7116101565780638b5a432a116101305780638b5a432a146106b1578063991e7668146106c4578063a71c9036146106f0578063aa0204f91461070357600080fd5b806383fb8af71461066257806385a6327c1461067557806386dd5eb01461068857600080fd5b806370abe5fe146105dc578063732cef43146105e457806373cb4d05146106075780637647e0ff1461061a57806378e97925146106465780638258ccf21461064f57600080fd5b80633955782b1161025c5780634e506831116102155780636a6e76b3116101ef5780636a6e76b3146105a05780636ab7c982146105b35780636e70c235146105c65780636f0110d3146105cf57600080fd5b80634e5068311461053e5780635b3817601461055057806360a1cbd71461056357600080fd5b80633955782b146104eb5780633ccfd60b146104fe5780633fdfd4c21461050657806341e8a718146105195780634420e4861461052257806347d673391461053557600080fd5b80631efbbb36116102c95780632e2f9aa9116102a35780632e2f9aa9146104925780632f48ab7d146104a55780632fea20f6146104d057806330538c32146104d857600080fd5b80631efbbb36146104595780632489a2231461046c5780632c45ab541461047f57600080fd5b8062a7a56e14610310578063069570e21461032b5780630cf9310a146103345780631959a0021461035757806319c4c518146104315780631d606ed214610444575b600080fd5b61031861089f565b6040519081526020015b60405180910390f35b61031860135481565b610347610342366004613708565b6108c6565b6040519015158152602001610322565b6103ce610365366004613708565b601a60205260009081526040902080546001820154600283015460038401546004850154600586015460068701546007880154600889015460098a0154600a8b0154600b909b01546001600160a01b03909a169a9899979896979596949593949293919290918c565b604080516001600160a01b03909d168d5260208d019b909b52998b019890985260608a0196909652608089019490945260a088019290925260c087015260e086015261010085015261012084015261014083015261016082015261018001610322565b61031861043f366004613708565b6108fd565b610457610452366004613722565b610a0c565b005b610318610467366004613708565b610bee565b601e546103479062010000900460ff1681565b61034761048d366004613708565b610d0c565b6103186104a0366004613708565b610da7565b6000546104b8906001600160a01b031681565b6040516001600160a01b039091168152602001610322565b601954610318565b6104b86104e636600461379d565b610e26565b6104b86104f936600461379d565b610e50565b610457610e60565b610318610514366004613708565b61138f565b61031860105481565b610457610530366004613708565b6113b6565b610318600d5481565b601e5461034790610100900460ff1681565b6104b861055e36600461379d565b61155c565b610576610571366004613722565b61157c565b6040805195865260208601949094529284019190915260608301521515608082015260a001610322565b6103186105ae366004613708565b6115cd565b6103186105c1366004613708565b611644565b61031860125481565b601e546103479060ff1681565b610457611761565b6103476105f236600461379d565b60076020526000908152604090205460ff1681565b6104b861061536600461374b565b611788565b610318610628366004613708565b6001600160a01b03166000908152601a602052604090206006015490565b610318600c5481565b61031861065d366004613708565b6117cd565b61045761067036600461379d565b611829565b600b546104b8906001600160a01b031681565b610318610696366004613708565b6001600160a01b03166000908152601c602052604090205490565b6104b86106bf3660046137cd565b6119e5565b6103186106d2366004613708565b6001600160a01b03166000908152601a602052604090206005015490565b6103186106fe366004613708565b611a1d565b61031861071136600461379d565b60009081526014602052604090205490565b610318600f5481565b61031861073a366004613722565b611ba6565b61045761074d36600461379d565b611be4565b6107ae610760366004613708565b601d6020528060005260406000206000915090508060000154908060010154908060020154908060030154908060040154908060050154908060060154908060070154908060080154905089565b60408051998a5260208a0198909852968801959095526060870193909352608086019190915260a085015260c084015260e083015261010082015261012001610322565b600a546104b8906001600160a01b031681565b6104b8610813366004613722565b611d1e565b610318610826366004613708565b611d3a565b610318610839366004613708565b6001600160a01b031660009081526018602052604090205490565b610318600e5481565b6104b861086b36600461379d565b6121cf565b61031861087e366004613708565b6121df565b6104b861089136600461379d565b612290565b61031860115481565b60006108c1603c6108bb600c54426122a090919063ffffffff16565b906122ac565b905090565b6001600160a01b038082166000908152601a6020526040812080549192909116156108f45750600192915050565b50600092915050565b6001600160a01b0381166000908152601c60205260408120805482805b82811015610a03576001600160a01b0386166000908152601c60205260408120805460189183918590811061095f57634e487b7160e01b600052603260045260246000fd5b60009182526020808320909101546001600160a01b0316835282019290925260400190208054909150156109f057805460009082906109a09060019061385d565b815481106109be57634e487b7160e01b600052603260045260246000fd5b90600052602060002090600502019050600081600301549050428111156109ed576109ea8560016122b8565b94505b50505b50806109fb8161388b565b91505061091a565b50949350505050565b610a1b6305f5e100600a6122ac565b8110158015610a405750610a3e610a376305f5e100600a6122ac565b82906122c4565b155b610a7e5760405162461bcd60e51b815260206004820152600a60248201526930b6b7bab73a1032b93960b11b60448201526064015b60405180910390fd5b6001600160a01b038281166000908152601a602052604090205416610ae55760405162461bcd60e51b815260206004820152601d60248201527f52656365697665722073686f756c642062652072656769737472616e740000006044820152606401610a75565b336000908152601d602052604090206007015481811015610b3e5760405162461bcd60e51b8152602060048201526013602482015272696e73756666696369656e7420696e636f6d6560681b6044820152606401610a75565b336000908152601d6020526040902060070154610b5b90836122a0565b336000908152601d60205260408082206007908101939093556001600160a01b038616825290200154610b8e90836122b8565b6001600160a01b0384166000908152601d60205260409081902060070191909155517f31c16c09f64d62f5f951a79f903c62bfa160a100f5037e6582506bd30f13e0c390610be1903390869086906137ee565b60405180910390a1505050565b600080805b600c811015610d05576001600160a01b0384166000908152601b602090815260408083208484529091528120805490915b81811015610cef576000838281548110610c4e57634e487b7160e01b600052603260045260246000fd5b60009182526020808320909101546001600160a01b03168083526018909152604090912080549192509015610cda5780546000908290610c909060019061385d565b81548110610cae57634e487b7160e01b600052603260045260246000fd5b906000526020600020906005020190504281600301541115610cd857610cd58860016122b8565b97505b505b50508080610ce79061388b565b915050610c24565b5050508080610cfd9061388b565b915050610bf3565b5092915050565b6001600160a01b0381166000908152601d6020526040812060058101548290600211801590610d3b5750815415155b8015610d9f57506001600160a01b03841660009081526018602052604090206005830154429190610d6d9060026122a0565b81548110610d8b57634e487b7160e01b600052603260045260246000fd5b906000526020600020906005020160030154105b949350505050565b60175460009081805b82811015610e1e57846001600160a01b031660178281548110610de357634e487b7160e01b600052603260045260246000fd5b6000918252602090912001546001600160a01b03161415610e0c57610e098260016122b8565b91505b80610e168161388b565b915050610db0565b509392505050565b60178181548110610e3657600080fd5b6000918252602090912001546001600160a01b0316905081565b60168181548110610e3657600080fd5b336000908152601d60209081526040808320601890925282206005820154919291429190610e8f9060026122a0565b81548110610ead57634e487b7160e01b600052603260045260246000fd5b906000526020600020906005020160030154108015610ecc5750815415155b9050600181151514610f465760405162461bcd60e51b815260206004820152603760248201527f43616e7420636c61696d2c20506c6561736520636865636b207374616b65206460448201527f61746520616e64206465706f73697420737461747573210000000000000000006064820152608401610a75565b610f4e611761565b600080610f5a336122d0565b90925090508082600080610f6d3361231e565b9092509050610f7c83836122b8565b9250610f8884826122b8565b336000908152601a60205260409020600981015491955090610fb6908690610fb090876122b8565b906122b8565b6009820155610fd3610fc885876122b8565b6008830154906122a0565b60088201556007890154610fe790866122b8565b60078a0155600060018a0181905560038a0181905560048a0181905560068a015588546110159085906122b8565b9350611025338a600001546123d9565b6000808a555460405163a9059cbb60e01b8152336004820152602481018690526001600160a01b039091169063a9059cbb90604401602060405180830381600087803b15801561107457600080fd5b505af1158015611088573d6000803e3d6000fd5b505050506040513d601f19601f820116820180604052508101906110ac919061377d565b5060006110b833611a1d565b905080600414156111bf5760006110ce33610da7565b9050600a8110156111b9576017805460018101825560009182527fc624b66cc0138b8fabc209247f72d758e1cf3343756d543badbf24212bed8c150180546001600160a01b0319163317905554600a5460405163a9059cbb60e01b81526001600160a01b0391821660048201526302faf080602482015291169063a9059cbb90604401602060405180830381600087803b15801561116b57600080fd5b505af115801561117f573d6000803e3d6000fd5b505050506040513d601f19601f820116820180604052508101906111a3919061377d565b50600f546111b5906302faf0806122b8565b600f555b506112c0565b80600314156112c05760006111d3336115cd565b905060148110156112be576016805460018101825560009182527fd833147d7dc355ba459fc788f669e58cfaf9dc25ddcd0702e87d69c7b51242890180546001600160a01b0319163317905554600a5460405163a9059cbb60e01b81526001600160a01b03918216600482015263017d7840602482015291169063a9059cbb90604401602060405180830381600087803b15801561127057600080fd5b505af1158015611284573d6000803e3d6000fd5b505050506040513d601f19601f820116820180604052508101906112a8919061377d565b50600f546112ba9063017d78406122b8565b600f555b505b600080546040516370a0823160e01b81523060048201526001600160a01b03909116906370a082319060240160206040518083038186803b15801561130457600080fd5b505afa158015611318573d6000803e3d6000fd5b505050506040513d601f19601f8201168201806040525081019061133c91906137b5565b90506113498160006124aa565b60408051338152602081018890527f884edad9ce6fa2440d8a54cc123490eb96d2768479d49ff9c7366125a9424364910160405180910390a15050505050505050505050565b60008061139b836122d0565b50905060006113a98461231e565b509050610d9f82826122b8565b6001600160a01b0381166000908152601a60205260409020600401541515806113ec5750600b546001600160a01b038281169116145b6114285760405162461bcd60e51b815260206004820152600d60248201526c34b73b30b634b2103932b332b960991b6044820152606401610a75565b336000908152601a6020526040902080546001600160a01b0316156114815760405162461bcd60e51b815260206004820152600f60248201526e1c9959995c9c995c88189bdb991959608a1b6044820152606401610a75565b80546001600160a01b0319166001600160a01b0383161781554260018201556114a93361258a565b6001600160a01b0382166000818152601c6020908152604080832080546001810182559084528284200180546001600160a01b03191633908117909155848452601a909252909120911461150d5760058101546115079060016122b8565b60058201555b600e5461151b9060016122b8565b600e55604080513381526001600160a01b03851660208201527f98ada70a1cb506dc4591465e1ee9be3fd7a2b6c73ecf3b949009718c9a3515199101610be1565b6008816002811061156c57600080fd5b01546001600160a01b0316905081565b6018602052816000526040600020818154811061159857600080fd5b600091825260209091206005909102018054600182015460028301546003840154600490940154929550909350919060ff1685565b60165460009081805b82811015610e1e57846001600160a01b03166016828154811061160957634e487b7160e01b600052603260045260246000fd5b6000918252602090912001546001600160a01b031614156116325761162f8260016122b8565b91505b8061163c8161388b565b9150506115d6565b6001600160a01b0381166000908152601c60205260408120805482805b82811015610a03576001600160a01b0386166000908152601c6020526040812080546018918391859081106116a657634e487b7160e01b600052603260045260246000fd5b60009182526020808320909101546001600160a01b03168352820192909252604001902080549091501561174e57805460009082906116e79060019061385d565b8154811061170557634e487b7160e01b600052603260045260246000fd5b906000526020600020906005020190506000816003015490504281111561174b5760018201546117476117406127106108bb846101f4612670565b87906122b8565b9550505b50505b50806117598161388b565b915050611661565b600d5461176f90603c6122b8565b42111561178657426117808161267c565b5042600d555b565b601b60205282600052604060002060205281600052604060002081815481106117b057600080fd5b6000918252602090912001546001600160a01b0316925083915050565b6000806117d9836122d0565b91505060006117e78461231e565b6001600160a01b0386166000908152601d602052604090206008810154600790910154919350610d9f925090611823908490610fb090876122b8565b906122a0565b600061183882620f4240612670565b90506118496305f5e10060026122ac565b81101580156118675750611865610a376305f5e10060026122ac565b155b6118a05760405162461bcd60e51b815260206004820152600a60248201526930b6b7bab73a1032b93960b11b6044820152606401610a75565b33600090815260186020526040902054156119115760405162461bcd60e51b815260206004820152602b60248201527f4669727374206465706f7369746f72732063616e206f6e6c792075736520746860448201526a34b990333ab731ba34b7b760a91b6064820152608401610a75565b336000908152601d6020526040902060070154818111156119745760405162461bcd60e51b815260206004820152601b60248201527f696e73756666696369656e74206672657368206c6f636b7573647400000000006044820152606401610a75565b336000818152601d602052604081206007015561199a9061199584846122b8565b612787565b7f07302eff02da419ed556321e69ca94ba35733d9e5910897626312a691b6b22cc336119c684846122b8565b604080516001600160a01b039093168352602083019190915201610be1565b60146020528160005260406000208181548110611a0157600080fd5b6000918252602090912001546001600160a01b03169150829050565b6001600160a01b0381166000908152601860209081526040808320601a909252822081548392839283928392839283928015611b9257600083611a6160018461385d565b81548110611a7f57634e487b7160e01b600052603260045260246000fd5b906000526020600020906005020190508060010154985082600501549750611aa68c611644565b9650611ab3876014612670565b9650611abe8c610bee565b955082600701549450639502f9008910158015611adc5750600f8810155b8015611aed575064037e11d6008710155b8015611afb57506101908610155b8015611b0c575064746a5288008510155b15611b1a5760049950611b8c565b639502f9008910158015611b2f5750600a8810155b8015611b4057506402540be4008710155b8015611b4d575060b48610155b8015611b5e575064174876e8008510155b15611b6c5760039950611b8c565b60288610158015611b8257506404a817c8008510155b15611b8c57600299505b50611b97565b600098505b50969998505050505050505050565b6000600c8210611bb857506000611bde565b506001600160a01b0382166000908152601b602090815260408083208484529091529020545b92915050565b6000611bf382620f4240612670565b9050611c03816305f5e1006122c4565b15611c505760405162461bcd60e51b815260206004820181905260248201527f616d6f756e742073686f756c64206265206d756c7469706c65206f66203130306044820152606401610a75565b6000546040516323b872dd60e01b81526001600160a01b03909116906323b872dd90611c84903390309086906004016137ee565b602060405180830381600087803b158015611c9e57600080fd5b505af1158015611cb2573d6000803e3d6000fd5b505050506040513d601f19601f82011682018060405250810190611cd6919061377d565b50611ce13382612787565b60408051338152602081018390527fe1fffcc4923d04b559f4d29a8bfc6cda04eb5b0d3c460751c2402c5c5cc9109c910160405180910390a15050565b601c6020528160005260406000208181548110611a0157600080fd5b600080611d4683611a1d565b90506000600282106121c8578160041415611efd576000611d6685610da7565b9050600a811015611ef75760005b600c811015611ed0576001600160a01b0386166000908152601b602090815260408083208484529091528120905b8154811015611ebb57600060186000848481548110611dd157634e487b7160e01b600052603260045260246000fd5b60009182526020808320909101546001600160a01b031683528201929092526040019020805490915015611ea85780546000908290611e129060019061385d565b81548110611e3057634e487b7160e01b600052603260045260246000fd5b906000526020600020906005020190504281600301541115611ea657611ea3611e9c6127106108bb61019060018a81548110611e7c57634e487b7160e01b600052603260045260246000fd5b9060005260206000200154611e919190613812565b600186015490612670565b88906122b8565b96505b505b5080611eb38161388b565b915050611da2565b50508080611ec89061388b565b915050611d74565b506302faf080821115611ef257611eeb826302faf0806122a0565b9150611ef7565b600091505b506121c8565b816003141561208a576000611f11856115cd565b90506014811015611ef75760005b600c81101561206f576001600160a01b0386166000908152601b602090815260408083208484529091528120905b815481101561205a57600060186000848481548110611f7c57634e487b7160e01b600052603260045260246000fd5b60009182526020808320909101546001600160a01b0316835282019290925260400190208054909150156120475780546000908290611fbd9060019061385d565b81548110611fdb57634e487b7160e01b600052603260045260246000fd5b90600052602060002090600502019050428160030154111561204557612042611e9c6127106108bb6001898154811061202457634e487b7160e01b600052603260045260246000fd5b9060005260206000200154856001015461267090919063ffffffff16565b96505b505b50806120528161388b565b915050611f4d565b505080806120679061388b565b915050611f1f565b5063017d7840821115611ef257611eeb8263017d78406122a0565b81600214156121c85760005b6005811015610e1e576001600160a01b0385166000908152601b602090815260408083208484529091528120905b81548110156121b3576000601860008484815481106120f357634e487b7160e01b600052603260045260246000fd5b60009182526020808320909101546001600160a01b0316835282019290925260400190208054909150156121a057805460009082906121349060019061385d565b8154811061215257634e487b7160e01b600052603260045260246000fd5b90600052602060002090600502019050428160030154111561219e5761219b6117406127106108bb6001898154811061202457634e487b7160e01b600052603260045260246000fd5b95505b505b50806121ab8161388b565b9150506120c4565b505080806121c09061388b565b915050612096565b9392505050565b60158181548110610e3657600080fd5b6001600160a01b03811660009081526018602052604081205481905b8015610d05576001600160a01b038416600090815260186020526040812061222460018461385d565b8154811061224257634e487b7160e01b600052603260045260246000fd5b90600052602060002090600502019050428160030154111561227757828160010154111561227257806001015492505b61227d565b50610d05565b508061228881613874565b9150506121fb565b60198181548110610e3657600080fd5b60006121c8828461385d565b60006121c8828461382a565b60006121c88284613812565b60006121c882846138a6565b6001600160a01b0381166000908152601d602052604081206001810154829190826123036127106108bb84610bb8612670565b9050600061231183836122a0565b9791965090945050505050565b6001600160a01b0381166000908152601d60205260408120819081808061234487611a1d565b90506002811061235e5761235787611d3a565b915061236a565b61236787611644565b91505b61237483836122b8565b925061238d8460060154846122b890919063ffffffff16565b92506123a68460040154846122b890919063ffffffff16565b925060006123bc6127106108bb86610bb8612670565b905060006123ca85836122a0565b99919850909650505050505050565b6001600160a01b038083166000908152601a60205260409020805490911680158015906124185750836001600160a01b0316816001600160a01b031614155b156124a4576001600160a01b0381166000908152601a6020526040902060060154831015612487576001600160a01b0381166000908152601a602052604090206006015461246690846122a0565b6001600160a01b0382166000908152601a60205260409020600601556124a4565b6001600160a01b0381166000908152601a60205260408120600601555b50505050565b8015612531576124b8612bc8565b60055b801561252c576007600060026124d260018561385d565b600581106124f057634e487b7160e01b600052603260045260246000fd5b0154815260208101919091526040016000205460ff161561251a57601e805460ff19169055505050565b8061252481613874565b9150506124bb565b505050565b60055b801561252c576125586127106108bb61254f82610bb86122a0565b60135490612670565b83101561257457601e805460ff1916600117905561252c612bc8565b8061257e81613874565b915050612534565b5050565b6001600160a01b038082166000908152601a602052604081208054909216905b600c8110156124a4576001600160a01b038216158015906125dd5750816001600160a01b0316846001600160a01b031614155b15612659576001600160a01b038281166000818152601b6020908152604080832086845282528220805460018101825590835291200180546001600160a01b031916878416179055600b549091161415612636576124a4565b6001600160a01b039182166000908152601a60205260409020549091169061265e565b6124a4565b806126688161388b565b9150506125aa565b60006121c8828461383e565b600060148161268c60018561385d565b81526020810191909152604001600020549050801561258657805b801561277d5760006014816126bd60018761385d565b81526020019081526020016000206001836126d8919061385d565b815481106126f657634e487b7160e01b600052603260045260246000fd5b6000918252602090912001546001600160a01b03169050801561276a5760115460009061272390856122ac565b6001600160a01b0383166000908152601d602052604090206006015490915061274c90826122b8565b6001600160a01b0383166000908152601d6020526040902060060155505b508061277581613874565b9150506126a7565b5060006011555050565b6001600160a01b038083166000908152601a6020526040902080549091166127fd5760405162461bcd60e51b8152602060048201526024808201527f7265676973746572206669727374207769746820726566657272616c206164646044820152637265737360e01b6064820152608401610a75565b6305f5e1008210156128515760405162461bcd60e51b815260206004820152601b60248201527f73686f756c64206265206d6f7265207468616e206d696e2031303000000000006044820152606401610a75565b639502f9008211156128a55760405162461bcd60e51b815260206004820152601c60248201527f73686f756c64206265206c657373207468616e206d696e2032353030000000006044820152606401610a75565b600381015415806128ba575080600301548210155b6129215760405162461bcd60e51b815260206004820152603260248201527f6e657874206465706f7369742073686f756c6420626520657175616c206f72206044820152716d6f7265207468616e2070726576696f757360701b6064820152608401610a75565b6003810154612936576003810182905561294a565b818160030154101561294a57600381018290555b61295382612d2b565b60048101541580156129695750633b9aca008210155b156129b157600061297861089f565b60009081526014602090815260408220805460018101825590835291200180546001600160a01b0319166001600160a01b038616179055505b6129ba83612fa0565b60048101546129c990836122b8565b600482015560088101546129dd90836122b8565b60088201556129eb83613060565b6001600160a01b0383166000908152601d6020526040902060058101546023908111612a2357612a1c81603c612670565b9050612a36565b6005820154612a3390603c612670565b90505b6000612a4782610fb042603c6122b8565b6001600160a01b0387166000908152601860209081526040808320815160a0810183526005898101805483528286018d8152429584019586526060840189815260808501898152865460018082018955978b5298909920945197909302909301958655915185840155925160028501559151600384015592516004909201805460ff19169215159290921790915554919250612ae391906122b8565b6005840155612af1866131c0565b612af9611761565b612b0386866133e9565b612b0d86866134a6565b600080546040516370a0823160e01b81523060048201526001600160a01b03909116906370a082319060240160206040518083038186803b158015612b5157600080fd5b505afa158015612b65573d6000803e3d6000fd5b505050506040513d601f19601f82011682018060405250810190612b8991906137b5565b9050612b94816135e6565b601e5460ff1615612baf57612baa8160016124aa565b612bbf565b806013541015612bbf5760138190555b50505050505050565b60008054600a54604051636eb1769f60e11b81526001600160a01b03918216600482015230602482015291169063dd62ed3e9060440160206040518083038186803b158015612c1657600080fd5b505afa158015612c2a573d6000803e3d6000fd5b505050506040513d601f19601f82011682018060405250810190612c4e91906137b5565b9050620f42408110612d2857600f54811115612cf057600054600a54600f546040516323b872dd60e01b81526001600160a01b03938416936323b872dd93612c9e939116913091906004016137ee565b602060405180830381600087803b158015612cb857600080fd5b505af1158015612ccc573d6000803e3d6000fd5b505050506040513d601f19601f82011682018060405250810190612586919061377d565b600054600a546040516323b872dd60e01b81526001600160a01b03928316926323b872dd92612c9e92911690309086906004016137ee565b50565b6000612d3e6127106108bb8460c8612670565b6000546008549192506001600160a01b039081169163a9059cbb9116612d658460026122ac565b6040516001600160e01b031960e085901b1681526001600160a01b0390921660048301526024820152604401602060405180830381600087803b158015612dab57600080fd5b505af1158015612dbf573d6000803e3d6000fd5b505050506040513d601f19601f82011682018060405250810190612de3919061377d565b506000546001600160a01b031663a9059cbb6008600101546001600160a01b0316612e0f8460026122ac565b6040516001600160e01b031960e085901b1681526001600160a01b0390921660048301526024820152604401602060405180830381600087803b158015612e5557600080fd5b505af1158015612e69573d6000803e3d6000fd5b505050506040513d601f19601f82011682018060405250810190612e8d919061377d565b506000612ea16127106108bb856032612670565b600054600a5460405163a9059cbb60e01b81526001600160a01b03918216600482015260248101849052929350169063a9059cbb90604401602060405180830381600087803b158015612ef357600080fd5b505af1158015612f07573d6000803e3d6000fd5b505050506040513d601f19601f82011682018060405250810190612f2b919061377d565b50600f54612f3990826122b8565b600f556000612f4f6127106108bb866032612670565b601054909150612f5f90826122b8565b6010556000612f756127106108bb876032612670565b601154909150612f8590826122b8565b6011819055601254612f96916122b8565b6012555050505050565b6000805b6019548110156130095760198181548110612fcf57634e487b7160e01b600052603260045260246000fd5b6000918252602090912001546001600160a01b0384811691161415612ff75760019150613009565b806130018161388b565b915050612fa4565b508061258657601980546001810182556000919091527f944998273e477b495144fb8794c914197f3ccb46be2900f4698fd0ef743c96950180546001600160a01b0384166001600160a01b03199091161790555050565b6001600160a01b0381166000908152601a6020526040902060058101546002118015906130a057506003810154613098906002612670565b816006015410155b156131b557639502f9008160030154101580156130c25750600f816005015410155b80156130d7575064037e11d600816006015410155b80156130ec575064746a528800816007015410155b156130fc576004600a8201555050565b639502f9008160030154101580156131195750600a816005015410155b801561312e57506402540be400816006015410155b8015613143575064174876e800816007015410155b15613153576003600a8201555050565b633b9aca0081600301541015801561317057506005816005015410155b801561318557506402540be400816006015410155b801561319a575064174876e800816007015410155b156131aa576002600a8201555050565b6001600a8201555050565b6000600a8201555050565b6001600160a01b0381166000908152601a60205260408120905b6001600160a01b03831660009081526018602052604090205481101561252c576001600160a01b038316600090815260186020526040812080548390811061323257634e487b7160e01b600052603260045260246000fd5b9060005260206000209060050201905080600301544211801561325a5750600481015460ff16155b801561328c57506001600160a01b0384166000908152601d60205260409020600501546132889060016122a0565b8154105b156133d657601e54600090610100900460ff16806132b25750601e5462010000900460ff165b156132bf575060006133c5565b60058460050154101580156132dd575064012a05f200846007015410155b15613308576133016127106108bb6107d0856001015461267090919063ffffffff16565b905061332a565b6133276127106108bb6105dc856001015461267090919063ffffffff16565b90505b6133496127106108bb614e20856001015461267090919063ffffffff16565b84600901541115613358575060005b60018201546001600160a01b0386166000908152601d602052604090205461337f916122b8565b6001600160a01b0386166000908152601d60205260409020908155600101546133a890826122b8565b6001600160a01b0386166000908152601d60205260409020600101555b5060048101805460ff191660011790555b50806133e18161388b565b9150506131da565b6001600160a01b038083166000908152601a60205260409020805490911680158015906134285750806001600160a01b0316846001600160a01b031614155b156124a4576001600160a01b0381166000908152601a602052604090206006015461345390846122b8565b6001600160a01b0382166000908152601a6020526040902060068101919091556007015461348190846122b8565b6001600160a01b0382166000908152601a60205260409020600701556124a481613060565b6001600160a01b038083166000908152601a60205260409020805490911680156124a45760005b600c8110156135df576001600160a01b038216158015906135005750846001600160a01b0316826001600160a01b031614155b156135c857600061354b6127106108bb6001858154811061353157634e487b7160e01b600052603260045260246000fd5b90600052602060002001548861267090919063ffffffff16565b6001600160a01b0384166000908152601d602052604090206003015490915061357490826122b8565b6001600160a01b038085166000818152601d6020526040902060030192909255600b541614156135a457506135df565b506001600160a01b039182166000908152601a6020526040902054909116906135cd565b6135df565b806135d78161388b565b9150506134cd565b5050505050565b60055b80156125865761362e6127106108bb600261360560018661385d565b6005811061362357634e487b7160e01b600052603260045260246000fd5b015460135490612670565b8210613689576001600760006002613646848661385d565b6005811061366457634e487b7160e01b600052603260045260246000fd5b015481526020810191909152604001600020805460ff19169115159190911790555050565b6000600781600261369b60018661385d565b600581106136b957634e487b7160e01b600052603260045260246000fd5b015481526020810191909152604001600020805460ff1916911515919091179055806136e481613874565b9150506135e9565b80356001600160a01b038116811461370357600080fd5b919050565b600060208284031215613719578081fd5b6121c8826136ec565b60008060408385031215613734578081fd5b61373d836136ec565b946020939093013593505050565b60008060006060848603121561375f578081fd5b613768846136ec565b95602085013595506040909401359392505050565b60006020828403121561378e578081fd5b815180151581146121c8578182fd5b6000602082840312156137ae578081fd5b5035919050565b6000602082840312156137c6578081fd5b5051919050565b600080604083850312156137df578182fd5b50508035926020909101359150565b6001600160a01b039384168152919092166020820152604081019190915260600190565b60008219821115613825576138256138ba565b500190565b600082613839576138396138d0565b500490565b6000816000190483118215151615613858576138586138ba565b500290565b60008282101561386f5761386f6138ba565b500390565b600081613883576138836138ba565b506000190190565b600060001982141561389f5761389f6138ba565b5060010190565b6000826138b5576138b56138d0565b500690565b634e487b7160e01b600052601160045260246000fd5b634e487b7160e01b600052601260045260246000fdfea26469706673582212202406caa632306919d709fbaced1666d2e117ef9bddbd4d8f5917148d129b8a3d64736f6c63430008040033",
  "linkReferences": {},
  "deployedLinkReferences": {}
}