{
  "_format": "hh-sol-artifact-1",
  "contractName": "PolygonBSG",
  "sourceName": "contracts/BSG.sol",
  "abi": [
    {
      "inputs": [
        {
          "internalType": "address",
          "name": "_usdtAddr",
          "type": "address"
        },
        {
          "internalType": "address",
          "name": "_defaultRefer",
          "type": "address"
        },
        {
          "internalType": "address",
          "name": "_insurance",
          "type": "address"
        },
        {
          "internalType": "address[2]",
          "name": "_feeReceivers",
          "type": "address[2]"
        }
      ],
      "stateMutability": "nonpayable",
      "type": "constructor"
    },
    {
      "anonymous": false,
      "inputs": [
        {
          "indexed": false,
          "internalType": "address",
          "name": "user",
          "type": "address"
        },
        {
          "indexed": false,
          "internalType": "uint256",
          "name": "amount",
          "type": "uint256"
        }
      ],
      "name": "Deposit",
      "type": "event"
    },
    {
      "anonymous": false,
      "inputs": [
        {
          "indexed": false,
          "internalType": "address",
          "name": "user",
          "type": "address"
        },
        {
          "indexed": false,
          "internalType": "uint256",
          "name": "amount",
          "type": "uint256"
        }
      ],
      "name": "DepositBylockusdt",
      "type": "event"
    },
    {
      "anonymous": false,
      "inputs": [
        {
          "indexed": false,
          "internalType": "address",
          "name": "user",
          "type": "address"
        },
        {
          "indexed": false,
          "internalType": "address",
          "name": "referral",
          "type": "address"
        }
      ],
      "name": "Register",
      "type": "event"
    },
    {
      "anonymous": false,
      "inputs": [
        {
          "indexed": false,
          "internalType": "address",
          "name": "user",
          "type": "address"
        },
        {
          "indexed": false,
          "internalType": "address",
          "name": "receiver",
          "type": "address"
        },
        {
          "indexed": false,
          "internalType": "uint256",
          "name": "amount",
          "type": "uint256"
        }
      ],
      "name": "TransferBylockusdt",
      "type": "event"
    },
    {
      "anonymous": false,
      "inputs": [
        {
          "indexed": false,
          "internalType": "address",
          "name": "user",
          "type": "address"
        },
        {
          "indexed": false,
          "internalType": "uint256",
          "name": "withdrawable",
          "type": "uint256"
        }
      ],
      "name": "Withdraw",
      "type": "event"
    },
    {
      "inputs": [],
      "name": "AllTimeHigh",
      "outputs": [
        {
          "internalType": "uint256",
          "name": "",
          "type": "uint256"
        }
      ],
      "stateMutability": "view",
      "type": "function"
    },
    {
      "inputs": [
        {
          "internalType": "address",
          "name": "_user",
          "type": "address"
        }
      ],
      "name": "_calCurDynamicRewards",
      "outputs": [
        {
          "internalType": "uint256",
          "name": "",
          "type": "uint256"
        },
        {
          "internalType": "uint256",
          "name": "",
          "type": "uint256"
        }
      ],
      "stateMutability": "view",
      "type": "function"
    },
    {
      "inputs": [
        {
          "internalType": "address",
          "name": "_user",
          "type": "address"
        }
      ],
      "name": "_calCurStaticRewards",
      "outputs": [
        {
          "internalType": "uint256",
          "name": "",
          "type": "uint256"
        },
        {
          "internalType": "uint256",
          "name": "",
          "type": "uint256"
        }
      ],
      "stateMutability": "view",
      "type": "function"
    },
    {
      "inputs": [
        {
          "internalType": "address",
          "name": "_user",
          "type": "address"
        }
      ],
      "name": "_checkClaimable",
      "outputs": [
        {
          "internalType": "bool",
          "name": "",
          "type": "bool"
        }
      ],
      "stateMutability": "view",
      "type": "function"
    },
    {
      "inputs": [
        {
          "internalType": "address",
          "name": "_user",
          "type": "address"
        }
      ],
      "name": "_checkRegistered",
      "outputs": [
        {
          "internalType": "bool",
          "name": "",
          "type": "bool"
        }
      ],
      "stateMutability": "view",
      "type": "function"
    },
    {
      "inputs": [
        {
          "internalType": "uint256",
          "name": "",
          "type": "uint256"
        }
      ],
      "name": "balStatus",
      "outputs": [
        {
          "internalType": "bool",
          "name": "",
          "type": "bool"
        }
      ],
      "stateMutability": "view",
      "type": "function"
    },
    {
      "inputs": [
        {
          "internalType": "uint256",
          "name": "",
          "type": "uint256"
        }
      ],
      "name": "blueDiamondUsers",
      "outputs": [
        {
          "internalType": "address",
          "name": "",
          "type": "address"
        }
      ],
      "stateMutability": "view",
      "type": "function"
    },
    {
      "inputs": [],
      "name": "boosterIncomePool",
      "outputs": [
        {
          "internalType": "uint256",
          "name": "",
          "type": "uint256"
        }
      ],
      "stateMutability": "view",
      "type": "function"
    },
    {
      "inputs": [
        {
          "internalType": "address",
          "name": "_user",
          "type": "address"
        }
      ],
      "name": "checkBlueDiamondClaimCount",
      "outputs": [
        {
          "internalType": "uint256",
          "name": "",
          "type": "uint256"
        }
      ],
      "stateMutability": "view",
      "type": "function"
    },
    {
      "inputs": [
        {
          "internalType": "address",
          "name": "_user",
          "type": "address"
        }
      ],
      "name": "checkCrownDiamondClaimCount",
      "outputs": [
        {
          "internalType": "uint256",
          "name": "",
          "type": "uint256"
        }
      ],
      "stateMutability": "view",
      "type": "function"
    },
    {
      "inputs": [
        {
          "internalType": "address",
          "name": "_user",
          "type": "address"
        }
      ],
      "name": "checkDiamondMembership",
      "outputs": [
        {
          "internalType": "uint256",
          "name": "",
          "type": "uint256"
        }
      ],
      "stateMutability": "view",
      "type": "function"
    },
    {
      "inputs": [
        {
          "internalType": "uint256",
          "name": "",
          "type": "uint256"
        }
      ],
      "name": "crownDiamondUsers",
      "outputs": [
        {
          "internalType": "address",
          "name": "",
          "type": "address"
        }
      ],
      "stateMutability": "view",
      "type": "function"
    },
    {
      "inputs": [
        {
          "internalType": "uint256",
          "name": "",
          "type": "uint256"
        },
        {
          "internalType": "uint256",
          "name": "",
          "type": "uint256"
        }
      ],
      "name": "dayMore1kUsers",
      "outputs": [
        {
          "internalType": "address",
          "name": "",
          "type": "address"
        }
      ],
      "stateMutability": "view",
      "type": "function"
    },
    {
      "inputs": [],
      "name": "defaultRefer",
      "outputs": [
        {
          "internalType": "address",
          "name": "",
          "type": "address"
        }
      ],
      "stateMutability": "view",
      "type": "function"
    },
    {
      "inputs": [
        {
          "internalType": "uint256",
          "name": "amount",
          "type": "uint256"
        }
      ],
      "name": "deposit",
      "outputs": [],
      "stateMutability": "nonpayable",
      "type": "function"
    },
    {
      "inputs": [
        {
          "internalType": "uint256",
          "name": "amount",
          "type": "uint256"
        }
      ],
      "name": "depositBylockusdt",
      "outputs": [],
      "stateMutability": "nonpayable",
      "type": "function"
    },
    {
      "inputs": [
        {
          "internalType": "uint256",
          "name": "",
          "type": "uint256"
        }
      ],
      "name": "depositors",
      "outputs": [
        {
          "internalType": "address",
          "name": "",
          "type": "address"
        }
      ],
      "stateMutability": "view",
      "type": "function"
    },
    {
      "inputs": [],
      "name": "diamondIncomePool",
      "outputs": [
        {
          "internalType": "uint256",
          "name": "",
          "type": "uint256"
        }
      ],
      "stateMutability": "view",
      "type": "function"
    },
    {
      "inputs": [
        {
          "internalType": "uint256",
          "name": "",
          "type": "uint256"
        }
      ],
      "name": "diamondUsers",
      "outputs": [
        {
          "internalType": "address",
          "name": "",
          "type": "address"
        }
      ],
      "stateMutability": "view",
      "type": "function"
    },
    {
      "inputs": [],
      "name": "distributePoolRewards",
      "outputs": [],
      "stateMutability": "nonpayable",
      "type": "function"
    },
    {
      "inputs": [
        {
          "internalType": "uint256",
          "name": "",
          "type": "uint256"
        }
      ],
      "name": "feeReceivers",
      "outputs": [
        {
          "internalType": "address",
          "name": "",
          "type": "address"
        }
      ],
      "stateMutability": "view",
      "type": "function"
    },
    {
      "inputs": [
        {
          "internalType": "address",
          "name": "_user",
          "type": "address"
        }
      ],
      "name": "getActiveDirectDeposit",
      "outputs": [
        {
          "internalType": "uint256",
          "name": "",
          "type": "uint256"
        }
      ],
      "stateMutability": "view",
      "type": "function"
    },
    {
      "inputs": [
        {
          "internalType": "address",
          "name": "_user",
          "type": "address"
        }
      ],
      "name": "getActiveDirectNumbers",
      "outputs": [
        {
          "internalType": "uint256",
          "name": "",
          "type": "uint256"
        }
      ],
      "stateMutability": "view",
      "type": "function"
    },
    {
      "inputs": [
        {
          "internalType": "address",
          "name": "_user",
          "type": "address"
        }
      ],
      "name": "getActiveDirectReward",
      "outputs": [
        {
          "internalType": "uint256",
          "name": "",
          "type": "uint256"
        }
      ],
      "stateMutability": "view",
      "type": "function"
    },
    {
      "inputs": [
        {
          "internalType": "address",
          "name": "_user",
          "type": "address"
        }
      ],
      "name": "getActiveTeambyDepth",
      "outputs": [
        {
          "internalType": "uint256",
          "name": "",
          "type": "uint256"
        }
      ],
      "stateMutability": "view",
      "type": "function"
    },
    {
      "inputs": [],
      "name": "getCurDay",
      "outputs": [
        {
          "internalType": "uint256",
          "name": "",
          "type": "uint256"
        }
      ],
      "stateMutability": "view",
      "type": "function"
    },
    {
      "inputs": [
        {
          "internalType": "address",
          "name": "_user",
          "type": "address"
        }
      ],
      "name": "getCurclaimableusdt",
      "outputs": [
        {
          "internalType": "uint256",
          "name": "",
          "type": "uint256"
        }
      ],
      "stateMutability": "view",
      "type": "function"
    },
    {
      "inputs": [
        {
          "internalType": "address",
          "name": "_user",
          "type": "address"
        }
      ],
      "name": "getCurlockusdt",
      "outputs": [
        {
          "internalType": "uint256",
          "name": "",
          "type": "uint256"
        }
      ],
      "stateMutability": "view",
      "type": "function"
    },
    {
      "inputs": [
        {
          "internalType": "uint256",
          "name": "_day",
          "type": "uint256"
        }
      ],
      "name": "getDayMore1kLength",
      "outputs": [
        {
          "internalType": "uint256",
          "name": "",
          "type": "uint256"
        }
      ],
      "stateMutability": "view",
      "type": "function"
    },
    {
      "inputs": [],
      "name": "getDepositorsLength",
      "outputs": [
        {
          "internalType": "uint256",
          "name": "",
          "type": "uint256"
        }
      ],
      "stateMutability": "view",
      "type": "function"
    },
    {
      "inputs": [
        {
          "internalType": "address",
          "name": "_user",
          "type": "address"
        }
      ],
      "name": "getDiamondReward",
      "outputs": [
        {
          "internalType": "uint256",
          "name": "",
          "type": "uint256"
        }
      ],
      "stateMutability": "view",
      "type": "function"
    },
    {
      "inputs": [
        {
          "internalType": "address",
          "name": "_user",
          "type": "address"
        }
      ],
      "name": "getMaxFreezing",
      "outputs": [
        {
          "internalType": "uint256",
          "name": "",
          "type": "uint256"
        }
      ],
      "stateMutability": "view",
      "type": "function"
    },
    {
      "inputs": [
        {
          "internalType": "address",
          "name": "_user",
          "type": "address"
        }
      ],
      "name": "getMember",
      "outputs": [
        {
          "internalType": "uint256",
          "name": "",
          "type": "uint256"
        }
      ],
      "stateMutability": "view",
      "type": "function"
    },
    {
      "inputs": [
        {
          "internalType": "address",
          "name": "_user",
          "type": "address"
        }
      ],
      "name": "getMyTeamNumbers",
      "outputs": [
        {
          "internalType": "uint256",
          "name": "",
          "type": "uint256"
        }
      ],
      "stateMutability": "view",
      "type": "function"
    },
    {
      "inputs": [
        {
          "internalType": "address",
          "name": "_user",
          "type": "address"
        }
      ],
      "name": "getOrderLength",
      "outputs": [
        {
          "internalType": "uint256",
          "name": "",
          "type": "uint256"
        }
      ],
      "stateMutability": "view",
      "type": "function"
    },
    {
      "inputs": [
        {
          "internalType": "address",
          "name": "_user",
          "type": "address"
        }
      ],
      "name": "getTeamDeposit",
      "outputs": [
        {
          "internalType": "uint256",
          "name": "",
          "type": "uint256"
        }
      ],
      "stateMutability": "view",
      "type": "function"
    },
    {
      "inputs": [
        {
          "internalType": "address",
          "name": "_user",
          "type": "address"
        }
      ],
      "name": "getTeamUsersLength",
      "outputs": [
        {
          "internalType": "uint256",
          "name": "",
          "type": "uint256"
        }
      ],
      "stateMutability": "view",
      "type": "function"
    },
    {
      "inputs": [
        {
          "internalType": "address",
          "name": "_user",
          "type": "address"
        },
        {
          "internalType": "uint256",
          "name": "_layer",
          "type": "uint256"
        }
      ],
      "name": "getTeamUsersLengthwithDepth",
      "outputs": [
        {
          "internalType": "uint256",
          "name": "",
          "type": "uint256"
        }
      ],
      "stateMutability": "view",
      "type": "function"
    },
    {
      "inputs": [],
      "name": "insuranceAccount",
      "outputs": [
        {
          "internalType": "address",
          "name": "",
          "type": "address"
        }
      ],
      "stateMutability": "view",
      "type": "function"
    },
    {
      "inputs": [],
      "name": "insurancePool",
      "outputs": [
        {
          "internalType": "uint256",
          "name": "",
          "type": "uint256"
        }
      ],
      "stateMutability": "view",
      "type": "function"
    },
    {
      "inputs": [],
      "name": "isFreezeReward",
      "outputs": [
        {
          "internalType": "bool",
          "name": "",
          "type": "bool"
        }
      ],
      "stateMutability": "view",
      "type": "function"
    },
    {
      "inputs": [],
      "name": "isStopLoss30ofATH",
      "outputs": [
        {
          "internalType": "bool",
          "name": "",
          "type": "bool"
        }
      ],
      "stateMutability": "view",
      "type": "function"
    },
    {
      "inputs": [],
      "name": "isStopLoss50ofATH",
      "outputs": [
        {
          "internalType": "bool",
          "name": "",
          "type": "bool"
        }
      ],
      "stateMutability": "view",
      "type": "function"
    },
    {
      "inputs": [],
      "name": "lastDistribute",
      "outputs": [
        {
          "internalType": "uint256",
          "name": "",
          "type": "uint256"
        }
      ],
      "stateMutability": "view",
      "type": "function"
    },
    {
      "inputs": [],
      "name": "more1kIncomePool",
      "outputs": [
        {
          "internalType": "uint256",
          "name": "",
          "type": "uint256"
        }
      ],
      "stateMutability": "view",
      "type": "function"
    },
    {
      "inputs": [
        {
          "internalType": "address",
          "name": "",
          "type": "address"
        },
        {
          "internalType": "uint256",
          "name": "",
          "type": "uint256"
        }
      ],
      "name": "myTeamUsers",
      "outputs": [
        {
          "internalType": "address",
          "name": "",
          "type": "address"
        }
      ],
      "stateMutability": "view",
      "type": "function"
    },
    {
      "inputs": [
        {
          "internalType": "address",
          "name": "",
          "type": "address"
        },
        {
          "internalType": "uint256",
          "name": "",
          "type": "uint256"
        }
      ],
      "name": "orderInfos",
      "outputs": [
        {
          "internalType": "uint256",
          "name": "cycle",
          "type": "uint256"
        },
        {
          "internalType": "uint256",
          "name": "amount",
          "type": "uint256"
        },
        {
          "internalType": "uint256",
          "name": "start",
          "type": "uint256"
        },
        {
          "internalType": "uint256",
          "name": "unfreeze",
          "type": "uint256"
        },
        {
          "internalType": "bool",
          "name": "isClaimed",
          "type": "bool"
        }
      ],
      "stateMutability": "view",
      "type": "function"
    },
    {
      "inputs": [
        {
          "internalType": "address",
          "name": "_referral",
          "type": "address"
        }
      ],
      "name": "register",
      "outputs": [],
      "stateMutability": "nonpayable",
      "type": "function"
    },
    {
      "inputs": [
        {
          "internalType": "address",
          "name": "",
          "type": "address"
        }
      ],
      "name": "rewardInfo",
      "outputs": [
        {
          "internalType": "uint256",
          "name": "capitals",
          "type": "uint256"
        },
        {
          "internalType": "uint256",
          "name": "statics",
          "type": "uint256"
        },
        {
          "internalType": "uint256",
          "name": "directs",
          "type": "uint256"
        },
        {
          "internalType": "uint256",
          "name": "levelReleased",
          "type": "uint256"
        },
        {
          "internalType": "uint256",
          "name": "infinityBonusReleased",
          "type": "uint256"
        },
        {
          "internalType": "uint256",
          "name": "cycleNumber",
          "type": "uint256"
        },
        {
          "internalType": "uint256",
          "name": "more1k",
          "type": "uint256"
        },
        {
          "internalType": "uint256",
          "name": "lockusdt",
          "type": "uint256"
        },
        {
          "internalType": "uint256",
          "name": "lockusdtDebt",
          "type": "uint256"
        }
      ],
      "stateMutability": "view",
      "type": "function"
    },
    {
      "inputs": [],
      "name": "startTime",
      "outputs": [
        {
          "internalType": "uint256",
          "name": "",
          "type": "uint256"
        }
      ],
      "stateMutability": "view",
      "type": "function"
    },
    {
      "inputs": [
        {
          "internalType": "address",
          "name": "",
          "type": "address"
        },
        {
          "internalType": "uint256",
          "name": "",
          "type": "uint256"
        },
        {
          "internalType": "uint256",
          "name": "",
          "type": "uint256"
        }
      ],
      "name": "teamUsers",
      "outputs": [
        {
          "internalType": "address",
          "name": "",
          "type": "address"
        }
      ],
      "stateMutability": "view",
      "type": "function"
    },
    {
      "inputs": [],
      "name": "totalUser",
      "outputs": [
        {
          "internalType": "uint256",
          "name": "",
          "type": "uint256"
        }
      ],
      "stateMutability": "view",
      "type": "function"
    },
    {
      "inputs": [
        {
          "internalType": "address",
          "name": "_receiver",
          "type": "address"
        },
        {
          "internalType": "uint256",
          "name": "amount",
          "type": "uint256"
        }
      ],
      "name": "transferBylockusdt",
      "outputs": [],
      "stateMutability": "nonpayable",
      "type": "function"
    },
    {
      "inputs": [],
      "name": "usdt",
      "outputs": [
        {
          "internalType": "contract IERC20",
          "name": "",
          "type": "address"
        }
      ],
      "stateMutability": "view",
      "type": "function"
    },
    {
      "inputs": [
        {
          "internalType": "address",
          "name": "",
          "type": "address"
        }
      ],
      "name": "userInfo",
      "outputs": [
        {
          "internalType": "address",
          "name": "referrer",
          "type": "address"
        },
        {
          "internalType": "uint256",
          "name": "start",
          "type": "uint256"
        },
        {
          "internalType": "uint256",
          "name": "level",
          "type": "uint256"
        },
        {
          "internalType": "uint256",
          "name": "maxDeposit",
          "type": "uint256"
        },
        {
          "internalType": "uint256",
          "name": "totalDeposit",
          "type": "uint256"
        },
        {
          "internalType": "uint256",
          "name": "teamNum",
          "type": "uint256"
        },
        {
          "internalType": "uint256",
          "name": "teamTotalDeposit",
          "type": "uint256"
        },
        {
          "internalType": "uint256",
          "name": "teamTotalVolume",
          "type": "uint256"
        },
        {
          "internalType": "uint256",
          "name": "totalFreezed",
          "type": "uint256"
        },
        {
          "internalType": "uint256",
          "name": "totalRevenue",
          "type": "uint256"
        },
        {
          "internalType": "uint256",
          "name": "membership",
          "type": "uint256"
        },
        {
          "internalType": "uint256",
          "name": "directBonusCount",
          "type": "uint256"
        }
      ],
      "stateMutability": "view",
      "type": "function"
    },
    {
      "inputs": [],
      "name": "withdraw",
      "outputs": [],
      "stateMutability": "nonpayable",
      "type": "function"
    }
  ],
  "bytecode": "0x6102006040526101f46080908152606460a081905260c860c081905260e0829052610100526101208190526101408190526101608190526101808190526101a05260326101c08190526101e0526200005c90600190600c6200012c565b50604080516060810182526117708152611f406020820152612af8918101919091526200008e90600290600362000182565b50601e805462ffffff19169055348015620000a857600080fd5b5060405162003d7338038062003d73833981016040819052620000cb9162000237565b600080546001600160a01b038087166001600160a01b031992831617909255600b8054868416908316179055600a805492851692909116919091179055620001176008826002620001b8565b505042600c819055600d555062000317915050565b82805482825590600052602060002090810192821562000170579160200282015b8281111562000170578251829061ffff169055916020019190600101906200014d565b506200017e92915062000203565b5090565b826005810192821562000170579160200282018281111562000170578251829061ffff169055916020019190600101906200014d565b826002810192821562000170579160200282015b828111156200017057825182546001600160a01b0319166001600160a01b03909116178255602090920191600190910190620001cc565b5b808211156200017e576000815560010162000204565b80516001600160a01b03811681146200023257600080fd5b919050565b60008060008060a085870312156200024d578384fd5b62000258856200021a565b93506020620002698187016200021a565b935062000279604087016200021a565b925086607f8701126200028a578182fd5b604080519081016001600160401b0381118282101715620002af57620002af62000301565b604052806060880160a089018a1015620002c7578485fd5b845b6002811015620002f157620002de826200021a565b83529184019190840190600101620002c9565b5096999598509396509450505050565b634e487b7160e01b600052604160045260246000fd5b613a4c80620003276000396000f3fe608060405234801561001057600080fd5b50600436106103775760003560e01c8063732cef43116101d3578063ab2adc0011610104578063de6b8a2e116100a2578063e402a0711161007c578063e402a0711461092a578063e4b2fb791461093d578063fd0c0d7b14610950578063fda92ce51461096357600080fd5b8063de6b8a2e146108e5578063e1604b701461090e578063e28aa97a1461091757600080fd5b8063cbecf6b5116100de578063cbecf6b51461080c578063cc38c8a0146108ac578063d0c85cfe146108bf578063dd853c2f146108d257600080fd5b8063ab2adc00146107dd578063ae97397e146107e6578063b6b55f25146107f957600080fd5b806385a6327c11610171578063991e76681161014b578063991e76681461076b5780639a6a0d2f14610797578063a71c9036146107aa578063aa0204f9146107bd57600080fd5b806385a6327c1461071c57806386dd5eb01461072f5780638b5a432a1461075857600080fd5b80637647e0ff116101ad5780637647e0ff146106c157806378e97925146106ed5780638258ccf2146106f657806383fb8af71461070957600080fd5b8063732cef431461067857806373586f111461069b57806373cb4d05146106ae57600080fd5b80633390af2a116102ad5780634e5068311161024b5780636a6e76b3116102255780636a6e76b3146106475780636e70c2351461065a5780636f0110d31461066357806370abe5fe1461067057600080fd5b80634e506831146105e55780635b381760146105f757806360a1cbd71461060a57600080fd5b80633fdfd4c2116102875780633fdfd4c2146105ad57806341e8a718146105c05780634420e486146105c957806347d67339146105dc57600080fd5b80633390af2a1461056a5780633955782b146105925780633ccfd60b146105a557600080fd5b80632489a2231161031a5780632e2f9aa9116102f45780632e2f9aa9146105115780632f48ab7d146105245780632fea20f61461054f57806330538c321461055757600080fd5b80632489a223146104d85780632ada2596146104eb5780632c45ab54146104fe57600080fd5b80630cf9310a116103565780630cf9310a146103b35780631959a002146103d65780631d606ed2146104b05780631efbbb36146104c557600080fd5b8062a7a56e1461037c5780630643f24714610397578063069570e2146103aa575b600080fd5b61038461096c565b6040519081526020015b60405180910390f35b6103846103a5366004613838565b610993565b61038460135481565b6103c66103c1366004613838565b610b2f565b604051901515815260200161038e565b61044d6103e4366004613838565b601a60205260009081526040902080546001820154600283015460038401546004850154600586015460068701546007880154600889015460098a0154600a8b0154600b909b01546001600160a01b03909a169a9899979896979596949593949293919290918c565b604080516001600160a01b03909d168d5260208d019b909b52998b019890985260608a0196909652608089019490945260a088019290925260c087015260e08601526101008501526101208401526101408301526101608201526101800161038e565b6104c36104be366004613852565b610b66565b005b6103846104d3366004613838565b610d5a565b601e546103c69062010000900460ff1681565b6103846104f9366004613838565b610e78565b6103c661050c366004613838565b610ed5565b61038461051f366004613838565b610f70565b600054610537906001600160a01b031681565b6040516001600160a01b03909116815260200161038e565b601954610384565b6105376105653660046138cd565b610fef565b61057d610578366004613838565b611019565b6040805192835260208301919091520161038e565b6105376105a03660046138cd565b6110dd565b6104c36110ed565b6103846105bb366004613838565b61161c565b61038460105481565b6104c36105d7366004613838565b611643565b610384600d5481565b601e546103c690610100900460ff1681565b6105376106053660046138cd565b6117f2565b61061d610618366004613852565b611812565b6040805195865260208601949094529284019190915260608301521515608082015260a00161038e565b610384610655366004613838565b611863565b61038460125481565b601e546103c69060ff1681565b6104c36118da565b6103c66106863660046138cd565b60076020526000908152604090205460ff1681565b61057d6106a9366004613838565b611901565b6105376106bc36600461387b565b6119fa565b6103846106cf366004613838565b6001600160a01b03166000908152601a602052604090206006015490565b610384600c5481565b610384610704366004613838565b611a3f565b6104c36107173660046138cd565b611a9b565b600b54610537906001600160a01b031681565b61038461073d366004613838565b6001600160a01b03166000908152601c602052604090205490565b6105376107663660046138fd565b611c57565b610384610779366004613838565b6001600160a01b03166000908152601a602052604090206005015490565b6103846107a5366004613838565b611c8f565b6103846107b8366004613838565b611d9e565b6103846107cb3660046138cd565b60009081526014602052604090205490565b610384600f5481565b6103846107f4366004613852565b611f1a565b6104c36108073660046138cd565b611f58565b61086861081a366004613838565b601d6020528060005260406000206000915090508060000154908060010154908060020154908060030154908060040154908060050154908060060154908060070154908060080154905089565b60408051998a5260208a0198909852968801959095526060870193909352608086019190915260a085015260c084015260e08301526101008201526101200161038e565b600a54610537906001600160a01b031681565b6105376108cd366004613852565b612092565b6103846108e0366004613838565b6120ae565b6103846108f3366004613838565b6001600160a01b031660009081526018602052604090205490565b610384600e5481565b6105376109253660046138cd565b612543565b610384610938366004613838565b612553565b61053761094b3660046138cd565b612604565b61038461095e366004613838565b612614565b61038460115481565b600061098e603c610988600c544261271f90919063ffffffff16565b9061272b565b905090565b6001600160a01b0381166000908152601c60209081526040808320805460189093529083208054919291849190829015610a0a57815482906109d79060019061398d565b815481106109f557634e487b7160e01b600052603260045260246000fd5b90600052602060002090600502016001015490505b60005b84811015610b23576001600160a01b0388166000908152601c602052604081208054601891839185908110610a5257634e487b7160e01b600052603260045260246000fd5b60009182526020808320909101546001600160a01b031683528201929092526040019020805490915015610b105780546000908290610a939060019061398d565b81548110610ab157634e487b7160e01b600052603260045260246000fd5b9060005260206000209060050201905060008160030154905042811115610b0d57600085836001015411610ae9578260010154610aeb565b855b9050610b09610b02612710610988846101f4612737565b8990612743565b9750505b50505b5080610b1b816139bb565b915050610a0d565b50919695505050505050565b6001600160a01b038082166000908152601a602052604081208054919290911615610b5d5750600192915050565b50600092915050565b6000610b7582620f4240612737565b9050610b866305f5e100600261272b565b8110158015610bab5750610ba9610ba26305f5e100600261272b565b829061274f565b155b610be95760405162461bcd60e51b815260206004820152600a60248201526930b6b7bab73a1032b93960b11b60448201526064015b60405180910390fd5b6001600160a01b038381166000908152601a602052604090205416610c505760405162461bcd60e51b815260206004820152601d60248201527f52656365697665722073686f756c642062652072656769737472616e740000006044820152606401610be0565b336000908152601d602052604090206007015481811015610ca95760405162461bcd60e51b8152602060048201526013602482015272696e73756666696369656e7420696e636f6d6560681b6044820152606401610be0565b336000908152601d6020526040902060070154610cc6908361271f565b336000908152601d60205260408082206007908101939093556001600160a01b038716825290200154610cf99083612743565b6001600160a01b0385166000908152601d60205260409081902060070191909155517f31c16c09f64d62f5f951a79f903c62bfa160a100f5037e6582506bd30f13e0c390610d4c9033908790869061391e565b60405180910390a150505050565b600080805b600c811015610e71576001600160a01b0384166000908152601b602090815260408083208484529091528120805490915b81811015610e5b576000838281548110610dba57634e487b7160e01b600052603260045260246000fd5b60009182526020808320909101546001600160a01b03168083526018909152604090912080549192509015610e465780546000908290610dfc9060019061398d565b81548110610e1a57634e487b7160e01b600052603260045260246000fd5b906000526020600020906005020190504281600301541115610e4457610e41886001612743565b97505b505b50508080610e53906139bb565b915050610d90565b5050508080610e69906139bb565b915050610d5f565b5092915050565b6001600160a01b0381166000908152601d6020526040812054816002610e9d85611c8f565b10158015610ebd5750610eb1826002612737565b610eba85612614565b10155b15610eca57506001610ece565b5060005b9392505050565b6001600160a01b0381166000908152601d6020526040812060058101548290600211801590610f045750815415155b8015610f6857506001600160a01b03841660009081526018602052604090206005830154429190610f3690600261271f565b81548110610f5457634e487b7160e01b600052603260045260246000fd5b906000526020600020906005020160030154105b949350505050565b60175460009081805b82811015610fe757846001600160a01b031660178281548110610fac57634e487b7160e01b600052603260045260246000fd5b6000918252602090912001546001600160a01b03161415610fd557610fd2826001612743565b91505b80610fdf816139bb565b915050610f79565b509392505050565b60178181548110610fff57600080fd5b6000918252602090912001546001600160a01b0316905081565b6001600160a01b0381166000908152601d602052604081208054829190828061104187610e78565b111561106057611059612710610988846107d0612737565b9050611075565b611072612710610988846105dc612737565b90505b6001600160a01b0386166000908152601a60205260409020600901546110a361271061098885614e20612737565b11156110ad575060005b60006110c161271061098884610bb8612737565b905060006110cf838361271f565b989197509095505050505050565b60168181548110610fff57600080fd5b336000908152601d6020908152604080832060189092528220600582015491929142919061111c90600261271f565b8154811061113a57634e487b7160e01b600052603260045260246000fd5b9060005260206000209060050201600301541080156111595750815415155b90506001811515146111d35760405162461bcd60e51b815260206004820152603760248201527f43616e7420636c61696d2c20506c6561736520636865636b207374616b65206460448201527f61746520616e64206465706f73697420737461747573210000000000000000006064820152608401610be0565b6111db6118da565b6000806111e733611019565b909250905080826000806111fa33611901565b90925090506112098383612743565b92506112158482612743565b336000908152601a6020526040902060098101549195509061124390869061123d9087612743565b90612743565b60098201556112606112558587612743565b60088301549061271f565b600882015560078901546112749086612743565b60078a0155600060018a0181905560038a0181905560048a0181905560068a015588546112a2908590612743565b93506112b2338a6000015461275b565b6000808a555460405163a9059cbb60e01b8152336004820152602481018690526001600160a01b039091169063a9059cbb90604401602060405180830381600087803b15801561130157600080fd5b505af1158015611315573d6000803e3d6000fd5b505050506040513d601f19601f8201168201806040525081019061133991906138ad565b50600061134533611d9e565b9050806004141561144c57600061135b33610f70565b9050600a811015611446576017805460018101825560009182527fc624b66cc0138b8fabc209247f72d758e1cf3343756d543badbf24212bed8c150180546001600160a01b0319163317905554600a5460405163a9059cbb60e01b81526001600160a01b0391821660048201526302faf080602482015291169063a9059cbb90604401602060405180830381600087803b1580156113f857600080fd5b505af115801561140c573d6000803e3d6000fd5b505050506040513d601f19601f8201168201806040525081019061143091906138ad565b50600f54611442906302faf080612743565b600f555b5061154d565b806003141561154d57600061146033611863565b9050601481101561154b576016805460018101825560009182527fd833147d7dc355ba459fc788f669e58cfaf9dc25ddcd0702e87d69c7b51242890180546001600160a01b0319163317905554600a5460405163a9059cbb60e01b81526001600160a01b03918216600482015263017d7840602482015291169063a9059cbb90604401602060405180830381600087803b1580156114fd57600080fd5b505af1158015611511573d6000803e3d6000fd5b505050506040513d601f19601f8201168201806040525081019061153591906138ad565b50600f546115479063017d7840612743565b600f555b505b600080546040516370a0823160e01b81523060048201526001600160a01b03909116906370a082319060240160206040518083038186803b15801561159157600080fd5b505afa1580156115a5573d6000803e3d6000fd5b505050506040513d601f19601f820116820180604052508101906115c991906138e5565b90506115d681600061282c565b60408051338152602081018890527f884edad9ce6fa2440d8a54cc123490eb96d2768479d49ff9c7366125a9424364910160405180910390a15050505050505050505050565b60008061162883611019565b509050600061163684611901565b509050610f688282612743565b6001600160a01b0381166000908152601a60205260409020600401541515806116795750600b546001600160a01b038281169116145b6116b55760405162461bcd60e51b815260206004820152600d60248201526c34b73b30b634b2103932b332b960991b6044820152606401610be0565b336000908152601a6020526040902080546001600160a01b03161561170e5760405162461bcd60e51b815260206004820152600f60248201526e1c9959995c9c995c88189bdb991959608a1b6044820152606401610be0565b80546001600160a01b0319166001600160a01b0383161781554260018201556117363361290c565b6001600160a01b0382166000818152601c6020908152604080832080546001810182559084528284200180546001600160a01b03191633908117909155848452601a909252909120911461179a576005810154611794906001612743565b60058201555b600e546117a8906001612743565b600e55604080513381526001600160a01b03851660208201527f98ada70a1cb506dc4591465e1ee9be3fd7a2b6c73ecf3b949009718c9a35151991015b60405180910390a1505050565b6008816002811061180257600080fd5b01546001600160a01b0316905081565b6018602052816000526040600020818154811061182e57600080fd5b600091825260209091206005909102018054600182015460028301546003840154600490940154929550909350919060ff1685565b60165460009081805b82811015610fe757846001600160a01b03166016828154811061189f57634e487b7160e01b600052603260045260246000fd5b6000918252602090912001546001600160a01b031614156118c8576118c5826001612743565b91505b806118d2816139bb565b91505061186c565b600d546118e890603c612743565b4211156118ff57426118f9816129f2565b5042600d555b565b6001600160a01b0381166000908152601d60205260408120805482919082808061192a88611d9e565b9050600281106119445761193d886120ae565b9150611950565b61194d88610993565b91505b61195a8383612743565b925061197385600601548461274390919063ffffffff16565b925061198c85600401548461274390919063ffffffff16565b6001600160a01b0389166000908152601a60205260409020600901549093506119bd61271061098887614e20612737565b11156119c857600092505b60006119dc61271061098886610bb8612737565b905060006119ea858361271f565b9a91995090975050505050505050565b601b6020528260005260406000206020528160005260406000208181548110611a2257600080fd5b6000918252602090912001546001600160a01b0316925083915050565b600080611a4b83611019565b9150506000611a5984611901565b6001600160a01b0386166000908152601d602052604090206008810154600790910154919350610f68925090611a9590849061123d9087612743565b9061271f565b6000611aaa82620f4240612737565b9050611abb6305f5e100600261272b565b8110158015611ad95750611ad7610ba26305f5e100600261272b565b155b611b125760405162461bcd60e51b815260206004820152600a60248201526930b6b7bab73a1032b93960b11b6044820152606401610be0565b3360009081526018602052604090205415611b835760405162461bcd60e51b815260206004820152602b60248201527f4669727374206465706f7369746f72732063616e206f6e6c792075736520746860448201526a34b990333ab731ba34b7b760a91b6064820152608401610be0565b336000908152601d602052604090206007015481811115611be65760405162461bcd60e51b815260206004820152601b60248201527f696e73756666696369656e74206672657368206c6f636b7573647400000000006044820152606401610be0565b336000818152601d6020526040812060070155611c0c90611c078484612743565b612afd565b7f07302eff02da419ed556321e69ca94ba35733d9e5910897626312a691b6b22cc33611c388484612743565b604080516001600160a01b0390931683526020830191909152016117e5565b60146020528160005260406000208181548110611c7357600080fd5b6000918252602090912001546001600160a01b03169150829050565b6001600160a01b0381166000908152601c60205260408120805482805b82811015611d95576001600160a01b0386166000908152601c602052604081208054601891839185908110611cf157634e487b7160e01b600052603260045260246000fd5b60009182526020808320909101546001600160a01b031683528201929092526040019020805490915015611d825780546000908290611d329060019061398d565b81548110611d5057634e487b7160e01b600052603260045260246000fd5b9060005260206000209060050201905060008160030154905042811115611d7f57611d7c856001612743565b94505b50505b5080611d8d816139bb565b915050611cac565b50949350505050565b6001600160a01b0381166000908152601860209081526040808320601a909252822081548392839283928392839283928015611f0657600083611de260018461398d565b81548110611e0057634e487b7160e01b600052603260045260246000fd5b906000526020600020906005020190508060010154985082600501549750611e278c612614565b9650611e328c610d5a565b955082600701549450639502f9008910158015611e505750600f8810155b8015611e61575064037e11d6008710155b8015611e6f57506101908610155b8015611e80575064746a5288008510155b15611e8e5760049950611f00565b639502f9008910158015611ea35750600a8810155b8015611eb457506402540be4008710155b8015611ec1575060b48610155b8015611ed2575064174876e8008510155b15611ee05760039950611f00565b60288610158015611ef657506404a817c8008510155b15611f0057600299505b50611f0b565b600098505b50969998505050505050505050565b6000600c8210611f2c57506000611f52565b506001600160a01b0382166000908152601b602090815260408083208484529091529020545b92915050565b6000611f6782620f4240612737565b9050611f77816305f5e10061274f565b15611fc45760405162461bcd60e51b815260206004820181905260248201527f616d6f756e742073686f756c64206265206d756c7469706c65206f66203130306044820152606401610be0565b6000546040516323b872dd60e01b81526001600160a01b03909116906323b872dd90611ff89033903090869060040161391e565b602060405180830381600087803b15801561201257600080fd5b505af1158015612026573d6000803e3d6000fd5b505050506040513d601f19601f8201168201806040525081019061204a91906138ad565b506120553382612afd565b60408051338152602081018390527fe1fffcc4923d04b559f4d29a8bfc6cda04eb5b0d3c460751c2402c5c5cc9109c910160405180910390a15050565b601c6020528160005260406000208181548110611c7357600080fd5b6000806120ba83611d9e565b9050600060028210610ece5781600414156122715760006120da85610f70565b9050600a81101561226b5760005b600c811015612244576001600160a01b0386166000908152601b602090815260408083208484529091528120905b815481101561222f5760006018600084848154811061214557634e487b7160e01b600052603260045260246000fd5b60009182526020808320909101546001600160a01b03168352820192909252604001902080549091501561221c57805460009082906121869060019061398d565b815481106121a457634e487b7160e01b600052603260045260246000fd5b90600052602060002090600502019050428160030154111561221a5761221761221061271061098861019060018a815481106121f057634e487b7160e01b600052603260045260246000fd5b90600052602060002001546122059190613942565b600186015490612737565b8890612743565b96505b505b5080612227816139bb565b915050612116565b5050808061223c906139bb565b9150506120e8565b506302faf0808211156122665761225f826302faf08061271f565b915061226b565b600091505b50610ece565b81600314156123fe57600061228585611863565b9050601481101561226b5760005b600c8110156123e3576001600160a01b0386166000908152601b602090815260408083208484529091528120905b81548110156123ce576000601860008484815481106122f057634e487b7160e01b600052603260045260246000fd5b60009182526020808320909101546001600160a01b0316835282019290925260400190208054909150156123bb57805460009082906123319060019061398d565b8154811061234f57634e487b7160e01b600052603260045260246000fd5b9060005260206000209060050201905042816003015411156123b9576123b66122106127106109886001898154811061239857634e487b7160e01b600052603260045260246000fd5b9060005260206000200154856001015461273790919063ffffffff16565b96505b505b50806123c6816139bb565b9150506122c1565b505080806123db906139bb565b915050612293565b5063017d78408211156122665761225f8263017d784061271f565b8160021415610ece5760005b6005811015610fe7576001600160a01b0385166000908152601b602090815260408083208484529091528120905b815481101561252e5760006018600084848154811061246757634e487b7160e01b600052603260045260246000fd5b60009182526020808320909101546001600160a01b03168352820192909252604001902080549091501561251b57805460009082906124a89060019061398d565b815481106124c657634e487b7160e01b600052603260045260246000fd5b9060005260206000209060050201905042816003015411156125195761251661250f6127106109886001898154811061239857634e487b7160e01b600052603260045260246000fd5b8790612743565b95505b505b5080612526816139bb565b915050612438565b5050808061253b906139bb565b91505061240a565b60158181548110610fff57600080fd5b6001600160a01b03811660009081526018602052604081205481905b8015610e71576001600160a01b038416600090815260186020526040812061259860018461398d565b815481106125b657634e487b7160e01b600052603260045260246000fd5b9060005260206000209060050201905042816003015411156125eb5782816001015411156125e657806001015492505b6125f1565b50610e71565b50806125fc816139a4565b91505061256f565b60198181548110610fff57600080fd5b6001600160a01b0381166000908152601c60205260408120805482805b82811015611d95576001600160a01b0386166000908152601c60205260408120805460189183918590811061267657634e487b7160e01b600052603260045260246000fd5b60009182526020808320909101546001600160a01b03168352820192909252604001902080549091501561270c57805460009082906126b79060019061398d565b815481106126d557634e487b7160e01b600052603260045260246000fd5b90600052602060002090600502019050600081600301549050428111156127095760018201546127058682612743565b9550505b50505b5080612717816139bb565b915050612631565b6000610ece828461398d565b6000610ece828461395a565b6000610ece828461396e565b6000610ece8284613942565b6000610ece82846139d6565b6001600160a01b038083166000908152601a602052604090208054909116801580159061279a5750836001600160a01b0316816001600160a01b031614155b15612826576001600160a01b0381166000908152601a6020526040902060060154831015612809576001600160a01b0381166000908152601a60205260409020600601546127e8908461271f565b6001600160a01b0382166000908152601a6020526040902060060155612826565b6001600160a01b0381166000908152601a60205260408120600601555b50505050565b80156128b35761283a612f35565b60055b80156128ae5760076000600261285460018561398d565b6005811061287257634e487b7160e01b600052603260045260246000fd5b0154815260208101919091526040016000205460ff161561289c57601e805460ff19169055505050565b806128a6816139a4565b91505061283d565b505050565b60055b80156128ae576128da6127106109886128d182610bb861271f565b60135490612737565b8310156128f657601e805460ff191660011790556128ae612f35565b80612900816139a4565b9150506128b6565b5050565b6001600160a01b038082166000908152601a602052604081208054909216905b600c811015612826576001600160a01b0382161580159061295f5750816001600160a01b0316846001600160a01b031614155b156129db576001600160a01b038281166000818152601b6020908152604080832086845282528220805460018101825590835291200180546001600160a01b031916878416179055600b5490911614156129b857612826565b6001600160a01b039182166000908152601a6020526040902054909116906129e0565b612826565b806129ea816139bb565b91505061292c565b6000601481612a0260018561398d565b81526020810191909152604001600020549050801561290857805b8015612af3576000601481612a3360018761398d565b8152602001908152602001600020600183612a4e919061398d565b81548110612a6c57634e487b7160e01b600052603260045260246000fd5b6000918252602090912001546001600160a01b031690508015612ae057601154600090612a99908561272b565b6001600160a01b0383166000908152601d6020526040902060060154909150612ac29082612743565b6001600160a01b0383166000908152601d6020526040902060060155505b5080612aeb816139a4565b915050612a1d565b5060006011555050565b6001600160a01b038083166000908152601a602052604090208054909116612b735760405162461bcd60e51b8152602060048201526024808201527f7265676973746572206669727374207769746820726566657272616c206164646044820152637265737360e01b6064820152608401610be0565b6305f5e100821015612bc75760405162461bcd60e51b815260206004820152601b60248201527f73686f756c64206265206d6f7265207468616e206d696e2031303000000000006044820152606401610be0565b639502f900821115612c1b5760405162461bcd60e51b815260206004820152601c60248201527f73686f756c64206265206c657373207468616e206d696e2032353030000000006044820152606401610be0565b60038101541580612c30575080600301548210155b612c975760405162461bcd60e51b815260206004820152603260248201527f6e657874206465706f7369742073686f756c6420626520657175616c206f72206044820152716d6f7265207468616e2070726576696f757360701b6064820152608401610be0565b6003810154612cac5760038101829055612cc0565b8181600301541015612cc057600381018290555b612cc982613098565b6004810154158015612cdf5750633b9aca008210155b15612d27576000612cee61096c565b60009081526014602090815260408220805460018101825590835291200180546001600160a01b0319166001600160a01b038616179055505b612d308361330d565b6004810154612d3f9083612743565b60048201556008810154612d539083612743565b60088201556001600160a01b0383166000908152601d6020526040902060058101546023908111612d9057612d8981603c612737565b9050612da3565b6005820154612da090603c612737565b90505b6000612db48261123d42603c612743565b6001600160a01b0387166000908152601860209081526040808320815160a0810183526005898101805483528286018d8152429584019586526060840189815260808501898152865460018082018955978b5298909920945197909302909301958655915185840155925160028501559151600384015592516004909201805460ff19169215159290921790915554919250612e509190612743565b6005840155612e5e866133cd565b612e666118da565b612e70868661351c565b612e7a86866135d6565b600080546040516370a0823160e01b81523060048201526001600160a01b03909116906370a082319060240160206040518083038186803b158015612ebe57600080fd5b505afa158015612ed2573d6000803e3d6000fd5b505050506040513d601f19601f82011682018060405250810190612ef691906138e5565b9050612f0181613716565b601e5460ff1615612f1c57612f1781600161282c565b612f2c565b806013541015612f2c5760138190555b50505050505050565b60008054600a54604051636eb1769f60e11b81526001600160a01b03918216600482015230602482015291169063dd62ed3e9060440160206040518083038186803b158015612f8357600080fd5b505afa158015612f97573d6000803e3d6000fd5b505050506040513d601f19601f82011682018060405250810190612fbb91906138e5565b9050620f4240811061309557600f5481111561305d57600054600a54600f546040516323b872dd60e01b81526001600160a01b03938416936323b872dd9361300b9391169130919060040161391e565b602060405180830381600087803b15801561302557600080fd5b505af1158015613039573d6000803e3d6000fd5b505050506040513d601f19601f8201168201806040525081019061290891906138ad565b600054600a546040516323b872dd60e01b81526001600160a01b03928316926323b872dd9261300b929116903090869060040161391e565b50565b60006130ab6127106109888460c8612737565b6000546008549192506001600160a01b039081169163a9059cbb91166130d284600261272b565b6040516001600160e01b031960e085901b1681526001600160a01b0390921660048301526024820152604401602060405180830381600087803b15801561311857600080fd5b505af115801561312c573d6000803e3d6000fd5b505050506040513d601f19601f8201168201806040525081019061315091906138ad565b506000546001600160a01b031663a9059cbb6008600101546001600160a01b031661317c84600261272b565b6040516001600160e01b031960e085901b1681526001600160a01b0390921660048301526024820152604401602060405180830381600087803b1580156131c257600080fd5b505af11580156131d6573d6000803e3d6000fd5b505050506040513d601f19601f820116820180604052508101906131fa91906138ad565b50600061320e612710610988856032612737565b600054600a5460405163a9059cbb60e01b81526001600160a01b03918216600482015260248101849052929350169063a9059cbb90604401602060405180830381600087803b15801561326057600080fd5b505af1158015613274573d6000803e3d6000fd5b505050506040513d601f19601f8201168201806040525081019061329891906138ad565b50600f546132a69082612743565b600f5560006132bc612710610988866032612737565b6010549091506132cc9082612743565b60105560006132e2612710610988876032612737565b6011549091506132f29082612743565b601181905560125461330391612743565b6012555050505050565b6000805b601954811015613376576019818154811061333c57634e487b7160e01b600052603260045260246000fd5b6000918252602090912001546001600160a01b03848116911614156133645760019150613376565b8061336e816139bb565b915050613311565b508061290857601980546001810182556000919091527f944998273e477b495144fb8794c914197f3ccb46be2900f4698fd0ef743c96950180546001600160a01b0384166001600160a01b03199091161790555050565b60005b6001600160a01b038216600090815260186020526040902054811015612908576001600160a01b038216600090815260186020526040812080548390811061342857634e487b7160e01b600052603260045260246000fd5b906000526020600020906005020190508060030154421180156134505750600481015460ff16155b801561348257506001600160a01b0383166000908152601d602052604090206005015461347e90600161271f565b8154105b1561350957601e54600090610100900460ff16806134a85750601e5462010000900460ff165b156134b5575060006134f6565b60018201546001600160a01b0385166000908152601d60205260409020546134dc91612743565b6001600160a01b0385166000908152601d60205260409020555b50600401805460ff191660011790555050565b5080613514816139bb565b9150506133d0565b6001600160a01b038083166000908152601a602052604090208054909116801580159061355b5750806001600160a01b0316846001600160a01b031614155b15612826576001600160a01b0381166000908152601a60205260409020600601546135869084612743565b6001600160a01b0382166000908152601a602052604090206006810191909155600701546135b49084612743565b6001600160a01b0382166000908152601a602052604090206007015550505050565b6001600160a01b038083166000908152601a60205260409020805490911680156128265760005b600c81101561370f576001600160a01b038216158015906136305750846001600160a01b0316826001600160a01b031614155b156136f857600061367b6127106109886001858154811061366157634e487b7160e01b600052603260045260246000fd5b90600052602060002001548861273790919063ffffffff16565b6001600160a01b0384166000908152601d60205260409020600301549091506136a49082612743565b6001600160a01b038085166000818152601d6020526040902060030192909255600b541614156136d4575061370f565b506001600160a01b039182166000908152601a6020526040902054909116906136fd565b61370f565b80613707816139bb565b9150506135fd565b5050505050565b60055b80156129085761375e612710610988600261373560018661398d565b6005811061375357634e487b7160e01b600052603260045260246000fd5b015460135490612737565b82106137b9576001600760006002613776848661398d565b6005811061379457634e487b7160e01b600052603260045260246000fd5b015481526020810191909152604001600020805460ff19169115159190911790555050565b600060078160026137cb60018661398d565b600581106137e957634e487b7160e01b600052603260045260246000fd5b015481526020810191909152604001600020805460ff191691151591909117905580613814816139a4565b915050613719565b80356001600160a01b038116811461383357600080fd5b919050565b600060208284031215613849578081fd5b610ece8261381c565b60008060408385031215613864578081fd5b61386d8361381c565b946020939093013593505050565b60008060006060848603121561388f578081fd5b6138988461381c565b95602085013595506040909401359392505050565b6000602082840312156138be578081fd5b81518015158114610ece578182fd5b6000602082840312156138de578081fd5b5035919050565b6000602082840312156138f6578081fd5b5051919050565b6000806040838503121561390f578182fd5b50508035926020909101359150565b6001600160a01b039384168152919092166020820152604081019190915260600190565b60008219821115613955576139556139ea565b500190565b60008261396957613969613a00565b500490565b6000816000190483118215151615613988576139886139ea565b500290565b60008282101561399f5761399f6139ea565b500390565b6000816139b3576139b36139ea565b506000190190565b60006000198214156139cf576139cf6139ea565b5060010190565b6000826139e5576139e5613a00565b500690565b634e487b7160e01b600052601160045260246000fd5b634e487b7160e01b600052601260045260246000fdfea2646970667358221220cf90fc9b701df37ee2c20f766d5297574d544a880a0ffd1f314bab23a5f2f5e264736f6c63430008040033",
  "linkReferences": {},
  "deployedLinkReferences": {}
}